:020000040800F2
:10000000485C0020A90100088538000887380008EE
:100010009138000895380008993800080000000061
:100020000000000000000000000000009D380008F3
:100030009F38000800000000BF010008A138000838
:10004000C3010008C3010008C3010008E7C000089D
:10005000C3010008C3010008C3010008C301000870
:10006000C3010008C3010008C3010008C301000860
:10007000C3010008C3010008C3010008C301000850
:10008000C3010008C3010008C3010008AB38000821
:10009000A3380008C3010008C3010008C301000819
:1000A000C3010008C3010008C3010008C301000820
:1000B000C3010008C3010008C3010008853C000813
:1000C000CD3D0008293D0008833E0008C30100081B
:1000D000C3010008C3010008C3010008C3010008F0
:1000E00057C1000883C000083BF20008C3010008A4
:1000F000C3010008C3010008C3010008C3010008D0
:10010000C3010008C3010008C3010008C3010008BF
:10011000C3010008C3010008C3010008C3010008AF
:10012000C3010008C3010008C3010008C30100089F
:10013000C3010008C3010008C3010008C30100088F
:10014000C3010008C3010008C3010008C30100087F
:10015000C3010008C3010008C3010008C30100086F
:10016000C3010008C3010008C3010008C30100085F
:10017000C3010008C3010008C3010008C30100084F
:10018000C3010008C3010008C3010008C30100083F
:10019000C3010008DFF80CD010F0D4F90048004784
:1001A0004D370008485C0020064880470648004755
:1001B000FEE7FEE7FEE7FEE7FEE7FEE7FEE7FEE717
:1001C000FEE7FEE7CD0100089501000810B57F4865
:1001D000006840F470007D4908607D48006840F088
:1001E00001007B490860084640687A490840784920
:1001F0004860084600687849084075490860084624
:10020000006820F480200860084640687349084070
:100210006F4948600020C86208634FF41F0088607F
:10022000C8036A49803908600121400002F021F9C1
:100230006B48C06840F001006949C86000214FF078
:10024000805002F016F910BD10B5002100200022E8
:100250005F4B5B6803F00C0121B1042906D008292B
:1002600032D107E05F4B604C236031E05D4B5E4C68
:1002700023602DE0564B5B685C4C03EA0400544B52
:100280005B6803F4803200F000631BB9022303EBC8
:10029000904004E04FF4F873C3EB9043581C22B92C
:1002A000534B4343504C23600DE0494B5B6803F4D0
:1002B000003323B14E4B43434B4C236003E0494B87
:1002C0004343494C236003E0464B474C236000BF47
:1002D00000BF3F4B5B68C3F30313464CE15C424BEA
:1002E0001B68CB40404C236010BD0CB50020019032
:1002F00000903748006840F480303549086000BFFE
:100300003348006800F4003000900198401C0190D0
:10031000009818B90198B0F5A06FF1D12C48006889
:1003200000F4003010B10120009001E000200090A6
:100330000098012844D13048006840F010002E4950
:1003400008600846006820F003000860084600685E
:1003500040F0020008601E4840681D494860084699
:10036000406848600846406840F48060486008463D
:10037000406822490840164948600846406840F4F1
:10038000E81048600846006840F08070086000BFD0
:100390000F48006800F000700028F9D00C48406851
:1003A00020F003000A4948600846406840F0020017
:1003B000486000BF0648406800F00C000828F9D1EA
:1003C0000CBD10B5FFF791FF10BD000088ED00E0F7
:1003D0000010024000C0FFF8FFFFF6FEFFFF00F72D
:1003E0000070004000127A000000002000003C086D
:1003F00000093D000400002000200240FFFFC0F77C
:1004000031490143314A1160704770B50021002322
:100410000F22C47804B32D4C246804F4E064C4F5BE
:10042000E064210AC1F10403CA40447804FA03F1EC
:100430008478144021430901254C0678A15504789D
:1004400004F01F050124AC4005786D11AD0005F1E5
:10045000E025C5F8004109E0047804F01F050124F7
:10046000AC401C4D0678761145F8264070BD1A4AFE
:100470000A400243154B1B1F1A60704739B1134ADB
:10048000121D12680243114B1B1D1A6006E00F4A31
:10049000121D126882430D4B1B1D1A607047042801
:1004A00008D14FF0E021096941F004014FF0E0224A
:1004B000116107E04FF0E021096921F004014FF0DC
:1004C000E0221161704700000000FA050CED00E029
:1004D00000E400E080E100E080FFFF1F10B504466B
:1004E000F948844208D10121801401F0CFFF002196
:1004F000A01401F0CBFF25E0F448844209D101218A
:10050000480301F0C3FF00214FF4005001F0BEFF8B
:1005100018E0EF48844209D10121880301F0B6FFB9
:1005200000214FF4804001F0B1FF0BE0E948844224
:1005300008D10121C80301F0A9FF00214FF40040B8
:1005400001F0A4FF10BD30B5024600200023506822
:10055000E14C20400D790C6844EA052420435060AA
:100560009068DE4C2040D1E902542C434D7944EA96
:10057000450420439060D06A20F470000C7C641E17
:10058000E4B2234340EA0350D06230BD0021016051
:10059000017141718160C16001210174704721B115
:1005A000826842F00102826003E0826822F0010268
:1005B0008260704721B1826842F48072826003E0F9
:1005C000826822F480728260704710B50023CBB23B
:1005D0001AB144681C43446002E044689C43446090
:1005E00010BD7047014600208A6802F0080202B17F
:1005F00000E000207047816841F00401816070478D
:10060000014600208A6802F004020AB1012000E0DD
:100610000020704721B1826842F4A002826003E0AA
:10062000826822F4A00282607047014600208A6836
:1006300002F480020AB1012000E00020704710B5EA
:100640000A4600210023416821F46041531E41EA1B
:100650004331416010BD21B1426842F40062426002
:1006600003E0426822F400624260704721B1826D6B
:1006700042F00402826503E0426822F00402426014
:10068000704701228A40036D00230365036D134305
:1006900003657047F0B504460D4600200021092D82
:1006A00011DDE068A5F10A0606EB4607072606FA03
:1006B00007F18843A5F10A0606EB460603FA06F1A0
:1006C0000843E0600CE0206905EB4507072606FAC1
:1006D00007F1884305EB450603FA06F1084320615C
:1006E000072A0FDA606B561E06EB86071F2606FAEE
:1006F00007F18843561E06EB860605FA06F1084305
:10070000606322E00D2A0FDA206BD61F06EB860706
:100710001F2606FA07F18843D61F06EB860605FA60
:1007200006F10843206310E0E06AA2F10D0606EB33
:1007300086071F2606FA07F18843A2F10D0606EB8D
:10074000860605FA06F10843E062F0BD21B1826831
:1007500042F48012826003E0826822F48012826098
:1007600070470146C86C80B270475D4800687047AA
:1007700021B1426842F48062426003E0426822F4A0
:1007800080624260704721B1426842F48052426008
:1007900003E0426822F48052426070470A4600211A
:1007A000816821F4E04111438160704721B1826882
:1007B00042F40042826003E0826822F400428260D8
:1007C000704721B1826842F40212826003E08268BD
:1007D00022F4021282607047014600208A6802F407
:1007E00000120AB1012000E000207047F0B5044675
:1007F0001546002000220026092911DDE068A1F13C
:100800000A0707EB470C072707FA0CF29043A1F100
:100810000A0707EB470703FA07F21043E0600CE012
:10082000206901EB410C072707FA0CF2904301EB1A
:10083000410703FA07F210432061A06BC0F3015691
:10084000EF1C06F1010CA7EB0C0707EB870C1F2729
:1008500007FA0CF29043EF1C06F1010CA7EB0C0712
:1008600007EB870701FA07F21043A063F0BD10B54C
:100870000A4600210023816B21F44011531E41EAF6
:100880000351816310BD08B5002300930090009BC5
:100890000B440093009B1A6008BD08B50246002077
:1008A0000090009201F12800009B184400900098ED
:1008B000006880B208BD0A4600214168094B194012
:1008C000114341607047000000080240000C0240E4
:1008D00000180240001C0240FFFEF0FFFDF7F1FF90
:1008E0004C240140FFFD3FFF4162826270470A468F
:1008F0000021416821F01F0111434160704730B170
:100900002649096841F40001244A116005E02349A1
:10091000096821F40001214A116070470246002055
:1009200013680B400BB1012000E000207047CA4360
:100930000260704770B502460020002300240B12AD
:100940005568CEB205EA060415681D4015B10CB114
:10095000012000E0002070BD00220A12D343036092
:100960007047014600208A6D02F020020AB1012082
:1009700000E000207047014600208A6D02F040022E
:100980000AB1012000E0002070470A460021816D75
:1009900021F00301114381657047000008080240FF
:1009A00010B5012001F0A8FD002001F0A5FD10BD4B
:1009B0002A49086070472949091F0860704727497C
:1009C00084310860704701460020254A10884FF6A0
:1009D0007F4210400843224A1080704701460020A1
:1009E0001F4A10884FF68072104008431C4A10803E
:1009F000704708B500220092194A2C3A0092009ADA
:100A000002440092009A116008BD08B5014600201A
:100A1000009013482C3800900098084400900098EB
:100A2000008808BD0D489C300068C0B270470C4873
:100A30000830008840F001000949083108807047FB
:100A40000648A0300068C0B27047054808300088EA
:100A500040F00200024908310880704704860D42C8
:100A60002C6C004010B50121480701F029FD002140
:100A70004FF0005001F024FD10BD30B500220023DE
:100A80005A4C226840F6FE748440A243D1E90045E6
:100A90002C438D682C43CD6844EA050303FA00F427
:100AA0002243524C226030BD0021016041608160D0
:100AB000C160704739B14D4A1268012383401A431F
:100AC0004A4B1A6006E0494A1268012383409A4360
:100AD000464B1A60704741B1444A12684FF4805344
:100AE00083401A43414B1A6007E0404A12684FF4B2
:100AF000805383409A433D4B1A60704710B551B103
:100B00003A4A121D126804090123A3401A43374BC5
:100B10001B1D1A6009E0354A121D126804090123E1
:100B2000A3409A43314B1B1D1A6010BD40B12F49A1
:100B3000091D096841F003012C4A121D116007E0EC
:100B40002A49091D096821F00301284A121D116074
:100B5000704710B53AB1254B1B6801FA00F42343E6
:100B6000224C236006E0214B1B6801FA00F4A343EA
:100B70001E4C236010BD08B5002200921B4A009253
:100B800000F10802009B1A440092009A116008BD0F
:100B900008B500220092154A009200F11402009B51
:100BA0001A440092009A116008BD30B50024002359
:100BB000082802D142EA012401E042EA01440B4B39
:100BC00000F120052B441C6030BD08B50146002013
:100BD0000090064800902C2000EB9100009A1044F1
:100BE00000900098006880B208BD000000740040CA
:100BF00001684FF6FE721140016000210160416002
:100C00008160C1609C49884208D19B490839496884
:100C100041F00F01984A083A5160BEE096491431FC
:100C2000884208D194490839496841F0F001924A54
:100C3000083A5160B1E090492831884208D18E4984
:100C40000839496841F470618B4A083A5160A4E060
:100C500089493C31884208D187490839496841F4BB
:100C60007041854A083A516097E083495031884283
:100C700008D181490839496841F470217E4A083A0F
:100C800051608AE07C496431884208D17A49083948
:100C9000496841F47001784A083A51607DE076492C
:100CA0007831884208D174490839496841F0706147
:100CB000714A083A516070E06F498C31884208D11E
:100CC0006D490839496841F070416B4A083A5160F2
:100CD00063E06A49884206D1011F096841F00F01AB
:100CE000021F116059E065491431884208D16349F7
:100CF000091F096841F0F001604A121F11604CE0C1
:100D00005E492831884208D15C49091F096841F4CD
:100D100070615A4A121F11603FE058493C318842C5
:100D200008D15649091F096841F47041534A121FFE
:100D3000116032E051495031884208D14F49091FB2
:100D4000096841F470214D4A121F116025E04B499A
:100D50006431884208D14949091F096841F470018A
:100D6000464A121F116018E044497831884208D180
:100D70004249091F096841F07061404A121F116021
:100D80000BE03E498C31884207D13C49091F096874
:100D900041F07041394A121F1160704710B50022AE
:100DA000026847F6F0739A430C6A8B6823430C6918
:100DB00023434C6923438C692343CC6923434C6A06
:100DC00023438C6A23431A430260CB6843600B6859
:100DD00083604B68C36010BD002101604160816089
:100DE000C160016141618161C161016241628162F1
:100DF000704721B1026842F00102026004E002681B
:100E00004FF6FE731A40026070471AB103680B4335
:100E1000036002E003688B430360704741607047E2
:100E20000146486880B2704710B502460020002392
:100E30000B6803EA02040CB1012000E0002010BDA1
:100E40004860704710B50246002000230B6803EA93
:100E500002040CB1012000E0002010BD4860704782
:100E600010B523B110610124C1F8A84002E00024AC
:100E7000C1F8A84010BD000008000240080402406C
:100E800000204A490860091D0860091D0860091D05
:100E900008604748454914310860704700214349BC
:100EA0008279002A3AD00A46126803689A430B46B0
:100EB0001A600A1D126803689A430B1D1A600279B2
:100EC00011440A6803681A430A60384A08321268F3
:100ED00003689A43354B08331A601A1D1268036879
:100EE0009A43324B0C331A604279102A0ED11A1FE2
:100EF000126803681A432D4B08331A601A1D1268D2
:100F000003681A43294B0C331A600DE027494279D4
:100F100011440A6803681A430A6005E00279114423
:100F20000A6803689A430A607047002101600171F2
:100F30000C2141710021817170471C4910310968F1
:100F400001431A4A10321160704701460020174AC7
:100F5000143212680A400AB1012000E000207047F4
:100F600012491431086070470146002000220F4BDF
:100F70001B6803EA01020D4B14331B680B4013B1CD
:100F80000AB1012000E000207047084914310860D0
:100F900070470649183109680021044A1832116067
:100FA00011460968014311607047000000040140C8
:100FB000FFFF0F0001460020FD4A106800F0F80016
:100FC000084310607047FA49096821F01001F84A97
:100FD000116011460968014311607047F4480068C8
:100FE00040F04000F24908607047F149096821F07B
:100FF0008001EF4A11601146096801431160704792
:10100000EB49096943F6FF621140E94A1161114653
:101010000969014311617047E648E5494860E648BF
:1010200048607047E248006940F08000E04908618C
:1010300070470620DE49C96801F0010109B10120AD
:101040002AE0DB49C96801F0020109B1022023E06E
:10105000D749C96801F0040109B103201CE0D44953
:10106000C96801F0080109B1042015E0D049C96838
:1010700001F0100109B105200EE0CD49C96801F069
:10108000400109B1072007E0C949C96801F08001A2
:1010900009B1082000E00620704700B5024606238B
:1010A000FFF7C7FF034603E0FFF7C3FF0346521EE7
:1010B000012B01D1002AF7D102B90923184600BD3E
:1010C00030B5044606254FF43020FFF7E6FF05460D
:1010D000062D17D1B648006940F00200B4490861F6
:1010E00008464461006940F0400008614FF4302038
:1010F000FFF7D3FF0546AE48006943F6FD7108408F
:10110000AB490861284630BD10B506244FF43020A5
:10111000FFF7C3FF0446062C16D1A548006940F02E
:101120000400A34908610846006940F040000861D6
:101130004FF43020FFF7B1FF04469D48006943F6A5
:10114000FB7108409A490861204610BD002098496B
:10115000C96901F0020109B1012000E000207047D7
:1011600030B5964D0624FFF7F1FF08B1934DA53D2C
:101170004FF43020FFF791FF0446062C3BD18D48F9
:101180008B4988608C4888600846006940F02000E0
:1011900008610846006940F0400008614FF43020C3
:1011A000FFF77BFF0446062C1CD18148006943F6FB
:1011B000DF7108407E4908610846006940F0100070
:1011C00008617F4805604FF40050FFF766FF044652
:1011D000092C10D07648006943F6EF710840744935
:1011E000086108E0092C06D07148006943F6EF71E8
:1011F00008406F490861204630BD78B504460D4669
:101200000626002000904FF40050FFF746FF0646E8
:10121000062E12D16648006940F001006449086159
:1012200025604FF40050FFF738FF0646604800691C
:1012300043F6FE7108405E490861304678BD70B5DE
:1012400005460E4606244FF40050FFF726FF0446DD
:10125000062C18D157485649886057488860084678
:10126000006940F0100008612E604FF40050FFF755
:1012700014FF0446092C06D04D48006943F6EF716F
:1012800008404B490861204670BD2DE9F0430446F3
:101290004FF6FF763746B046B1460625E443E6B240
:1012A000C4F30727C4F307484FEA14694FF400500A
:1012B000FFF7F3FE0546062D32D13E483C498860D3
:1012C0003D4888600846006940F010000861FF2E24
:1012D00001D1FF2F09D046EA07403949083108609B
:1012E0004FF40050FFF7D9FE0546B8F1FF0F02D1C9
:1012F000B9F1FF0F0BD0062D09D148EA094030495A
:101300000C3108604FF40050FFF7C7FE0546092D69
:1013100006D02748006943F6EF7108402449086168
:101320002846BDE8F08330B5054606244FF430204A
:10133000FFF7B3FE0446062C4DD11E481C498860B9
:101340001D4888600846006940F020000861084692
:10135000006940F0400008614FF43020FFF79DFE27
:101360000446062C2ED11248006943F6DF7108406E
:101370000F4908610846006940F01000086125B176
:101380000E48A5380E49086002E00C480C49086078
:101390004FF43020FFF781FE0446092C1BD004488F
:1013A000006943F6EF7108400149086113E000004D
:1013B0000020024023016745AB89EFCDA500FFFF68
:1013C00000F8FF1F092C06D07A48006943F6DF7148
:1013D000084078490861204630BD30B505460624EE
:1013E0004FF43020FFF759FE0446062C42D17248D4
:1013F00070498860714888600846006940F02000A4
:1014000008610846006940F0400008614FF4302050
:10141000FFF743FE0446062C23D16648006943F6D5
:10142000DF710840634908610846006940F0100018
:1014300008611DB162486349086003E04FF0FF3066
:10144000604908604FF43020FFF727FE0446092C5E
:1014500010D05848006943F6EF71084055490861BB
:1014600008E0092C06D05348006943F6DF710840B4
:1014700050490861204630BD2DE9F04105460E4631
:101480001746DFF844810624FFF760FE18B1DFF845
:101490003881A8F1A50848484649886047488860CF
:1014A0004FF43020FFF7F9FD0446062C3ED14148A9
:1014B000006940F020003F4908610846006940F09B
:1014C000400008614FF43020FFF7E7FD0446062C8A
:1014D00023D13848006943F6DF7108403549086177
:1014E0000846006940F01000086147F0F8003043FA
:1014F000284348EA00403349103908604FF400504F
:10150000FFF7CBFD0446092C10D02A48006943F6AA
:10151000EF7108402749086108E0092C06D02548EA
:10152000006943F6EF710840224908612046BDE892
:10153000F0812048C069800870471E48006A7047E3
:1015400000201C49096801F0200109B1012000E0D8
:101550000020704700201749096943F6FF621140D7
:1015600009B1012000E00020704729B1114A126939
:101570000243104B1A6104E00E4A126982430D4B7C
:101580001A61704701460020012908D1094AD26931
:1015900002F001020AB1012008E0002006E0054A3D
:1015A000D2680A400AB1012000E0002070470149DA
:1015B000C86070470020024023016745AB89EFCD2A
:1015C000CC33FFFF10F8FF1FA500FFFF10B5044646
:1015D000FD48844208D10121042000F064FF00216D
:1015E000042000F060FF46E0F848844208D1012161
:1015F000082000F058FF0021082000F054FF3AE0D6
:10160000F348844208D10121102000F04CFF002152
:10161000102000F048FF2EE0EE48844208D101215E
:10162000202000F040FF0021202000F03CFF22E0BD
:10163000E948844208D10121402000F034FF002114
:10164000402000F030FF16E0E448844208D1012138
:10165000802000F028FF0021802000F024FF0AE015
:10166000DF48844207D10121801500F01CFF0021D2
:10167000A01500F018FF10BD10B50121084600F0BC
:1016800012FF0021012000F00EFF10BD2DE9F041F6
:10169000024600250026002000230024002791F8A0
:1016A00003C00CF00F0591F803C00CF0100CBCF156
:1016B000000F03D091F802C04CEA050591F800C074
:1016C000BCF1000F31D0146800202BE04FF0010C6A
:1016D0000CFA00F3B1F800C00CEA03069E4220D1D8
:1016E00083004FF00F0C0CFA03F7BC4305FA03FC20
:1016F0004CEA040491F803C0BCF1280F06D14FF066
:10170000010C0CFA00FCC2F814C00AE091F803C006
:10171000BCF1480F05D14FF0010C0CFA00FCC2F8E7
:1017200010C0401C0828D1D31460B1F800C0BCF12F
:10173000FF0F34DD546800202EE000F1080C4FF05C
:10174000010808FA0CF3B1F800C00CEA03069E4247
:1017500021D183004FF00F0C0CFA03F7BC4305FABC
:1017600003FC4CEA040491F803C0BCF1280F05D136
:1017700000F1080C08FA0CF8C2F8148091F803C0C4
:10178000BCF1480F07D100F1080C4FF0010808FA2E
:101790000CF8C2F81080401C0828CED35460BDE875
:1017A000F0814FF6FF710180022181700421C17028
:1017B00070470246002093680B400BB1012000E007
:1017C000002070470146886880B2704702460020BA
:1017D000D3680B400BB1012000E0002070470146A8
:1017E000C86880B27047016170470161704741610C
:1017F00070470AB1016100E041617047C160704704
:101800004FF480320A438261816182618269826918
:10181000704702460020734B18684FF680731840DB
:1018200040EA021008436F4B186070476E49C86168
:101830007047F0B502460C46002300260021002523
:10184000002002F00047B7F1004F02D1654FF9695F
:1018500011E002F08047B7F1804F02D1614F396A41
:1018600009E002F00057B7F1005F02D15D4F796ADD
:1018700001E05C4F7968C2F3034593B25B4F1740B8
:10188000B7F5401F0AD121F07061564F7F6827F0ED
:101890007067DFF850C1CCF80470CDE002F4801717
:1018A000B7F5801F13D102F40017B7F5001F03D15D
:1018B0000327AF403E0402E0032707FA05F6B143D1
:1018C00002F0E047002FE8D141F07061B4E002F08F
:1018D0008077B7F1807F45D102F00407042F27D12C
:1018E00002F00077B7F1007F15D1570D3F0103FAE1
:1018F00007F7B9433CB13B4F786840F0010040F036
:101900007060786098E0374F786820F0010040F010
:101910007060786090E0570D3F0103FA07F7B94314
:10192000304F786820F0010040F07060786083E00C
:1019300043F004074FEA525C4FEA0C1C07FA0CF71D
:10194000B9433CB1274F786840F0010040F0706027
:10195000786071E0234F786820F0010040F07060FB
:10196000786069E002F08067B7F1806F5AD102F0C9
:101970000807082F3CD102F00077B7F1007F15D19E
:10198000570D3F0103FA07F7B9433CB1154F78688B
:1019900040F0080040F0706078604DE0114F7868CA
:1019A00020F0080040F07060786045E0570D3F017E
:1019B00003FA07F7B9430B4F786820F0080040F0AE
:1019C0007060786038E0000000080140000C0140C1
:1019D000001001400014014000180140001C0140AB
:1019E0000020014000000140000020420000306063
:1019F00043F008074FEA525C4FEA0C1C07FA0CF759
:101A0000B9433CB12F4F786840F0080040F0706057
:101A1000786011E02B4F786820F0080040F070608B
:101A2000786009E0570D3F0103FA07F7B94302F068
:101A3000E0470FB941F070612CB1C2F340573F014C
:101A400003FA07F7394302F00047B7F1004F02D11C
:101A50001C4FF96111E002F08047B7F1804F02D1CD
:101A6000184F396209E002F00057B7F1005F02D168
:101A7000144F796201E0134F7960F0BD30B5002258
:101A80008B071C0F0F2303FA04F20E4B08338C1044
:101A900053F8243093430B4C08348D1044F8253010
:101AA00023468C1053F824308C07240F00FA04F4DA
:101AB0002343044C08348D1044F8253030BD0249CE
:101AC0000860704700000140DC00204210B5044669
:101AD000F748844209D10121480500F0F1FC0021BA
:101AE0004FF4001000F0ECFC08E00121880500F044
:101AF000E7FC00214FF4800000F0E2FC10BD2DE96E
:101B0000F04387B004460D460026B1460427DFF8AF
:101B1000A483A6884FF6C070064001A800F0FAFB27
:101B2000DDF80C80E448B8FBF0F01FFA80F946EAD3
:101B30000906A68020884FF6FE7108402080002606
:101B4000DE49286888420CD828684000B8FBF0F0CD
:101B500087B2042F00DA04273E4309F101002084F4
:101B600027E0E8884BF6FF71884206D1286800EB31
:101B70004000B8FBF0F087B209E0286800EBC00134
:101B800001EB0010B8FBF0F087B247F48047C7F3D1
:101B90000B0008B947F0010747F4004006434FF433
:101BA000967009FB00F04FF47A7190FBF1F0401C45
:101BB0002084A683208840F00100208026884FF6EC
:101BC000F5300640A8886989084306432680A8891D
:101BD00029890843208107B0BDE8F08341F28831AC
:101BE0000160002181804BF6FF71C18000210181DD
:101BF00041814FF480418181704721B1028842F0D8
:101C00000102028004E002884FF6FE731A4002804F
:101C1000704721B1828842F40062828004E08288A9
:101C20004FF2FF731A408280704721B1828842F4DC
:101C30008052828004E082884EF6FF731A408280D0
:101C4000704721B1028842F48072028004E0028869
:101C50004FF6FF631A400280704721B1028842F4B8
:101C60000072028004E002884FF6FF531A4002809F
:101C7000704721B1028842F48062028004E0028849
:101C80004FF6FF331A40028070470A4600218189CF
:101C90004FF60173194002F0FE031943818170472A
:101CA00021B1828942F00102828104E082894FF6EB
:101CB000FE731A408281704721B1028842F04002CF
:101CC000028004E002884FF6BF731A40028070471A
:101CD0001AB183880B43838002E083888B4383801F
:101CE0007047018270470146088AC0B2704712B13E
:101CF00041F0010102E04FF6FE7319400182704786
:101D000008B5024600200090009200980844009018
:101D10000098008808BD21B1028842F40042028088
:101D200003E00288C2F30E0202807047B1F5006F33
:101D300004D1028842F40062028004E002884FF27B
:101D4000FF731A4002807047B1F5005F04D102882A
:101D500042F40052028004E002884DF6FF731A40FC
:101D60000280704721B1028842F48052028004E070
:101D700002884EF6FF731A4002807047B1F5006F7B
:101D800004D1028842F40062028004E002884FF22B
:101D9000FF731A400280704721B1028842F020028E
:101DA000028004E002884FF6DF731A400280704719
:101DB0000146088B0012704721B1028842F01002E0
:101DC000028004E002884FF6EF731A4002807047E9
:101DD00021B9028842F08002028004E002884FF6B6
:101DE0007F731A4002807047B1F5804F05D0828B17
:101DF0004BF6FF731A40828303E0828B42F48042E9
:101E00008283704770B5024600240025002300201D
:101E1000958A138B1B0445EA030626F07F4404EAE7
:101E200001068E4201D1012000E0002070BD10B5F6
:101E300001460020002300228B8A0A8B120443EA09
:101E4000020424F07F4010BD0CB5024600200023A0
:101E50000193009300920B0F019321F07F41019BAE
:101E60001BB1009B1433009303E0090C009B183353
:101E70000093009B1B680B400BB1012000E0002089
:101E80000CBD002221F07F42D3438382704730B5DE
:101E9000024600200023948801F0E06504EA15431F
:101EA00021F07F41948A0C4054B14BB1012008E0ED
:101EB0000054004000127A0040420F00A08601004A
:101EC000002030BD002221F07F42D343838270473F
:101ED00010B50121080700F0F3FA00214FF08050FF
:101EE00000F0EEFA10BD534908627047514908618D
:101EF000704701460020504A106820F0E000084377
:101F0000106070474B49A031086070474A488068AC
:101F10004FF6F9710840484988607047474A12688F
:101F200022F00402454B1A60012805D11A461268B6
:101F300042F002021A6006E028B9404A126822F014
:101F400002023E4B1A60012901D130BF02E040BFBE
:101F500020BF20BF704710B502460020364B1868DE
:101F600020F0030010431860344B1B6843F0040357
:101F7000324C2360012901D130BF02E040BF20BFB5
:101F800020BF2E4B1B6823F004032C4C236010BD94
:101F900001460020284A106820F0030040F4007039
:101FA0001060926842F00102234B9A60234A126843
:101FB00042F00402214B1A60012901D130BF02E036
:101FC00040BF20BF20BF1D4A126822F004021B4BF5
:101FD0001A6070471848006840F00400164908600D
:101FE0000846006820F4007008600846006820F089
:101FF000030008600846006840F0020008600F48CF
:10200000006840F004000D49086000BF00BF30BF09
:10201000704701460020084A52680A400AB1012070
:1020200000E0002070470449096841EA8001024A43
:102030001160704700000E420070004010ED00E09B
:10204000F748006840F00100F5490860084640681C
:10205000F4490840F249486008460068F2490840DF
:10206000EF4908600846006820F4802008600846B0
:102070004068EE490840EA4948604FF46050C86241
:1020800008634FF41F0088607047E549096821F430
:102090008031E34A11601146096821F48021116002
:1020A000B0F5803F03D0B0F5802F0ED106E0DC49BB
:1020B000096841F48031DA4A116007E0D8490968BB
:1020C00041F4A021D64A116000E000BF00BF704774
:1020D00010B501460022002300204A11012A02D136
:1020E000CF4C236806E0022A02D1CD4C236A01E0DE
:1020F000CB4C636A01F01F02012494401C400CB1D8
:10210000012000E0002010BD38B500200090002420
:10211000002500BF3120FFF7DBFF05460098401C7B
:1021200000900098B0F5A06F01D0002DF2D03120C2
:10213000FFF7CEFF08B1012400E00024204638BD9F
:1021400001460020B64A106820F0F80040EAC100BD
:102150001060704701460020B54A106820F07F40AB
:1021600040EA016010607047B2490860704702465B
:102170000020AB4B5868B04B184042EA01031843AB
:10218000A74B58607047AB4908667047014600206E
:10219000A34A506820F00300084350607047A048ED
:1021A000406800F00C007047014600209C4A5068CF
:1021B00020F0F00008435060704701460020984A24
:1021C000506820F4E06008435060704701460020EA
:1021D000934A506820F4605040EAC1005060704754
:1021E00029B18F4A527A02438D4B5A7204E08C4ACD
:1021F000527A82438A4B5A7270478E49D8310860AE
:1022000041088C4AC2F8DC10704701460020844A1D
:10221000D06A20F000500843D06270470146002089
:102220007F4AD06A20F0F8500843D06270470146D8
:1022300000207B4AD06A20F480100843D0627047A7
:1022400002460020764BD86A20F4806020F4784063
:1022500010430843D862704702460020704BD86A8A
:1022600020F4F87009B1104302E0104320F48070AC
:102270006B4BD862704701460020694AD06A20F053
:102280000F000843D062704702460020644B186B71
:1022900020F4003020F4784010430843186370475E
:1022A00030B15F49096B41F480215D4A116305E05B
:1022B0005B49096B21F48021594A11637047002161
:1022C000574A20321170564A82F82010012802D055
:1022D00004280AD104E00121514A2032117005E09E
:1022E00005214F4A2032117000E000BF00BF704747
:1022F0005249086070474A49096A21F44071484AC6
:1023000011621146096A0143116270474B49443911
:1023100008607047F0B5002100BF002200250024AE
:102320003F4E7668464F06EA07023D4E766806F451
:10233000803502F000661EB9022606EB924204E0E8
:102340004FF4F876C6EB9246721C1DB93D4E02FB67
:1023500006F30BE0324E766806F400361EB1394EB5
:1023600002FB06F302E0384E02FB06F32C4E7668C1
:1023700006F00C0121B1042905D0082908D105E097
:10238000314E066007E0304E066004E0036002E074
:102390002D4E066000BF00BF214E766806F0F001AA
:1023A00009092A4E745C0668E64046601C4E766851
:1023B00006F4E061090A254E745C4668E6408660D2
:1023C000174E766806F46051C90A204E745C466860
:1023D000E640C660124EF66A06F00F011C4E745CB1
:1023E0004668B6FBF4F646610D4EF66A06F4F871DF
:1023F000090901F00F06174F37F81640B3FBF4F642
:102400000661F0BD29B1064A52690243044B5A6184
:1024100004E0034A52698243014B5A61704700004D
:102420000010024000C0FFF8FFFFF6FEFFFF00F7BC
:102430000418004000004242FFFFC0F780044242FF
:1024400000003C0800093D0000127A001400002042
:10245000240000203400002029B1404A9269024340
:102460003E4B9A6104E03D4A926982433B4B9A613C
:10247000704729B1394AD2690243384BDA6104E026
:10248000364AD2698243354BDA61704729B1334A03
:10249000926A0243314B9A6204E0304A926A824364
:1024A0002E4B9A62704729B12C4AD26802432B4BBB
:1024B000DA6004E0294AD2688243284BDA60704728
:1024C00029B1264A12690243244B1A6104E0234AC7
:1024D00012698243214B1A61704730B11F49096B61
:1024E00041F040011D4A116305E01C49096B21F0D0
:1024F00040011A4A11637047194908607047194929
:10250000C864704701460020144A506820F07040AB
:1025100008435060704701460020104AD07900F00F
:10252000F8000843D07170470C48406A40F0807052
:102530000A4948620846406A20F080704862704745
:1025400001460020054A92680A400AB1012000E0D5
:102550000020704701498872704700000010024057
:10256000400442420000424208B50022009200208E
:102570000021CA22F84B1A6053221A60F64A183A10
:10258000126822F0A002F44B183B1A6000BFF24A16
:10259000183A126802F02001009A521C0092009A28
:1025A000B2F5004F01D00029F1D0EB4A183A126879
:1025B00002F020020AB1012000E00020FF22E64BD9
:1025C0001A6008BD08B50022009200200021E24AEE
:1025D000183A126802F04002E2B9421EDE4B183B84
:1025E0001A6000BFDC4A183A126802F04001009AF3
:1025F000521C0092009AB2F5005F01D00029F1D080
:10260000D54A183A126802F040020AB1012002E0ED
:10261000002000E0012008BD38B500200090002413
:102620000025CA20CC49086053200860FFF7CAFF84
:1026300000B958E00020C8492439086042F201106E
:10264000091D0860081D006800F00700091D0860EA
:1026500000BFC1481838006800F004040098401C0E
:1026600000900098B0F5005F01D0002CF1D0BA487E
:102670001838006800F0040008B9002533E0B648B7
:102680001C3800680020B4491C3908604FF6FF7000
:10269000B14910390860B148091F08600020AE49EF
:1026A00008390860091D0860AB4908310860AA496B
:1026B00018310860A84920310860091D0860A64942
:1026C00018390860A449283108600820A24940311F
:1026D000086040F2FE20091D0860FFF745FF08B9B9
:1026E000002500E00125FF209B490860284638BDF1
:1026F00099481838006820F0800097491839086018
:10270000704730B504460025CA209349086053201D
:102710000860FFF757FF00B91DE08F481C380068BC
:1027200020F040008C491C39086008460068216888
:10273000084389491C39086087491439A068086032
:1027400008460068A18840EA0140834914390860BE
:10275000FFF7CEFF0125FF207F490860284630BDE6
:10276000002101607F214160FF218160704718B125
:10277000FF21794A116004E0CA21774A1160532190
:102780001160704730B504460025CA2072490860C0
:1027900053200860FFF716FF00B914E044B16E48FB
:1027A0001C38006840F010006B491C39086007E0D5
:1027B00069481C38006820F0100067491C3908601F
:1027C000FFF796FF0125FF2063490860284630BDCA
:1027D000CA21614A11605321116040B15E491C3920
:1027E000096841F020015C4A1C3A116007E05A492F
:1027F0001C39096801F0DF01574A1C3A1160FF21BA
:10280000554A116070470146002204E0501CC2B2D4
:10281000A1F10A00C1B20A29F8DA100741EA1060F2
:102820007047014600BF080900EB8000420001F03C
:102830000F001044C0B270472DE9F04105460C4628
:102840000026002755B944481C38006800F04000B5
:1028500000B102E00020E07000BF0EE03E481C38EE
:10286000006800F0400020B12078FFF7DAFF06464C
:1028700002E00020E07000BF00BF55B120780004E6
:10288000617840EA0120A1780843E17840EA0146F6
:1028900011E02078FFF7B7FF4FEA00486078FFF7B4
:1028A000B2FF48EA0028A078FFF7ADFF48EA000829
:1028B000E07848EA0046CA202749086053200860AB
:1028C000FFF780FE08B9002714E025483040224970
:1028D00024390860FFF70CFF1F481C38006800F01F
:1028E000200030B9FFF740FE08B9002702E00127B9
:1028F00000E00127FF20184908603846BDE8F08154
:102900000021C170017041708170704770B506463A
:102910000C460025104824380068114900EA0105DA
:10292000C5F305402070C5F30620607005F07F00F8
:10293000A07005F48000000CE0705EB92078FFF70D
:1029400070FF20706078FFF76CFF6070A078FFF771
:1029500068FFA07070BD000024280040FF007F00C9
:102960007F7F7F000020FE490868FD4924390968FF
:1029700070472DE9F04105460C46002600274DB969
:10298000607800F01000102804D1607820F010006A
:102990000A30607005B908E06078FFF742FF06462C
:1029A000A078FFF73EFF064600BF55B1E07800046F
:1029B000617840EA0120A1780843217840EA413655
:1029C00011E0E078FFF71FFF4FEA00486078FFF75B
:1029D0001AFF48EA0028A078FFF715FF48EA000828
:1029E000207848EA4036CA20DD49091F0860532094
:1029F0000860FFF7E7FD08B9002714E0D948304028
:102A0000D74924390860FFF773FED548203800689D
:102A100000F0200030B9FFF7A7FD08B9002702E059
:102A2000012700E00127FF20CD49091F0860384633
:102A3000BDE8F08101210170817041700021C170F9
:102A4000704770B506460C460025C5482438006816
:102A5000C44900EA0105280CE070C5F30420607049
:102A600005F03F00A070C5F3423020705EB9E078F9
:102A7000FFF7D7FEE0706078FFF7D3FE6070A078B4
:102A8000FFF7CFFEA07070BD2DE9F04105460E4660
:102A9000144600276DB9B2482038006800F04000A5
:102AA00000B102E00020E07000BFA06800B91AE0A9
:102AB00019E0AB482038006800F0400020B12078D1
:102AC000FFF7AFFE074602E00020E07000BFA068FD
:102AD00020B9207BFFF7A5FE074604E0207BFFF727
:102AE000A0FE074600BF95B120780004617840EA57
:102AF0000120A1780843E17840EA0140217B40EAC7
:102B00000160A1680843616840EA01071BE0207882
:102B1000FFF779FE4FEA00486078FFF774FE48EA55
:102B20000028A078FFF76FFE48EA0008E07848EA3E
:102B30000048207BFFF767FE48EA0060A168084371
:102B4000616840EA0107CA208549091F08605320CF
:102B50000860B6F5807F03D181480C38076002E039
:102B60007F4808380760FF207D49091F0860BDE8DD
:102B7000F0810021C170017041708170816001217C
:102B800001730021416070472DE9F04106460F4670
:102B900014460025B7F5807F03D171480C380568CD
:102BA00002E06F4808380568C5F305402070C5F39A
:102BB0000620607005F07F00A07005F48000000C16
:102BC000E070C5F30560207305F08040A06005F05B
:102BD000803060607EB92078FFF723FE2070607837
:102BE000FFF71FFE6070A078FFF71BFEA070207B30
:102BF000FFF717FE2073BDE8F08138B502460024C8
:102C0000009400230020CA24554D2D1F2C6053240E
:102C10002C6041B1524C203C24681443504D203D5F
:102C20002C6001201EE04E4C203C246894434C4D07
:102C3000203D2C6000BF4A4C1C3C246804EA12234F
:102C4000009C641C0094009CB4F5005F01D0002B34
:102C5000F1D0434C1C3C246804EA12240CB9002037
:102C600000E00120FF243E4D2D1F2C6038BD30B503
:102C70000023CA243A4D2D1F2C6053242C6041EAB6
:102C80000203B0F5807F03D1354C1C34236002E091
:102C9000334C20342360FF24314D2D1F2C6030BD78
:102CA00001460020B1F5807F05D12D4A1C32126803
:102CB000C2F30E0004E02A4A20321268C2F30E006A
:102CC0007047CA21264A121F1160532111602449FE
:102CD0002039096821F00701214A203A1160114684
:102CE000096801431160FF211D4A121F11607047DE
:102CF000CA211B4A121F116053211160184914394F
:102D00000860FF211160704715481438006880B2D0
:102D1000704718B501460023009300220020CA2303
:102D20000F4C241F23605323236049B10C4B203BDD
:102D30001B6843F480630A4C203C2360012023E09D
:102D4000074B203B1B6823F48063054C203C236029
:102D500000BF034B1C3B1B6803F00402009B03E015
:102D6000282800403FFFFF005B1C0093009BB3F549
:102D7000005F01D0002AECD0E74B1B6803F004038E
:102D80000BB9002000E00120FF23E34C183423603E
:102D900018BDCA22E04B18331A6053221A60DE4A6B
:102DA000121F126822F48022DB4B1B1F1A601A4686
:102DB000126840EA01031A43D74B1B1F1A60FF2217
:102DC000D54B18331A607047D348001F006800F4D1
:102DD0008020704701B502E00098401E00900098E6
:102DE0000028F9D108BD38B505460C4600200090F2
:102DF000CA20C9491831086053200860C648001F1E
:102E0000006820F4E000C449091F08604FF6FF7015
:102E1000FFF7E0FFC048001F006845EA04010843CF
:102E2000BD49091F0860FF20BB491831086038BD43
:102E3000CA21B94A183211605321116040B1B64914
:102E4000091F096841F40001B34A121F116007E02D
:102E5000B149091F096821F40001AF4A121F11602E
:102E6000FF21AD4A183211607047CA21AA4A1832B0
:102E7000116053211160A849091F096821F400213C
:102E8000A54A121F11601146096801431160FF2114
:102E9000A14A18321160704770B503460020002423
:102EA000CA259D4E18363560532535609A4D2D68DC
:102EB00005F480354DB100E0641C974D2D6805F494
:102EC000803515B1B4F5805FF6D1934D2D6805F4CA
:102ED00080353DB943EA010515438F4E30363560E4
:102EE000012000E00020FF258B4E1836356070BDB4
:102EF00010B50A460021884B1B1F1B6840F60804CA
:102F000023EA04011AB140F40063194300E00143CD
:102F1000CA23814C18342360532323607E4B1B1F2C
:102F20001960FF23236010BD2DE9F04180460C4657
:102F3000154600260027784824300068774900EAC3
:102F40000106754828300068754900EA0107C6F394
:102F500005402070C6F30620607006F07F00A07068
:102F600006F48000000CE0700020E870C7F3042035
:102F7000687007F03F00A870C7F342302870B8F1BE
:102F8000000F17D12078FFF74CFC20706078FFF716
:102F900048FC6070A078FFF744FCA0706878FFF7E9
:102FA00040FC6870A878FFF73CFCA8702878FFF711
:102FB00038FC2870BDE8F08157482C300068704715
:102FC00055494031096821F00101534A40321160EE
:102FD00011460968014311607047F0B504460D467B
:102FE00000270026CA204C49183108605320086089
:102FF0004948006800F0080048B100E0761C4648E7
:10300000006800F0080010B1B6F5005FF6D1424844
:10301000006800F0080098B93F48001F006800F001
:10302000100058B945EA04003B4920310860FFF719
:103030009BFA08B9002704E0012702E0002700E01E
:103040000027FF203449183108603846F0BDCA22F5
:10305000314B18331A6053221A6049B12E4A121F9D
:10306000126820F004031A432B4B1B1F1A6008E060
:10307000294A121F126820F004039A43264B1B1F93
:103080001A60FF22244B18331A60704710B50146AE
:1030900000200022204B1B68224C03EA040202EAB3
:1030A00001030BB1012000E0002010BDC0F31001AE
:1030B00041F08001184A126802F0800262EA0101C0
:1030C000154A1160704730B50146002000220023E8
:1030D000114C241F24680C408D0C21FA05F502EADE
:1030E000D53544EA05030C4C246804EA11121BB1DF
:1030F00094B20CB1012000E0002030BD0021010994
:103100008AB242F08002044B1B6803F0800363EA3A
:103110000202014B1A6070470C2800407F7F7F003D
:103120003FFFFF007F1F010000206F4908604860DB
:103130008860C86048628862C8626C488863002002
:10314000C86370470021684A516847F6FF6291439F
:10315000027D83681A4343681A43C3681A430368AD
:103160001A4303691A4311435F4A516070470021B3
:103170000175016041608160C160016170475C4917
:10318000086070475849096821F00301564A1160E8
:10319000114609680143116070475348006800F008
:1031A0000300704729B1504AD26B02434E4BDA6399
:1031B00004E04D4AD26B82434B4BDA6370474D4972
:1031C000086070470021484B02689A601A46D1682F
:1031D0006FF30A01D0E901231A43C3681A43036954
:1031E0001A431143404AD160704700210160416099
:1031F0008160C160016170473B480069C0B270479F
:1032000008B501460020009037481430084400906B
:103210000098006808BD0021334B02685A6242687A
:103220009A621A46D16A21F0F701D0E902231A43C3
:1032300003691A4343691A4311432B4AD162704709
:103240004FF0FF310160002141608160C160016188
:10325000416170472448006B704723488030006804
:10326000704721498031086070471F48806C704763
:1032700020491431086070471E49183108607047B2
:103280001C491C31086070471A492031086070479A
:103290001949086070471849091D086070470121E5
:1032A0008143154A08321160704713490C31086098
:1032B0007047014600200C4A526B0A400AB10120B7
:1032C00000E00020704708498863704701460020ED
:1032D000054A526B0A400AB1012000E00020704705
:1032E000014988637047000000800140FF07C0006B
:1032F000A00030428C053042AC01304210B504468B
:10330000FA48844209D101218803FFF7CCF8002153
:103310004FF48040FFF7C7F84CE0F548844209D1EC
:1033200001214804FFF7CCF800214FF40030FFF7EB
:10333000C7F83FE0EF48844209D101218804FFF734
:10334000BFF800214FF48020FFF7BAF832E0EA48D6
:10335000844209D10121C804FFF7B2F800214FF4DB
:103360000020FFF7ADF825E0E448844209D10121AF
:103370000805FFF7A5F800214FF48010FFF7A0F82B
:1033800018E0DF48844209D101214804FFF78BF897
:1033900000214FF40030FFF786F80BE0D948844253
:1033A00008D101218804FFF77EF800214FF4802026
:1033B000FFF779F810BD2DE9F04786B005460E46B7
:1033C0000024A24600BFA1460027B08900B100BF7B
:1033D0002F462C8A4CF6FF700440F08804432C8260
:1033E000AC894EF6F3100440B088318908437189E6
:1033F00008430443AC81AC8A4FF6FF400440B089D7
:103400000443AC826846FEF785FFB848874205D082
:10341000BB48874202D0BB48874202D1DDF80CA0EE
:1034200001E0DDF808A0A88900F4004040B10AEBF3
:10343000CA0000EB0A1031684900B0FBF1F807E060
:103440000AEBCA0000EB0A1031688900B0FBF1F802
:103450006420B8FBF0F004012009642101FB10890D
:10346000A88900F4004040B1322000EBC900B0FB55
:10347000F1F000F00700044308E0322000EB0910EF
:103480006421B0FBF1F000F00F0004432C8106B082
:10349000BDE8F0874FF41651016000218180C180A2
:1034A00001810C21418100218181704710B50246C4
:1034B0000020108A4FF2FF0318400B884C882343EA
:1034C0008C882343CC8823431843108210BD0021ED
:1034D000018041808180C180704721B1828942F49E
:1034E0000052828104E082894DF6FF731A40828186
:1034F0007047F0B50346002400260025002040F662
:103500006A17B94200D100BF1846C1F3421401F056
:103510001F06012707FA06F5012C01D10C3004E043
:10352000022C01D1103000E014301AB107682F438B
:10353000076002E00768AF430760F0BD1AB1838AF5
:103540000B43838202E0838A8B4383827047028A23
:103550004FF6F0731A400282028A0A4302827047D1
:1035600082894FF2FF731A40828182890A438281E5
:10357000704721B1828942F00202828104E082898F
:103580004FF6FD731A4082817047028A4FF6DF734F
:103590001A400282028A0A430282704721B1028ADB
:1035A00042F48042028204E0028A4BF6FF731A4022
:1035B00002827047C1F30802828070470146888802
:1035C000C0F308007047818941F001018181704793
:1035D000028BD2B20283028B42EA0122028370473D
:1035E000028B02F47F420283028B0A4302837047FC
:1035F00021B1828A42F02002828204E0828A4FF660
:10360000DF731A408282704721B1828A42F0100231
:10361000828204E0828A4FF6EF731A4082827047FA
:1036200021B1828A42F00802828204E0828A4FF647
:10363000F7731A408282704721B1828942F40042B6
:10364000828103E08289C2F30E028281704721B138
:10365000828A42F40062828204E0828A4FF2FF731F
:103660001A4082827047828A4FF6FB731A40828228
:10367000828A0A438282704721B1828A42F0020222
:10368000828204E0828A4FF6FD731A40828270477C
:1036900002460020B1F5007F00D100BF13880B4027
:1036A0000BB1012000E00020704701F40072B2F578
:1036B000007F00D100BFCA430280704770B5024648
:1036C000002400230025002040F66A16B14200D1F4
:1036D00000BFC1F3421501F01F03012606FA03F3F0
:1036E000012D11D19689334015E0000000380140CA
:1036F0000044004000480040004C004000500040A2
:103700000050014000540140022D02D1168A33407E
:1037100001E0968A33400C12012606FA04F416885A
:10372000344013B10CB1012000E0002070BD10B591
:103730000022002340F66A14A14200D100BF0A1201
:1037400001249440A3B2DC43048010BD012108078A
:10375000FEF78FFE1F48C06840F001001D49C86099
:1037600002F0F3FC28B11C4A0121022002F068FE9D
:1037700005E04FF4E0120221084602F061FE02F07B
:10378000ACFC1648FEF71EF800F0010028B101203D
:10379000FEF7AEFD0120FEF792FD00F0A8F810A2A2
:1037A00012A115A00CF02AFF1EA00CF027FF27A0E5
:1037B0000CF024FF0DE000F09AF800F096F902F00A
:1037C000C4FC10B100F0D2F901E000F015FA00F0ED
:1037D00081FCF0E700700040000004080008014090
:1037E00031363A30383A3132000000004D617920EC
:1037F000313820323032300048454C4C4F204E5A40
:10380000333630312046542F435020434F532056F7
:10381000312E303920282573202D202573290D0ABB
:1038200000000000504332203D20313A20494943F6
:1038300031285042362F504237292C2049494332F3
:10384000285047322F504733290D0A0028646566F7
:1038500061756C7429504332203D20303A2049492B
:103860004331285042362F504237292C20494943B2
:1038700032285041342F504135290D0A0D0A0D0AC6
:103880000000000070470BA00CF0B8FE00BFFEE780
:1038900000BFFEE700BFFEE700BFFEE770477047CE
:1038A000704710B50BF0D6FC10BD10B50AF0ABF8A0
:1038B00010BD00004F7070732C20486172746661F7
:1038C000756C740D0A00000008B54FF4A060FCF799
:1038D00097FD4B208DF8000001208DF801008DF838
:1038E00002008DF803006846FCF78FFD08BD00B5A7
:1038F00085B0012140F20110FEF7AEFD01218804E0
:10390000FEF7AAFD0120ADF8100018208DF8130075
:1039100003208DF8120004A95048FDF7B7FE0220DD
:10392000ADF8100004208DF8130004A94B48FDF7F2
:10393000ADFE4FF4E13000900020ADF80400ADF88A
:103940000600ADF80800ADF80C000C20ADF80A0038
:1039500069464348FFF72FFD01214148FFF7BDFDB0
:1039600001214048FDF765FF05B000BD70B5044674
:103970000D4629462046FFF71DFE00BF8021204648
:10398000FFF786FE0028F9D070BD2DE9F04107460B
:103990000D461646002405E0295D3846FFF7E6FF90
:1039A000601CC4B2B442F7DB00BF40213846FFF7C9
:1039B0006FFE0028F9D0BDE8F08170B506460C46D0
:1039C000002500BF615D3046FFF7D0FF6D1C605DD4
:1039D0000028F7D100BF40213046FFF759FE0028EC
:1039E000F9D070BD2DE9F04105460C46260AE7B234
:1039F00031462846FFF7DEFD00BF80212846FFF74D
:103A000047FE0028F9D039462846FFF7D3FD00BF0E
:103A100080212846FFF73CFE0028F9D0BDE8F08160
:103A200070B504460D46E1B20D48FFF7C3FD00BF77
:103A300080210B48FFF72CFE0028F9D0204670BDEE
:103A400010B5044600BF20210548FFF721FE0028DD
:103A5000F9D00348FFF7B2FD10BD0000002001407F
:103A600000540140000C3A4038B50446012C02D104
:103A70001F208DF80000022C02D121208DF80000BB
:103A8000032C02D146208DF80000042C02D14820DE
:103A90008DF8000004208DF8010001208DF802004F
:103AA0008DF803006846FCF7B0FC012C02D1202001
:103AB0008DF80000022C02D122208DF80000032C8A
:103AC00002D147208DF80000042C02D149208DF846
:103AD000000003208DF8010001208DF802008DF810
:103AE00003006846FCF791FC38BD00B585B00121A4
:103AF0004805FEF7BEFC01210820FEF7ADFCC02002
:103B0000ADF8000003208DF802001C208DF80300A2
:103B10006946FC48FDF7BAFDFB48FDF7D7FF0020DA
:103B2000ADF808004BF6FF70ADF80A00A020ADF824
:103B30000C004FF48060ADF80E000001ADF81000ED
:103B4000F248019001A9F048FDF7D9FF01224FF496
:103B5000E061ED48FEF7BCF80120FFF785FF012189
:103B6000E948FEF74AF8002005B000BD00B585B071
:103B7000012140F20110FEF76FFC0121E448FDF73E
:103B800058FE01218805FEF774FC0C20ADF80000FA
:103B900003208DF802001C208DF803006946DD48E3
:103BA000FDF774FDDC48FDF791FF0020ADF808003B
:103BB0004BF6FF70ADF80A00A020ADF80C004FF4F2
:103BC0008060ADF80E000001ADF81000CF48019004
:103BD00001A9D148FDF793FF01224FF4E061CE48DF
:103BE000FEF776F80220FFF73FFF0121CA48FEF7F3
:103BF00004F8002005B000BD00B585B00121052006
:103C0000FEF72AFC0121C2488030FDF712FE012197
:103C10008805FEF72EFC3020ADF8000003208DF85B
:103C200002001C208DF803006946BC48FDF72EFDFC
:103C3000B948FDF74BFF0020ADF808004BF6FF70C8
:103C4000ADF80A00A020ADF80C004FF48060ADF88C
:103C50000E000001ADF81000AC48019001A9AE487B
:103C6000FDF74DFF01224FF4E061AB48FEF730F85D
:103C70000220FFF7F9FE0121A748FDF7BEFF002053
:103C800005B000BD70B5002400259F48143004889D
:103C9000001D058800209C4914310880091D0880FA
:103CA00005F0010000283ED104F00200022804D1F2
:103CB00000209B4908709B49087004F08000802810
:103CC0000AD1974801780078401C954A10709648B0
:103CD000405C8D491031088004F0400040280BD131
:103CE000894810300088C1B28E4802780078401CA4
:103CF0008C4B18708C48815404F01000102809D1A6
:103D000001218148FDF779FF0020854908700120D5
:103D10008649087004F48040B0F5804F03D101213A
:103D20007948FDF76AFF70BD70B5002400257A4818
:103D300014300488001D058800207749143108805C
:103D4000091D088005F0010000283ED104F00200A2
:103D5000022804D10020724908707249087004F0EA
:103D6000800080280AD16E4801780078401C6C4A97
:103D700010706D48405C68491031088004F04000C4
:103D800040280BD1644810300088C1B265480278E1
:103D90000078401C634B18706348815404F0100095
:103DA000102809D101215C48FDF727FF00205C495C
:103DB000087001205D49087004F48040B0F5804F20
:103DC00003D101215448FDF718FF70BD10B55849C3
:103DD0004D48FEF739F8012806D155494A48FEF703
:103DE00050F854A00CF00AFC4FF010214648FEF7A2
:103DF0002BF8012807D14FF010214348FEF741F876
:103E000055A00CF0FBFB5A493F48FEF71DF801286E
:103E100006D157493C48FEF734F856A00CF0EEFBAB
:103E200057493948FEF710F8012806D15449364859
:103E3000FEF727F853A00CF0E1FB58493248FEF793
:103E400003F8012806D155492F48FEF71AF854A067
:103E50000CF0D4FB57492C48FDF7F6FF012806D19A
:103E600054492948FEF70DF853A00CF0C7FB002079
:103E7000254914310880091D08803CA00CF0BEFBC8
:103E800010BD10B52A492448FDF7DEFF012806D1F0
:103E900027492148FDF7F5FF26A00CF0AFFB4FF0B6
:103EA00010211D48FDF7D0FF012807D14FF0102148
:103EB0001948FDF7E6FF28A00CF0A0FB2C49164896
:103EC000FDF7C2FF012806D129491348FDF7D9FFA4
:103ED00028A00CF093FB37490F48FDF7B5FF0128E8
:103EE00006D134490C48FDF7CCFF33A00CF086FB1B
:103EF0000020094914310880091D08801BA00CF01E
:103F00007DFB10BD000C01400054004000350C004A
:103F100040001640002001400058004000080140C9
:103F20005D0000205C00002094030020540000206D
:103F300000040010536C617665207472616E736DBD
:103F4000697373696F6E207465726D696E617465F3
:103F500064210D0A00000000526563657074696F8A
:103F60006E20504543206572726F72210D0A000069
:103F7000000800104F76657272756E210D0A000000
:103F8000008000104932435F464C41475F534D4229
:103F9000414C455254210D0A000000000040001021
:103FA0004932435F464C41475F54494D454F555454
:103FB000210D0A000002001041524C4F2065727220
:103FC0006F72210D0A0000002DE9F04105460E46F2
:103FD0002C46002732483349086000BF3249334835
:103FE000FDF710FF0028F9D019E014F8011B2F4845
:103FF000FDF777FE2E482B49086008E0294908683C
:10400000411E284A116010B90720BDE8F0812649F9
:10401000891C2648FDF7F6FE0028EFD07F1C701E95
:10402000B842E2D821782148FDF75BFE00BF4FF48B
:1040300080611E48FDF7E6FE0028F8D01D491B48A8
:10404000FDF71FFF0020E0E72DE9F04104460D4693
:104050002746002612481349086000BF4FF002119E
:104060001248FDF7CFFE0028F8D00CE000BF12493F
:104070000E48FDF7C7FE0028F9D00C48FDF733FEC7
:104080002070761C641CAE42F0D300BF102107489C
:10409000FDF7B8FE0028F9D00020BDE8F08100004F
:1040A0000000194058000020820006000054004023
:1040B00000400010000400104000020010B503464C
:1040C0000C46002102E0585C6054491C9142FAD32E
:1040D000002010BD2DE9F0438BB04FF00008F2A096
:1040E0000CF08CFA02F0D2F900BFF74800780128F2
:1040F000FBD10020F4490870F4A00CF07FFA0024F2
:1041000005E0F648015DF6A00CF078FA641CF3486F
:104110000078A042F5D2F4A00CF070FAEF48407895
:10412000192875D010DC81F02482DFE800F0FE4110
:10413000484E545A607294A8CADCFDFCFBFAF9F8A8
:10414000F7F6F5F4F3F2F1002B2873D010DCA0F1B0
:1041500020000B28E7D2DFE810F00D0415041E0440
:104160004D045B046B04790487049504A304B10433
:10417000312801F035800ADCA0F12C000528D2D2CC
:10418000DFE810F0BB04CD04F4066607CA07582820
:1041900001F0BF8107DC562801F02A80572841F042
:1041A000E88101F074B8F82845D0F928F7D179E012
:1041B000CEA00CF023FA01F0FDF901F0DAB9D4A099
:1041C0000CF01CFA01F033FAF7E7D9A00CF016FA5C
:1041D00001F06AFAF1E7DFA00CF010FA01F0A1FAA1
:1041E000EBE7E5A00CF00AFA01F066FBE5E7EBA0CF
:1041F0000CF004FA4FF48070F04908604000091D8B
:10420000086001F035FF01210020FDF787FED4E7AB
:104210008FE3EBA00CF0F2F94FF48070E7490860EF
:104220004000091D086001F023FF01210846FDF749
:1042300092FEC2E7EDE3EAA00CF0E0F94FF48070E3
:10424000DE4908604000091D086001F011FF0120EF
:10425000FDF79EFEB1E7EAA00CF0D0F94FF48070B4
:10426000D64908604000091D086008F0B3F901F064
:10427000FFFE0120FDF78CFE01F0E7FB9DE7ECA0BF
:104280000CF0BCF94FF48070CC4908604000091D67
:10429000086008F09FF901F0EBFEFDF79BFE01F0CE
:1042A000D4FB8AE7EEA00CF0A9F94FF48070C34963
:1042B00008604000091D086001F0DAFEFDF78AFE83
:1042C0007BE7F0A00CF09AF94FF48070BB490860CE
:1042D0004000091D0860814AD178907801F04AFEBB
:1042E00001F0B3FB69E7EFA00CF088F94FF48070A0
:1042F000B24908604000091D08607848807818B10C
:1043000076498878FDF726FF01F09DFE05200DE037
:1043100001E3F2E2E3E2D4E2C5E2ACE281E2C1E031
:104320008EE075E04AE022E005E0E5E3FEF7F3F811
:1043300001F08BFB41E7E4A00CF060F94FF48070D2
:104340009E4908604000091D08604FF4E0120221F8
:10435000084602F075F801F076FE4FF02040FEF7B7
:10436000D1F80720FEF7D7F801F06FFB25E7E0A0B2
:104370000CF044F9E74800680490E648001D006826
:104380000590E448083000680690E2480C30006868
:1043900007901022514904A8FFF790FE4FF4807057
:1043A0008649091D08604000091F086007980090B1
:1043B000D9A004A90EC90CF021F9FEE6DEA00CF08C
:1043C0001DF94FF480707D4908604000091D0860A8
:1043D00002F09DF8814602F09AF849EA0009B9F125
:1043E000000F09D0DAA00CF009F94FF4807073497E
:1043F0000860400008600AE0DCA00CF0FFF84FF411
:1044000080706E49091D08604000091F0860D4E6ED
:10441000DDA00CF0F3F84FF48070684908604000AC
:10442000091D08602D48C0782C49897840EA012789
:104430002A480179384602F057F901F006FBBCE63C
:10444000D9A00CF0DBF84FF480705C4908604000A4
:10445000091D086021488078ADF804001F48C07825
:10446000ADF806001D480079ADF808001B488079BA
:104470001A49497940EA0120ADF80A001748C07985
:10448000ADF80C00BDF80C000090BDF80A30BDF886
:104490000820BDF80610BDF8040006F00BF901F085
:1044A00032FE8AE692E100002D2D2D2D2D476F2042
:1044B000746F2049324320437020467454657374EE
:1044C0002D2D2D2D2D0D0A005400002072656365E1
:1044D00069766520646174613A20000094030020CD
:1044E00020253032782000000D0A00000D0A2D2D05
:1044F0002D2D2D4C65616B616765205465737420AB
:1045000053746172742D2D2D2D2D0D0A00000000A5
:104510000D0A2D2D2D2D2D50756C6C757020546548
:1045200073742053746172742D2D2D2D2D0D0A007E
:104530000D0A2D2D2D2D2D50756C6C646F776E200E
:10454000546573742053746172742D2D2D2D2D0DAF
:104550000A0000000D0A2D2D2D2D2D494F20466CEF
:1045600069703120546573742053746172742D2DF9
:104570002D2D2D0D0A0000000D0A2D2D2D2D2D495C
:104580004F20466C697032205465737420537461F7
:1045900072742D2D2D2D2D0D0A0000000D0A2D2DCC
:1045A0002D2D2D536C6565702054657374205374E4
:1045B0006172742D2D2D2D2D0D0A00001008014063
:1045C0000D0A2D2D2D2D2D53746F703020546573D1
:1045D000742053746172742D2D2D2D2D0D0A000041
:1045E0000D0A2D2D2D2D2D53746F703220546573AF
:1045F000742053746172742D2D2D2D2D0D0A000021
:104600000D0A2D2D2D2D2D73746F70322053726174
:104610006D20526574202B205254432054657374CE
:104620002053746172742D2D2D2D2D0D0A00000064
:104630000D0A2D2D2D2D2D5374616E64627920533A
:1046400072616D20526574202B20525443205465B2
:1046500073742053746172742D2D2D2D2D0D0A004D
:104660000D0A2D2D2D2D2D5374616E646279205409
:104670006573742053746172742D2D2D2D2D0D0AC8
:10468000000000000D0A2D2D2D2D2D4F50412054DE
:104690006573742053746172742D2D2D2D2D0D0AA8
:1046A000000000000D0A2D2D2D2D2D485349204FBF
:1046B000555420546573742053746172742D2D2DDC
:1046C0002D2D0D0A000000000D0A2D2D2D2D2D5031
:1046D0004C4C204F555420313020444956205465CD
:1046E00073742053746172742D2D2D2D2D0D0A00BD
:1046F0000D0A2D2D2D2D2D5265616420534E205411
:104700006573742053746172742D2D2D2D2D0D0A37
:1047100000000000F0F7FF1F534E203D20307825A9
:1047200030387820253038782025303878202530EA
:1047300038780D0A000000002D2D2D2D2D524E47EA
:1047400020544553542D2D2D2D2D0D0A0000000011
:104750002D2D2D2D2D524E4720546573742046412A
:10476000494C2D2D2D2D2D0D0A0000002D2D2D2D08
:104770002D524E47205465737420504153532D2DB4
:104780002D2D2D0D0A0000000D0A2D2D2D2D2D444F
:10479000414320546573742053746172742D2D2D20
:1047A0002D2D0D0A000000000D0A2D2D2D2D2D415F
:1047B00044432053696E676C6520546573742053BD
:1047C000746172742D2D2D2D2D0D0A00DFA00BF0BC
:1047D00015FF4FF48070E74908604000091D08602C
:1047E000E5488078ADF80400E348C078ADF80600ED
:1047F000E1484079E049097940EA0120ADF8080034
:10480000DD488079ADF80A00BDF80A30BDF808200F
:10481000BDF80610BDF8040005F073FF01F073FC4D
:10482000CBE4D6A00BF0EAFE01F00FF94FF4807054
:10483000D04908604000091D0860D84A0221084696
:1048400001F0FEFD0AF0D4FC09F0CDFD09F0E3FD16
:1048500008F036FFD2480068D2490860D2480068A4
:10486000D249086000BFD24800680528FBD101E0AA
:104870000BF023FCFCE7CFA00BF0C0FE4FF48070E0
:10488000BC4908604000091D08604FF4E012022195
:10489000012001F0D5FD01F0D6FB0620FDF73BFE1F
:1048A00001F0D3F889E4CCA00BF0A8FE4FF480709F
:1048B000B04908604000091D086006F045F800BFD7
:1048C000FEE7CDA00BF09AFE4FF48070A949086076
:1048D0004000091D086006F071F800BFFEE7CEA099
:1048E0000BF08CFE4FF48070A24908604000091D57
:1048F000086006F098F800BFFEE7CFA00BF07EFE40
:104900004FF480709B4908604000091D086006F064
:10491000BFF800BFFEE7D0A00BF070FE4FF4807030
:10492000944908604000091D086006F0D4F800BFF3
:10493000FEE7D1A00BF062FE4FF480708D49086055
:104940004000091D08608C48C07800068A49097932
:1049500040EA01408849497940EA0120864989793D
:1049600008430A90844988780A9901F022FB01F0F3
:104970006CF822E4C8A00BF041FE7F49887801F072
:1049800083F81AE4CCA00BF039FE7B4AD1789078FA
:1049900001F0F7F811E4D0A00BF030FE4FF4807076
:1049A000744908604000091D0860FCF735FBD149D7
:1049B000D148D24A904788B9D149CF48001DCF4A43
:1049C000904758B94FF480706A49091D086040004B
:1049D000091F0860CBA00BF011FE08E04FF48070B7
:1049E0006449086040000860CBA00BF007FEFCF7AC
:1049F00019FB0CE4CDA00BF001FE4FF480705D4973
:104A000008604000091D086006F06AF900BFFEE773
:104A100000E061E0D3A00BF0F1FD4FF48070554948
:104A200008604000091D086006F0D1FA00BFFEE7EB
:104A3000D9A00BF0E3FD4FF480704E4908604000B0
:104A4000091D086006F00DFB00BFFEE7DFA00BF0BC
:104A5000D5FD4FF48070474908604000091D08608B
:104A600006F0EFF900BFFEE7E6A00BF0C7FD4FF43C
:104A70008070404908604000091D086006F0CCFACB
:104A800000BFFEE7ECA00BF0B9FD4FF48070394990
:104A900008604000091D086006F0ACFB00BFFEE79F
:104AA000F1A00BF0ABFD4FF480703249086040007C
:104AB000091D086006F067FC00BFFEE7F6A00BF0DA
:104AC0009DFD4FF480702B4908604000091D08606F
:104AD00006F034FD00BFFEE7FEA00BF08FFD4FF4A3
:104AE0008070244908604000091D086022498878C8
:104AF00001F06BFA00F0A9FF37E2FDA00BF07EFD9C
:104B0000DFF874C09CF805309CF804209CF8031072
:104B10009CF8020007F08EF900F097FF25E2FCA058
:104B20000BF06CFD4FF48070124908604000091DC5
:104B30000860FCF771FA6F49C9436F486F4A9047A4
:104B400010B9FA496C48F3E102E200000D0A2D2D7C
:104B50002D2D2D41444320446966666572656E6360
:104B60006520546573742053746172742D2D2D2D3E
:104B70002D0D0A0010080140940300200D0A2D2D70
:104B80002D2D2D555342205465737420537461723A
:104B9000742D2D2D2D2D0D0A00000000000004089D
:104BA000EC02002004010020F0020020000100209F
:104BB000DC0200200D0A2D2D2D2D2D4F53432048B2
:104BC000534520546573742053746172742D2D2DD8
:104BD0002D2D0D0A000000000D0A2D2D2D2D2D4329
:104BE0004F4D503120546573742053746172742D8D
:104BF0002D2D2D2D0D0A00000D0A2D2D2D2D2D43AF
:104C00004F4D503220546573742053746172742D6B
:104C10002D2D2D2D0D0A00000D0A2D2D2D2D2D438E
:104C20004F4D503320546573742053746172742D4A
:104C30002D2D2D2D0D0A00000D0A2D2D2D2D2D436E
:104C40004F4D503420546573742053746172742D29
:104C50002D2D2D2D0D0A00000D0A2D2D2D2D2D434E
:104C60004F4D503520546573742053746172742D08
:104C70002D2D2D2D0D0A00000D0A2D2D2D2D2D4F22
:104C800050413120546573742053746172742D2D1A
:104C90002D2D2D0D0A0000000D0A2D2D2D2D2D4935
:104CA0004F206F757420546573742053746172744F
:104CB0002D2D2D2D2D0D0A000D0A2D2D2D2D2D49BB
:104CC0004F20696E7420546573742053746172743C
:104CD0002D2D2D2D2D0D0A002D2D2D2D2D544F2038
:104CE00055534552205041545445524E2D2D2D2D93
:104CF0002D0D0A0089BCC25E10F1FF1FD101FF1FFC
:104D0000F89ED8412D2D2D2D2D504153532D2D2D55
:104D10002D2D0D0A000000002D2D2D2D2D45727218
:104D20006F722D2D2D2D2D0D0A0000002D2D2D2DF6
:104D30002D434F4D505F434F4D4D454E5F504143C6
:104D40004B4147455F46756E5F57696E646F7720CC
:104D5000546573742053746172742D2D2D2D2D0D97
:104D60000A0000002D2D2D2D2D434F4D505F434F38
:104D70004D4D454E5F5041434B4147455F766F6611
:104D80006673657420546573742053746172742D56
:104D90002D2D2D2D0D0A00002D2D2D2D2D434F4D88
:104DA000505F434F4D4D454E5F5041434B4147454A
:104DB0005F766879737420546573742053746172DC
:104DC000742D2D2D2D2D0D0A000000002D2D2D2DC3
:104DD0002D434F4D505F51464E34305F5041434B51
:104DE0004147455F46756E5F57696E646F77205423
:104DF0006573742053746172742D2D2D2D2D0D0A41
:104E0000000000002D2D2D2D2D434F4D505F51469C
:104E10004E33325F5041434B4147455F766F666684
:104E200073657420546573742053746172742D2DEE
:104E30002D2D2D0D0A0000002D2D2D2D2D434F4D14
:104E4000505F51464E33325F5041434B4147455FBF
:104E50007668797374205465737420537461727426
:104E60002D2D2D2D2D0D0A002D2D2D2D2D434F4D8A
:104E7000505F51464E34305F5041434B4147455F90
:104E800076687973742054657374205374617274F6
:104E90002D2D2D2D2D0D0A002D2D2D2D2D434F4D5A
:104EA000505F5146504E34385F574C43535034395D
:104EB0005F5041434B4147455F7668797374205496
:104EC0006573742053746172742D2D2D2D2D0D0A70
:104ED000000000002D2D2D2D2D54534320546573BB
:104EE000742053746172742D2D2D2D2D0D0A000028
:104EF0002D2D2D2D2D4C53452F4C5349205465738A
:104F0000742053746172742D2D2D2D2D0D0A000007
:104F10002D2D2D2D2D544F204546542050415454B5
:104F200045524E2D2D2D2D2D0D0A00000701F6485E
:104F3000001DFE4A904758B94FF48070FC49086044
:104F40004000091F0860AFF244200BF057FB0AE055
:104F50004FF48070F649091F086040000860AFF206
:104F600048200BF04BFBFCF75DF802E3F1A00BF0DF
:104F700045FB4FF48070EE49091F08604000091D91
:104F800008600AA9F448E94AC032904709A9F248E2
:104F9000001DE64AC03290470A98C04309998842EA
:104FA0000AD04FF48070E249091F08604000086091
:104FB000EAA00BF023FB4AE00A9820F07F400A9019
:104FC000E84880780A9941EA00600A90FCF724F8E2
:104FD000E5A00A990BF012FBE948D44A0A999047D8
:104FE0000A98C0430A90E7A00A990BF007FBE4482F
:104FF000001DCE4A0A999047FCF714F809A9E04829
:10500000CA4AC032904708A9DD48001DC74AC032CD
:105010009047DDE90901C94388420ED10A990898F1
:1050200088420AD14FF48070C14908604000091FCE
:105030000860DAA00BF0E2FA09E04FF48070BC4996
:10504000091F086040000860C4A00BF0D7FA90E286
:10505000D4A00BF0D3FA4FF48070B549091F086053
:105060004000091D0860FBF7D7FFBE4880780006A6
:10507000BC49C97840EA0140BA49097940EA0120AF
:10508000B849497908430A90D0A00A990BF0B6FABA
:10509000FBF7C2FFD1A00A990BF0B0FAAE48203856
:1050A000A24A0A9990470A98C0430A90D1A00A9947
:1050B0000BF0A4FAA8481C389C4A0A999047FBF7C1
:1050C000B1FF09A9A4482038984AC032904708A9DE
:1050D000A1481C38954AC0329047DDE90901C9430F
:1050E00088420ED10A99089888420AD14FF48070FC
:1050F0008F4908604000091F0860A8A00BF07EFAE5
:1051000009E04FF480708A49091F08604000086078
:1051100092A00BF073FA2CE2BCA00BF06FFA4FF4E4
:1051200080708349091F08604000091D0860FBF773
:1051300073FF8C48807800068A49C97840EA0140AC
:105140008849097940EA01208649497908430A904B
:105150009EA00A990BF052FAFBF75EFFB4A00A99E1
:105160000BF04CFA7C481838704A0A9990470A9814
:10517000C0430A90B4A00A990BF040FA764814385C
:105180006A4A0A999047FBF74DFF09A972481838F7
:10519000664AC032904708A96F481438634AC03243
:1051A0009047DDE90901C94388420ED10A99089860
:1051B00088420AD14FF480705D4908604000091FA1
:1051C000086076A00BF01AFA09E04FF48070584995
:1051D000091F08604000086060A00BF00FFAC8E1EA
:1051E0009FA00BF00BFA00F0CDFF00F02EFCC0E109
:1051F000A4A00BF003FA4FF480704D49091F08601A
:105200004000091D0860FBF707FF5648807800063C
:105210005449C97840EA01405249097940EA0120DD
:105220005049497940EA01054E48807900064D49C8
:10523000C97940EA01404B49097A40EA01204949CD
:10524000497A08430A90294697A00A9A0BF0D6F9A2
:105250002846364A0A99904760B94FF4807034491D
:1052600008604000091F0860294694A00A9A0BF0C4
:10527000C5F909E04FF480702D49091F086040000E
:10528000086036A00BF0BAF9FBF7CCFE71E191A0F3
:105290000BF0B4F94FF480702549091F08604000F5
:1052A000091D08602F48807800062E49C97840EA19
:1052B00001402C49097940EA01202A49497940EA0C
:1052C000010528488679B61001468879C11700EB98
:1052D00091718910A0EB810109B1701CC6B206B9A9
:1052E0000126002411E128680A90294682A00A9A22
:1052F0000BF084F9002101EB84011A4A0A985054FA
:105300000A98C0F30720012101EB840150540A9848
:10531000C0F30740022101EB840150540A98000EAB
:10532000032101EB840150542D1DEDE0D101FF1F3D
:10533000140801402D2D2D2D2D575249544520483C
:105340005349205452494D20544F204E56522D2D32
:105350002D2D2D0D0A00000030F2FF1F4572726FD7
:10536000720D0A00940300203078314646464630DC
:105370003038203D203078253038780D0A00000084
:1053800008F0FF1F30783146464646303043203D16
:10539000203078253038780D0A0000005061737392
:1053A000200D0A000D0A2D2D2D2D2D5772697465C3
:1053B0002048534933332054657374205374617209
:1053C000742D2D2D2D2D0D0A0000000076616C200E
:1053D0003D203078253038780D0A0000307831468D
:1053E000464646323130203D203078253038780D21
:1053F0000A00000030783146464646323134203DBE
:10540000203078253038780D0A0000000D0A2D2D47
:105410002D2D2D5772697465204C534920546573A6
:10542000742053746172742D2D2D2D2D0D0A0000E2
:1054300030783146464646323138203D2030782596
:105440003038780D0A000000307831464646463242
:105450003143203D203078253038780D0A00000097
:105460000D0A2D2D2D2D2D504331342C5043313527
:1054700020546573742053746172742D2D2D2D2D5D
:105480000D0A00000D0A2D2D2D2D2D577269746502
:10549000204E565220546573742053746172742DDB
:1054A0002D2D2D2D0D0A0000307825303878203D27
:1054B000203078253038780D0A0000005061737371
:1054C0002020307825303878203D2030782530383D
:1054D000780D0A000D0A2D2D2D2D2D5265616420A9
:1054E0004E565220546573742053746172742D2D7E
:1054F0002D2D2D0D0A000000307825303878203D04
:105500002030782530387800641CB442FFF4EBAECC
:105510002FE01AA00BF072F84FF480701D4908605C
:105520004000091D08601C48807800061A49C978A7
:1055300040EA01401849097940EA012016494979B1
:1055400040EA01050AA92846144A90472946AFF2C5
:1055500058000A9A0BF052F80F490A9808700A98F6
:10556000000A48700A98000C88700A98000EC870EB
:1055700000BF00BF0BB0BDE8F08300002D2D2D2D26
:105580002D476574204E56522056616C2D2D2D2DC1
:105590002D0D0A0010080140940300209102FF1F06
:1055A0004FF47A725043002101E000BF491C814250
:1055B000FBD3704708B500200090012140F2FD1098
:1055C000FCF74AFFFE48406840F08060FC494860B4
:1055D000002428E025460120A84080B2ADF8000054
:1055E00004208DF8030000208DF802006946F5487C
:1055F000FCF74CF86946F448FCF748F86946F3486C
:10560000FCF744F86946F248FCF740F86946F1486F
:10561000FCF73CF86946F048FCF738F86946EF4873
:10562000FCF734F8641C102CD4D300BFFEE708B597
:1056300000200090012140F2FD10FCF70DFFE04832
:10564000406840F08060DE494860002428E025463C
:105650000120A84080B2ADF8000048208DF803007A
:1056600000208DF802006946D648FCF70FF869461D
:10567000D548FCF70BF86946D448FCF707F86946AB
:10568000D348FCF703F86946D248FBF7FFFF6946A9
:10569000D148FBF7FBFF6946D048FBF7F7FF641CD6
:1056A000102CD4D300BFFEE708B5002000900121E4
:1056B00040F2FD10FCF7D0FEC148406840F0806029
:1056C000BF494860002428E025460120A84080B258
:1056D000ADF8000028208DF8030000208DF80200AE
:1056E0006946B848FBF7D2FF6946B748FBF7CEFFDB
:1056F0006946B648FBF7CAFF6946B548FBF7C6FFDF
:105700006946B448FBF7C2FF6946B348FBF7BEFFE2
:105710006946B248FBF7BAFF641C102CD4D300BF13
:10572000FEE708B5002500200090012140F2FD10A1
:10573000FCF792FEA248406840F08060A0494860B3
:10574000002429E0264634460120A04080B2ADF86E
:10575000000004208DF8030000208DF80200694647
:105760009848FBF793FF69469748FBF78FFF694618
:105770009648FBF78BFF69469548FBF787FF69461C
:105780009448FBF783FF69469348FBF77FFF694620
:105790009248FBF77BFFA41C102CD3D3012428E0F4
:1057A00026460120B04080B2ADF8000010208DF8F0
:1057B000030003208DF8020069468248FBF766FF6C
:1057C00069468148FBF762FF69468048FBF75EFF48
:1057D00069467F48FBF75AFF69467E48FBF756FF4C
:1057E00069467D48FBF752FF69467C48FBF74EFF50
:1057F000A41C102CD4D35EE07248FBF7E3FF45F203
:10580000555100EA01054FF6FF7000EA45016D4869
:10581000FBF7F4FF6C48FBF7D5FF45F2555100EA62
:1058200001054FF6FF7000EA45016748FBF7E6FF08
:105830006648FBF7C7FF45F2555100EA01054FF6F0
:10584000FF7000EA45016148FBF7D8FF6048FBF7AD
:10585000B9FF45F2555100EA01054FF6FF7000EA25
:1058600045015B48FBF7CAFF5A48FBF7ABFF45F21F
:10587000555100EA01054FF6FF7000EA4501554811
:10588000FBF7BCFF5448FBF79DFF05464FF6FF7042
:1058900000EA45015048FBF7B1FF5048FBF792FF83
:1058A00045F2555100EA01054FF6FF7000EA450147
:1058B0004A48FBF7A3FF9FE708B5002500200090AA
:1058C000012140F2FD10FCF7C7FD3D48406840F063
:1058D00080603B494860012428E026460120B04012
:1058E00080B2ADF8000004208DF8030000208DF890
:1058F000020069463348FBF7C9FE69463248FBF7A8
:10590000C5FE69463148FBF7C1FE69463048FBF7E2
:10591000BDFE69462F48FBF7B9FE69462E48FBF7E6
:10592000B5FE69462D48FBF7B1FEA41C102CD4D35C
:10593000002428E026460120B04080B2ADF80000E7
:1059400010208DF8030003208DF8020069461D48E1
:10595000FBF79CFE69461C48FBF798FE69461B480E
:10596000FBF794FE69461A48FBF790FE6946194812
:10597000FBF78CFE69461848FBF788FE6946174816
:10598000FBF784FEA41C102CD4D35DE00D48FBF77C
:1059900019FF4AF6AA2100EA010569080948FBF740
:1059A0002DFF0948FBF70EFF4AF6AA2100EA010580
:1059B00069080548FBF722FF0448FBF703FF0FE0E7
:1059C0000000014000080140000C014000100140AF
:1059D0000014014000180140001C0140002001405B
:1059E0004AF6AA2100EA01056908FE48FBF706FF0E
:1059F000FD48FBF7E7FE4AF6AA2100EA010569081F
:105A0000F948FBF7FBFEF948FBF7DCFE4AF6AA2152
:105A100000EA01056908F548FBF7F0FEF448FBF7DA
:105A2000D1FE4AF6AA2100EA01056908F048FBF711
:105A3000E5FEF048FBF7C6FE4AF6AA2100EA01059A
:105A40006908EC48FBF7DAFEA0E708B500200090F3
:105A500001210420FCF700FD0120ADF80000042026
:105A60008DF8030000208DF802006946E248FBF73C
:105A70000DFE06E0E048FBF7A5FE00F0010000B1D6
:105A800000E0F7E700BF08BD08B50546002000901C
:105A9000012140F2FD10FCF7DFFCD848406840F0DF
:105AA0008060D649486015B945F2555401E04AF680
:105AB000AA244FF6FF70ADF8000010208DF8030007
:105AC00003208DF802006946CB48FBF7DFFD6946ED
:105AD000CB48FBF7DBFD6946C248FBF7D7FD6946BB
