:020000041FFFDC
:10F0000008040020C9F0FF1FCDF0FF1FCFF0FF1F45
:10F0100000000000000000000000000000000000F0
:10F02000000000000000000000000000D1F0FF1F01
:10F030000000000000000000D3F0FF1FD5F0FF1F0C
:10F04000D7F0FF1F00000000D7F0FF1FD7F0FF1F11
:10F05000D7F0FF1FD7F0FF1FD7F0FF1FD7F0FF1F1C
:10F0600000000000D7F0FF1FD7F0FF1FD7F0FF1FF1
:10F07000D7F0FF1FD7F0FF1FD7F0FF1F00000000E1
:10F08000D7F0FF1FD7F0FF1F00000000D7F0FF1FD1
:10F09000D7F0FF1FD7F0FF1FD7F0FF1FD7F0FF1FDC
:10F0A000D7F0FF1FD7F0FF1FD7F0FF1FD7F0FF1FCC
:10F0B000D7F0FF1F0348854600F026F800480047B8
:10F0C000FDF1FF1F0804002003480047FEE7FEE7AC
:10F0D000FEE7FEE7FEE7FEE7B5F0FF1F30B50B46A3
:10F0E000014600202022012409E00D46D5409D4222
:10F0F00005D31D469540491B2546954040191546A8
:10F10000521E002DF1DC30BD064C0125064E05E0F7
:10F11000E36807CC2B430C3C98471034B442F7D338
:10F12000FFF7CCFF60F7FF1F80F7FF1F10B50E4BF6
:10F130000C4C5C600D4C5C60002809D002280CD09F
:10F14000012018610A60D868C007FCD1186110BDA1
:10F15000022018615961422002E004201861442015
:10F160001861F0E72301674500200240AB89EFCD2D
:10F1700030B5164B144C5C60154D5D609C609D6015
:10F18000DD681424254202D0DD682543DD600028B7
:10F1900008D02120000118610A60D868C007FCD19E
:10F1A000186130BD11204001186113204001186121
:10F1B0000849094803E0DA69D20500D40160DA6839
:10F1C000D207F8D1E9E7000023016745002002409B
:10F1D000AB89EFCDAAAA00000030004002E008C8C9
:10F1E000121F08C1002AFAD170477047002001E0C1
:10F1F00001C1121F002AFBD170470000FDA10FC9F9
:10F200008CB0099306AB07C3FF48FE490024416157
:10F210000925ED0629680F229204914329600521F2
:10F220008904E960FA4BF949196007215960F949E5
:10F2300019601A148261F84E0427F848376170612A
:10F2400000E019602A695205FBD429694905FCD5FB
:10F250000521316129694905FCD4B169401A0721AA
:10F26000FFF73CFF0521C90437612960FF211131F7
:10F270006962EB49C860EB480860792000F05EFAEB
:10F28000E948C0698007C017401C0A90E74D002775
:10F290006F7000F039FA00F037FA6878FF2801D073
:10F2A0001F2079E02878DE2872D032DC9C2870D0CC
:10F2B00006DC6D286ED07D2801D08C28F0D18BE142
:10F2C000BB2868D0CE28EBD10A9800287ED07920C0
:10F2D00000F034FA6F70002600F016FA2878240245
:10F2E000761C0443B6B2042EF6D300F00DFA68780B
:10F2F0000028D5D1792000F021FA00F005FA2F7806
:10F30000CB494B22611812020091914270D22646DD
:10F3100096E0FD282ED014DCEE2840D0FC28BFD18A
:10F32000792000F00BFA012000F008FAC14D286B9B
:10F33000000E00F003FA286B000CC0B200F0FEF9DA
:10F34000EDE0FE280BD0FF28AAD1002506AE705DA7
:10F3500000F0F4F96D1CADB2102DF8D396E77920CA
:10F3600000F0ECF9102000F0E9F9002000F0E6F9D7
:10F370000020E3E7792000F0E1F9012000F0DEF958
:10F38000AC4DA88D0004000E00F0D8F9A88DD4E78C
:10F3900038E004E123E1A2E000F0D0F976E70A9832
:10F3A000002893D0792000F0C9F900266F70374605
:10F3B00000F0AAF9287836027F1C0643BFB2042F5A
:10F3C000F6D300F0A1F96878002800E09BE090D126
:10F3D000792000F0B3F900F097F92F7800F094F954
:10F3E0006878FF2885D1792000F0A8F9002506E08B
:10F3F00024E03078761C00F0A1F96D1CADB2BD425E
:10F40000ACD8F6E70A9800287DD0792000F096F96C
:10F410006F70002600F078F928782402761C0443E7
:10F42000B6B2042EF6D300F06FF9687800286AD1DE
:10F43000792000F083F96068804727E77C4E7642A8
:10F44000002507E000F060F97848007830706D1C06
:10F45000ADB2761CBD42F5D900F056F9734840783C
:10F460000028B4D11F20C006012120184904884279
:10F47000714802D3844202D02BE0844204D100229E
:10F4800011461046FFF774FE00256B4E13E06848E6
:10F490006119404228180268B44207D166484030DA
:10F4A000814206D00120FFF763FE02E00120FFF752
:10F4B0003DFE2D1DADB2BD42E9D9792000F03EF9E7
:10F4C000B442BAD158480169012252031143016183
:10F4D000DCE64B21009809028842AED21FE00A9870
:10F4E000002858D0792000F029F9504D6F7000F0B5
:10F4F0000BF92E7800F008F92878360206434F48B9
:10F5000086420ED100E046E000F0FEF82846007882
:10F51000002804D1002211460220FFF707FE7920BF
:10F520003AE74648801E864202D0401C864202D1FD
:10F5300000F0EAF8B4E63E4D6D4200270CE000F022
:10F54000E3F83A480078287000F0DEF83748007891
:10F5500068707F1CBFB2AD1CB742F0D900F0D4F880
:10F56000324840780028E5D100250127FF060FE04A
:10F570002F48690040420818017840780902014389
:10F580004802C11900221046FFF7D0FD6D1CADB234
:10F59000B542EDD9C3E71F2000F0D0F880E60A9805
:10F5A0000028C7D0792000F0C9F86F7000F0ACF8DF
:10F5B0002F780024264607E000F0A6F829780120DD
:10F5C00088400443761CB6B2BE42F5D9E44300F04D
:10F5D0009BF868780028ADD10A980028AAD028782E
:10F5E0002F46792802D0792000F0A8F8104A124E50
:10F5F000524225E0790B10000102031121314463CE
:10F6000073829279140002000010024055550000E8
:10F6100000300040AAAA000000E000E0FFFFFF0069
:10F62000003801400D1400000020024000000020BE
:10F6300000FBFFDFC0F7FF1F00F8FF1FFFFF000008
:10F640003146002008C908C2401C80B21128F9D9EF
:10F65000002211461046FFF78BFD254800683978D7
:10F660007D290BD0000C23490004421831460120AB
:10F67000FFF77EFD38789C2804D018E0000C0004C9
:10F680001D49F2E7FF20000220400202E0B20243DF
:10F690001A490120FFF76CFD200A020C2002120417
:10F6A000000E16490243091D0120FFF761FD0125E7
:10F6B00038788C2802D038789C2803D1022D09D0C4
:10F6C000032D07D00A49A80041180A6881190120B2
:10F6D000FFF74EFD6D1CADB2112DE9D3792000F07E
:10F6E0002DF8BFF34F8F07490548C860CEE50000ED
:10F6F00000050020AA55000034CB000008F8FF1FC9
:10F700000400FA0500ED00E0084A0949094800E054
:10F710000A60C3699B06FBD50648203081880648ED
:10F72000017041780278514041707047AAAA0000E8
:10F7300000300040003801400000002005490881E9
:10F7400004480549054A203800E01160C3695B069A
:10F75000FBD5704720380140AAAA000000300040C5
:10F7600080F7FF1F0000002004000000DCF1FF1FF5
:10F7700084F7FF1F0400002004040000ECF1FF1FC9
:10F7800000000000FFFFFFFFFFFFFFFFFFFFFFFF85
:10F79000FFFFFFFFFFFFFFFFFFFFFFFFFFFFFFFF79
:10F7A000FFFFFFFFFFFFFFFFFFFFFFFFE641160325
:10F7B0001CD00508E70701081A0544051705510183
:10F7C0003805EE05FFFFFFFFFFFFFFFF8000FFFF93
:10F7D000FFFFFFFFFFFFFFFF1A05000044050000C9
:10F7E000FFFFFFFFEE05000037010000FF0F0010D4
:10F7F0000002390000009A658B748109050500003C
:10F80000AA55FF00FFFFFFFFFFFFFFFFFFFFFFFF06
:10F81000FFFFFFFFFFFFFFFFFFFFFFFFFFFFFFFFF8
:10F82000FFFFFFFFFFFFFFFFFFFFFFFFFFFFFFFFE8
:10F83000FFFFFFFFFFFFFFFFFFFFFFFFFFFFFFFFD8
:10F84000FFFFFFFFFFFFFFFFFFFFFFFFFFFFFFFFC8
:10F85000FFFFFFFFFFFFFFFFFFFFFFFFFFFFFFFFB8
:10F86000FFFFFFFFFFFFFFFFFFFFFFFFFFFFFFFFA8
:10F87000FFFFFFFFFFFFFFFFFFFFFFFFFFFFFFFF98
:10F88000FFFFFFFFFFFFFFFFFFFFFFFFFFFFFFFF88
:10F89000FFFFFFFFFFFFFFFFFFFFFFFFFFFFFFFF78
:10F8A000FFFFFFFFFFFFFFFFFFFFFFFFFFFFFFFF68
:10F8B000FFFFFFFFFFFFFFFFFFFFFFFFFFFFFFFF58
:10F8C000FFFFFFFFFFFFFFFFFFFFFFFFFFFFFFFF48
:10F8D000FFFFFFFFFFFFFFFFFFFFFFFFFFFFFFFF38
:10F8E000FFFFFFFFFFFFFFFFFFFFFFFFFFFFFFFF28
:10F8F000FFFFFFFFFFFFFFFFFFFFFFFFFFFFFFFF18
:10F90000FFFFFFFFFFFFFFFFFFFFFFFFFFFFFFFF07
:10F91000FFFFFFFFFFFFFFFFFFFFFFFFFFFFFFFFF7
:10F92000FFFFFFFFFFFFFFFFFFFFFFFFFFFFFFFFE7
:10F93000FFFFFFFFFFFFFFFFFFFFFFFFFFFFFFFFD7
:10F94000FFFFFFFFFFFFFFFFFFFFFFFFFFFFFFFFC7
:10F95000FFFFFFFFFFFFFFFFFFFFFFFFFFFFFFFFB7
:10F96000FFFFFFFFFFFFFFFFFFFFFFFFFFFFFFFFA7
:10F97000FFFFFFFFFFFFFFFFFFFFFFFFFFFFFFFF97
:10F98000FFFFFFFFFFFFFFFFFFFFFFFFFFFFFFFF87
:10F99000FFFFFFFFFFFFFFFFFFFFFFFFFFFFFFFF77
:10F9A000FFFFFFFFFFFFFFFFFFFFFFFFFFFFFFFF67
:10F9B000FFFFFFFFFFFFFFFFFFFFFFFFFFFFFFFF57
:10F9C000FFFFFFFFFFFFFFFFFFFFFFFFFFFFFFFF47
:10F9D000FFFFFFFFFFFFFFFFFFFFFFFFFFFFFFFF37
:10F9E000FFFFFFFFFFFFFFFFFFFFFFFFFFFFFFFF27
:10F9F000FFFFFFFFFFFFFFFFFFFFFFFFFFFFFFFF17
:10FA00000FF8FFFF0EF8FFFF0FF8FFFF0FF8FFFFE3
:10FA10000FF8FFFF0FF8FFFF0FF8FFFF0FF8FFFFD2
:10FA2000BFFFFFFDBFFFFFFDBFFFFFFDBFFFFFFDEE
:10FA3000FFFFFFFFFFFFFFFFFFFFFFFFFFFFFFFFD6
:10FA4000AAD5D26AABFAFFFFABFAFFFF1DB418FDCF
:10FA5000F0FFFFFF0BF8FFFF03F8FFFF7D60F8FCEE
:10FA600000F8FFFF00F8FFFF00F8FFFF08F8FFFFB6
:10FA7000FFFFFFFFFFFFFFFFFFFFFFFFFFFFFFFF96
:10FA8000FFFFFFFFFFFFFFFFFFFFFFFFE641160342
:10FA900008FFFFFF5D00FFFF1C00FFFFE7070108F5
:10FAA0000200FFFF0100FFFF0300FFFF4000FFFF18
:10FAB000FFFFFFFFFFFFFFFFFFFFFFFFFFFFFFFF56
:10FAC000FFFFFFFFFFFFFFFFFFFFFFFFFFFFFFFF46
:10FAD000FFFFFFFFFFFFFFFFFFFFFFFFFFFFFFFF36
:10FAE000FFFFFFFFFFFFFFFFFFFFFFFFFFFFFFFF26
:020000042000DA
:0100000044BB
:00000001FF
