:020000041FFFDC
:1000000080070020D500FF1F3B1BFF1F391BFF1F70
:1000100000000000000000000000000000000000E0
:10002000000000000000000000000000B91BFF1FDE
:1000300000000000000000009D1BFF1FBB1BFF1FF6
:10004000E700FF1FE700FF1FE700FF1FE700FF1F9C
:10005000E700FF1FE700FF1FE700FF1FE700FF1F8C
:10006000E700FF1FE700FF1FE700FF1FE700FF1F7C
:10007000E700FF1FE700FF1FE700FF1FE700FF1F6C
:10008000E700FF1FE700FF1FE700FF1FE700FF1F5C
:10009000E700FF1FE700FF1FE700FF1FE700FF1F4C
:1000A000E700FF1FE700FF1FE700FF1FE700FF1F3C
:1000B000E700FF1FE700FF1FE700FF1F691DFF1F8D
:1000C0000348854600F04EF800480047A120FF1F76
:1000D000800700200448804704480047FEE7FEE709
:1000E000FEE7FEE7FEE7FEE7C51BFF1FC100FF1F9F
:1000F00030B50B46014600202022012409E00D46C0
:10010000D5409D4205D31D469540491B2546954047
:1001100040191546521E002DF1DC30BD03460B433D
:100120009B0703D009E008C9121F08C0042AFAD2AD
:1001300003E00B780370401C491C521EF9D2704733
:10014000D2B201E00270401C491EFBD2704700226F
:10015000F6E710B513460A4604461946FFF7F0FFC6
:10016000204610BD064C0125064E05E0E36807CC8D
:100170002B430C3C98471034B442F7D3FFF7A4FF4D
:10018000102EFF1F302EFF1F30B58C180278401C38
:1001900013071B0F01D10378401C120906D1027806
:1001A000401C03E005780D70401C491C5B1EF9D112
:1001B00001E00B70491C521EFBD1A142E6D3002086
:1001C00030BD00000168064A1140012252079142E9
:1001D00004D14168006880F3088808477047000030
:1001E0000000FE2FF8B5294D294E2A4F2A4C28E051
:1001F00000202870204600F0FDFD40E0206801212D
:100200000903084320607068C0B27F2820D030689E
:10021000084330607868C0B27F281FD03868084330
:1002200038601E484268D2B27F2A1DD002680A4355
:10023000026000F0C7FB01281CD001F011FF01286B
:100240001BD000F0AFFE6068C0B27F28D6D1CFE7E8
:1002500001202870304600F0CDFD10E0022028700B
:10026000384600F0C7FD0AE0032028700B4800F074
:10027000C1FD04E00520287001E00420287000F092
:100280009BF9792000F060F9F8BD0000180000200B
:10029000004400400048004000380140004C00404D
:1002A000F0B58DB001260024022104A800F01AF94F
:1002B0006846057C407C6840FF2804D01F2000F081
:1002C00043F90DB0F0BD7D4F312D1CD00EDC032D58
:1002D00021D006DC002D1ED0012D1CD0022D1DD1F9
:1002E00019E0112D0FD0212D18D10CE0732D0AD05B
:1002F00004DC442D07D0632D10D104E0822D02D000
:10030000922D0BD107E0386AC0B2AA2803D01F2073
:1003100000F01AF9D5E7792000F016F9732D0BD00B
:1003200006DC312D08D0442D06D0632D14D103E016
:10033000822D01D0922D0FD13869C00303D51F2023
:1003400000F002F9BDE77869002805DA5C48B8607A
:100350005C48B86000F024FC0020312D5FD010DC38
:100360000122032D45D007DC1021002D22D0012DC4
:1003700031D0022D13D134E0112D46D0212D0ED1D4
:1003800049E01F23FF21732D55D004DC442D4AD0B2
:10039000632D04D14BE0822D5AD0922D63D00026DC
:1003A000732D78D073DC312D75D0442D73D0632D2F
:1003B00076D170E00C2368466A46037002244170CF
:1003C000002041492346095C641CD154401CC0B242
:1003D0000C28F6D3E4E76A4611705070032490703D
:1003E000DEE769460A7004204870482003248870BC
:1003F000D6E769460A703548016809050A0F69465B
:100400004A70006803248870CAE700F083FB064640
:10041000012E97D0C4E700F0F7F90646C0E700F0D8
:1004200041FE0646BCE700F08FF90646B8E700F04B
:10043000FBFE0646B4E76A461374507408AA1170AE
:100440005170112204A9224800F072FE0646A7E767
:100450005520694608741E48002204A9083800F097
:1004600067FE06469CE7AA266A461674D826567486
:100470001376507608AA1172517215481F2204A9EA
:10048000083800F055FE06468AE700E008E0822DB5
:1004900001D0922D04D178690121C9070843786100
:1004A000012E08D01F206A46611C105589B268468B
:1004B00000F050F805E77920F5E700000020024041
:1004C00023016745AB89EFCDCE2DFF1F00580140BA
:1004D0000831FF1F08B50121684600F003F868469F
:1004E000007808BD10B5134A1278130001F040FCE3
:1004F00006040A10161C1F090A4601460E4800F0A1
:10050000D9FC10BD0A4601460C4800F0D3FC10BDD2
:100510000A4601460A4800F0CDFC10BD0A460146D5
:10052000084800F0C7FC10BD01F028FD10BD00F028
:10053000CFF910BD180000200038014000440040F1
:1005400000480040004C004001B50121684600F021
:1005500001F808BD10B5134A1278130001F008FC29
:1005600006040A10161C1F090A4601460E4800F030
:10057000B4FC10BD0A4601460C4800F0AEFC10BDAC
:100580000A4601460A4800F0A8FC10BD0A4601468A
:10059000084800F0A2FC10BD01F020FD10BD00F0E5
:1005A000D5F910BD1800002000380140004400407B
:1005B00000480040004C004070B56148614A067830
:1005C000012105255F48062440328903330001F0EC
:1005D000CFFB06041A3958987919416BA14341633E
:1005E000C26B572149048A43C263426A2243426272
:1005F000C26A0A43C262426AA2434262C26A8A4330
:10060000C26272B670BD436BA3434363C56B2B23B9
:100610009B049D43C56315688D431560426A224360
:100620004262C26A1A43C262026B0A430263426AAE
:10063000A2434262C26A9A43C262026B8A43026365
:1006400072B670BD436BAB434363C46B55235B040D
:100650009C43C46314688C431460426A2A43426218
:10066000C26A1A43C262026B0A430263426AAA4325
:100670004262C26A9A43C262026B8A43026372B6E2
:1006800070BD436B9B089B004363C46B53235B04A7
:100690009C43C46314688C431460426A032422435D
:1006A0004262C26A1A43C262026B0A430263426A2E
:1006B000A2434262C26A9A43C262026B8A430263E5
:1006C00072B670BD436BAB434363C46B47235B049B
:1006D0009C43C46314688C431460426A2A43426298
:1006E000C26A1A43C262026B0A430263426AAA43A5
:1006F0004262C26A9A43C262026B8A43026372B662
:1007000070BD436BA3434363C56B17235B049D43D9
:10071000C56315688D431560426A22434262C26A0E
:100720001A43C262026B0A430263426AA2434262F4
:10073000C26A9A43C262026B8A43026370BD0000C0
:100740001800002000100240F0B591B00221684668
:10075000FFF7C8FE68460478457827466F40FF2CAF
:1007600012D0681C46001090711C6846FFF7BAFE54
:100770003A463146684600F03BF869468A5D824257
:1007800010D0002011B0F0BD00A801210230FFF709
:10079000A9FE68468078B84201D00020F2E700F058
:1007A0004DF9EFE7002007E04300CA5C5E18777858
:1007B000CF547270401CC0B2109A9042F4D3002CF7
:1007C00005D0102C09D0202C0DD00020DAE704220F
:1007D0002946684600F050F9D4E7012229466846C8
:1007E00000F04AF9CEE72946684600F009FAC9E761
:1007F00002E00378401C5A400B46491E89B2002B88
:10080000F7D110467047000008B5684600F03CFD7F
:10081000012803D0022801D0002008BD0E48416BFA
:10082000490849004163C26B0121C9058A43C2637B
:10083000426A01231A434262C26A0A43C262426A9E
:100840009A434262C26A8A43C26262B60098FFF764
:10085000B9FC012008BD00000010024010B5194984
:10086000486B022210434863174802680414A243ED
:100870000260026A11231B061A4302624268C02307
:100880001A43426083680F22120313438360C368D4
:1008900093431A19C260C86B012252051043C86302
:1008A0000A488168FE229143763181600168012205
:1008B00011430160082141602821C16109210162C1
:1008C00010BD000000100240000400500054004021
:1008D000F8B504460D46002000901B4E3068F11418
:1008E0008843306030684F103843306001E000F0DA
:1008F00059FB70698007FAD57069B069009011E002
:1009000000F050FB70694006FAD530692070641C15
:100910006D1EADB27069400704D530692070641C4B
:100920006D1EADB2002DEDD101E000F03BFB706912
:10093000C006FAD570690090306801210843306024
:100940003068B8433060F8BD00540040F8B5044644
:100950000D46002000901A4E3068F1148843306034
:1009600030684F103843306001E000F01BFB7069C5
:100970008007FAD57069B069009011E000F012FBB1
:1009800070690006FAD52078641C30616D1EADB226
:100990007069400704D52078641C30616D1EADB2CB
:1009A000002DEDD101E000F0FDFA70694005FAD5A7
:1009B0007069B84370613068B8433060F8BD0000BA
:1009C0000054004038B5002000901B4C2068E11412
:1009D0008843206020684D102843206060698007AC
:1009E00001D4002038BD6069A069009001E000F0EA
:1009F000D9FA60694006FAD52069C0B27F2801D0D3
:100A0000002038BD6069400708D52069C0B2009059
:100A100004E02069C0B2009000F0C4FA6069C0062A
:100A2000F7D56069009020680121084320602068A4
:100A3000A8432060012038BD005400400C4948699B
:100A40000C4A104348610020C043520610600869F8
:100A5000C003FCD40869C007C00F0A6901231A4308
:100A60000A614A69034BDB431A404A617047000040
:100A70000020024004000001F7B582B016460120B4
:100A80000025491C204F019136E0002430E07869B0
:100A90001E490843786100F085FA02986900405ABF
:100AA0000121704300190002C90640181849097F46
:100AB0001F228907890F491CD206C9038218914257
:100AC00001D8012012E00021C94301603869C00348
:100AD000FCD478690D49C943084078613869C0077A
:100AE0000FD001203969012211433961641CE4B23D
:100AF000B442CCD36D1CEDB201998D42C5D305B083
:100B0000F0BD0020F6E700000020024002000001D6
:100B1000E031FF1F0EB502A800F0B6FB00280BD095
:100B200002216846FFF7DEFC6946087849784840AC
:100B3000FF2803D000200EBD00200EBD7920FFF756
:100B400003FD1449029841180BD0134A891808D0A4
:100B5000142906D069460978491CFFF7FBFC0120DF
:100B60000EBD0E49087F6A468007800F401C400179
:100B7000507000209070097F0907890F491C890077
:100B8000D17010711178501C491CFFF7E3FC012053
:100B90000EBD0000DE8500E05682FFFFE031FF1F42
:100BA00011488169CAB211490A6082691204120EA1
:100BB0000A618269D201D20D4A60026AD2B28A60A9
:100BC000026A5201520DCA60826AD203D20B4A6194
:100BD000026BD203D20B8A61826B92B2CA61806BC4
:100BE000000C086270470000C032FF1F0021024065
:100BF00001488068704700001C000020A0270423E3
:100C0000F8B507460024144D4E1C20E068691349CE
:100C10000843686100F0C6F96100795A002001229A
:100C2000C0434903D206891808602869C003FCD470
:100C300068690A49C943084068612869C00709D042
:100C400001202969012211432961641CE4B2B442E4
:100C5000DCD3F8BD0020F8BD0020024000080001F0
:100C600030B591B0302105A8FFF771FA0024019446
:100C700002940394049402250595E8010A900B94CC
:100C80000F48A903008CC004C00C40180C900E95AE
:100C90000F95109405A800F0EFFC002801D000F09B
:100CA0006FFF07200190029503940494012101A88D
:100CB00000F0C4FB002801D000F062FF11B030BD8D
:100CC0000032FF1F70B50446424B01220520000789
:100CD000950341499C4215D14B6B13434B63C36849
:100CE00003263605B34316059B19C3600368B34357
:100CF0000360436A8E1533434362374B40331E68AB
:100D00002E431E60354B9C4213D14B6B13434B63F8
:100D1000C26893009B0822059B18C3600368934335
:100D20000360426AA3041A434262C86BDA1210439A
:100D3000C8632B48032201269205B605844212D1CE
:100D4000486B0223184348632648C36893439B19A2
:100D5000C3600368B3430360436A2B434362C86BB9
:100D600033111843C86320480425844213D1486BCB
:100D7000284348631D48C36893439A19C2600268B8
:100D8000B2430260426A0F231B039A434262C86B5C
:100D90006A041043C863E068052189020843E060E3
:100DA0001348E121490200684A108018FFF7A0F9B2
:100DB000A060E068012149030843E0606069032105
:100DC000490388430121090308436061E06828431F
:100DD000E06070BD00380140001002400044004057
:100DE0000048004000040050004C00400008005043
:100DF0000000002030B54169012212039143416196
:100E0000264A0521090790420ED1CB68032292049D
:100E10009343012292049B18CB600B6893430B60B1
:100E20004A6A10231A434A621D4A90420ED1CB6887
:100E300003221207934382049B18CB600B689343F1
:100E40000B604A6A01231B061A434A6215490323B1
:100E500001221B05120588420BD11349CC689C4323
:100E6000A418CC600C6894430C604C6A05152C43A4
:100E70004C620E4988420CD10D49CC689C43A318A2
:100E8000CB600B6893430B604A6A0F231B029A43A3
:100E90004A62C16808221143C16030BD0038014078
:100EA000004400400048004000040050004C004056
:100EB0000008005070B506460D46144607E000F0E5
:100EC00071F831688806FAD5706828706D1C204664
:100ED000641EA4B20028F4D170BD70B504460E465D
:100EE000154608E03078761C606001E000F05AF8A2
:100EF00020680006FAD528466D1EADB20028F1D153
:100F000001E000F04FF820684006FAD52068402143
:100F10008843206070BD000008B50F4801680123B8
:100F2000194301600068184000900B484038C26BBC
:100F3000D9050A43C263C26B0A400092416B194350
:100F40004163406B1840009000F0FCFF0120034912
:100F5000C007086008BD00004010024000E100E04A
:100F600000B50B48016AC90405D40A494A68FF2341
:100F700081331A434A60006A000506D407480649CF
:100F80000160072141600649816000F00BF800BD57
:100F900000200240002C0040555500000030004069
:100FA000FF0F0000044801687F22114301600449DB
:100FB0000248086070470000002C0040AAAA000008
:100FC00000300040F8B505460E46521C29062B4657
:100FD000090E1CD02D0A2D020021DCB2A646A41851
:100FE000A4460AE0541AA419203CE77F6446641A18
:100FF000A419203CE777491C89B29142F2D3002121
:1010000003E06C5C7454491C89B28E45F9D8D9B29E
:10101000D4B20C4310D09B18FE331B0A1B025B1E7C
:10102000891889B25A1B521C03E06B5C7354491C2B
:1010300089B28A42F9D892B200240027110A00919D
:1010400026E0FFF7AFFF154B586915490843586173
:101050000020491132592A51241D3E2802D15A69D3
:101060000A435A61401C80B24028F3D31869C00378
:10107000FCD458690A49C943084058611869C00737
:101080000AD0012019690122114319617F1CBFB2E6
:101090000099B942D5D8F8BD0020F8BD0020024023
:1010A0000100000170B5FFB083B081A800F0ECF83A
:1010B0000446012C07D0022C05D0032C03D00020BD
:1010C0007FB003B070BDFFF705FA0546A91C68465E
:1010D000FFF708FA2A46691C6846FFF789FB6B464A
:1010E00059194978884201D00020E9E7012C04D041
:1010F000022C09D0032C19D112E02A4669468198A6
:10110000FFF760FF064611E000206D1C819903E0A7
:101110001A5C0A54401C80B2A842F9D3012605E0AB
:101120002A466946819800F003F806463046C7E72C
:10113000F8B586461046384A156A566AD76A526923
:10114000520004D5344A354BD360354BD36000236D
:10115000FF221202401C844632E07046C418314817
:10116000844203D1280A0002CD5C05432D48401C6F
:10117000844203D19543C85C0002054329480830E6
:10118000844203D1300A0002CE5C06432548093070
:10119000844203D19643C85C0002064321481830BC
:1011A000844203D1380A0002CF5C07431D4819303E
:1011B000844203D19743CC5C240227435B1C9BB23F
:1011C0006345CAD3144C25626662E7626069812177
:1011D00049040843606100BF00200F4AC0438032C9
:1011E00010602069C003FCD400BF2069C507ED0F63
:1011F0002069012210432061606988436061002DED
:1012000007D07920FFF7A0F960690121C9060843DA
:1012100060612846F8BD0000002002403B2A190802
:101220007F6E5D4C0031FF1F7FB5154CFFF752F903
:101230000546A91C6846FFF755F92A46691C684609
:10124000FFF7D6FA6A4651194978884202D0002041
:1012500004B070BD002001216D1C05E0165C0B463A
:10126000B3409C43401C80B2A842F7D369460C703F
:10127000200A487001220348FFF75AFFE8E7000000
:10128000FFFF00001831FF1F7CB5044605216846AA
:10129000FFF728F9002204216846FFF7A9FA6946FA
:1012A0000979884201D000207CBD7920FFF74CF9F4
:1012B0006A461178D0780906401851789278090466
:1012C00012028918411821602C4A2D4B881A2D4D85
:1012D00091422AD01DDC2C480A1A814223D006DC18
:1012E0002A48081809D02A49C84208D11DE02948CF
:1012F000101816D02849C84201D128482060012280
:10130000D20627492068904211D388420FD201208B
:101310007CBD202807D0342805D03C2805D054288F
:10132000EDD12560EBE703207CBD2360E7E70122D8
:1013300052071C49904203D3884201D202207CBD4F
:101340001949884203D3984201D205207CBD9842B6
:1013500003D3A84201D204207CBD1449A84203D380
:10136000884201D203207CBD114A884203D39042B7
:1013700001D204207CBD00207CBD0000ACF7FF1F23
:101380000030FF1F0031FF1F227AFF1F228800E07C
:10139000CEFDFFFF22BAFFFF5AC9FFFFFC0BFF1F64
:1013A000FFFF0108FF3F00200000FF1F0032FF1F6A
:1013B0000038FF1F024881684268891881607047C1
:1013C0001C00002010B50024032000F009F80028BC
:1013D00001D0012401E000F02BF8204610BD0000F0
:1013E00070B505460024104E7168002919D07D2083
:1013F000C000FEF77DFE01460C480068FEF778FE4F
:1014000000F082FB002801D001240BE0042D06D25D
:1014100000222946501E00F00CF8356002E001243D
:1014200000E00124204670BD1C00002000000020C8
:10143000704710B500F082FB10BD0000F8B50446FF
:101440000D46002C0FD0544800688007800FA8423A
:1014500018D2514F38688008800028433860FFF761
:10146000C7FB064609E00120F8BDFFF7C1FB811B61
:101470004A48814201D90320F8BD38688007800FAF
:10148000A842F2D12068464E81070DD5400704D509
:10149000B068072109030843B060B0680F21090252
:1014A0008843A1680843B0602078C0073BD06068DB
:1014B00001280CD000280FD0022812D03849403122
:1014C000042813D0096A890715D40120F8BD3168B2
:1014D000890310D40120F8BD316849050BD40120DF
:1014E000F8BD3168890106D40120F8BDC9698907B2
:1014F00001D40120F8BDB168C908C9000143B16039
:10150000FFF776FB074607E0FFF772FBC11B234896
:10151000814201D90320F8BDB068382108406168D4
:10152000C9008842F0D11C4801688907890FA94287
:1015300016D901688908890029430160FFF758FB23
:10154000074607E0FFF754FBC11B1448814201D94D
:101550000320F8BD104800688007800FA842F1D131
:101560002078400706D5B168072000038143E06872
:101570000143B16000F01CF8B1683C2289091140B8
:10158000084A515CC906C90EC840074908600748A7
:101590000068FFF725FFF8BD002002408813000017
:1015A00000100240C02CFF1F000000201C00002083
:1015B00010B58AB014222D4905A8FEF7AFFD2B48BF
:1015C00001AC1038C36A826A416A006B0EC4049091
:1015D000274A906805AB8006400F18D090688006B7
:1015E000400F012823D090688006400F022820D0A9
:1015F00090688006410F0120C003042905D091683E
:101600008906490F032900D000200AB010BD1068D8
:1016100001218004400F814050680004400F0428DD
:1016200000D9002080001858FEF762FDEDE7114850
:10163000EBE7D0688007800FD1680C24214001AC13
:101640006158022807D0032802D009984843DCE7F4
:1016500008484843D9E750680004400F042800D9DF
:101660000020800018584843CFE70000EC2DFF1FF2
:101670000010024000366E01F0B587B00446FC4809
:101680004268016806920591C168806804910390E0
:10169000002C0DD020783827C007F64E00285FD0E8
:1016A000B0683840F1688907890F102803D004E03A
:1016B000012007B0F0BD032915D0082813D06068B9
:1016C000002807D0A068002815D031698908890052
:1016D0000143316101216068090488420DD13068FD
:1016E000084330601CE03068800339D5606800280A
:1016F00036D10120DDE70120DBE7052301221B04B1
:101700009204984206D13068104330603068084334
:10171000306005E030688843306030689043306066
:10172000606800280ED0FFF763FA054606E0FFF771
:101730005FFA401BC82801D90320BAE7306880034C
:10174000F5D50DE0FFF754FA054606E0FFF750FA2D
:10175000401BC82801D90320ABE730688003F5D4CB
:10176000207880077BD5B5683D40F0688007800F02
:10177000102D01D1022814D0002D12D0606900284C
:101780005AD030680721C9028843A16908433060F4
:101790003068FF21013108433060FFF729FA054620
:1017A00040E03068400502D56069002809D07068C3
:1017B000E169000C000408437060FFF719FA07465E
:1017C00008E0012075E7FFF713FAC01B022801D9D2
:1017D00003206EE730684005F5D5002D13D1306841
:1017E0000721C9028843A16908433060FFF7E0FE82
:1017F000B1683C22890911409F4A515CC906C90E53
:10180000C8409E4908609E480068FFF7E9FD00282F
:1018100025D001204DE7FFF7EBF9401B022801D945
:10182000032046E730684005F5D57068E169000C93
:1018300000040843706012E03168FF2001308143EA
:101840003160FFF7D5F9054606E0FFF7D1F9401BF7
:10185000022801D903202CE730684005F5D4207810
:10186000884D000734D5B0688006400F03280AD0A1
:10187000206A00281AD0286A012108432862FFF74D
:10188000B7F907460EE0286A800721D5206A0028AC
:101890001ED101200DE7FFF7ABF9C01B022801D9CB
:1018A000032006E7286A8007F5D511E0286A40087A
:1018B00040002862FFF79CF9074606E0FFF798F919
:1018C000C01B022801D90320F3E6286A8007F5D45B
:1018D0002078400772D500200290B0688006400F43
:1018E000042818D0F06BC00009D4F16B0120000768
:1018F0000143F163F16B01400191012002906248C4
:101900000168C9051AD40168821511430160FFF707
:101910006FF907460EE0E869800767D5E0680028A0
:1019200064D10120C5E6FFF763F9C01B022801D985
:101930000320BEE654480068C005F4D5E0680028DE
:1019400008D0206981038A0F504917D032698A4331
:1019500002433261E068012817D00421052819D01C
:10196000E86940084000E861E8698843E861E068A8
:10197000002824D0FFF73CF907461BE03069884374
:101980000121490440183061E4E7E8690121084376
:10199000E861ECE7E8690843E861E8690121084388
:1019A000E861E4E7FFF724F9C11B3948814201D916
:1019B00003207EE6E8698007F4D50FE016E0FFF724
:1019C00017F9074607E0FFF713F9C11B30488142BA
:1019D00001D903206DE6E8698007F4D40298012854
:1019E00004D1F06B012109078843F063606A002885
:1019F0006FD0B1688906490F022977D001273F06C9
:101A000002280AD03068B8433060F068800880004F
:101A1000F060FFF7EDF8044664E03068B8433060EA
:101A2000FFF7E6F8054606E0FFF7E2F8401B02285C
:101A300001D903203DE630688001F5D4E06A8508CD
:101A4000A06A032809D1A90005AA5358114A934254
:101A50000CD803AB5958914208D302281CD100F08E
:101A60009FF8AA0005A98958884215D2012020E6CE
:101A7000DC2DFF1F00100240C02CFF1F00000020C3
:101A80001C000020401002400070004000000300D5
:101A90008813000000366E01F068A16A800880009B
:101AA0000843F060F0680C218843E16A0843F06065
:101AB000306838433060FFF79BF8044606E0FFF7D4
:101AC00097F8001B022801D90320F2E53068800155
:101AD000F5D517E0FFF78CF8001B022802D9032088
:101AE000E7E503E030688001F4D40BE0012807D07B
:101AF000F068A16A8007800F884203D00120D8E5F2
:101B00000120D6E50020D4E510B50949401E8842E1
:101B100001D9012010BD074C60610321081F00F0AE
:101B20000DF80020A06107202061002010BD0000FA
:101B3000FFFFFF0000E000E0FEE770478307FF22A1
:101B4000DB0E9A408907090E994000280BDA00073E
:101B5000000F0838830808489B001818C36993438E
:101B60000B43C3617047830804489B00181803683F
:101B700093430B430360704700ED00E000E400E096
:101B8000BFF34F8F04490348C860BFF34F8F00BFB6
:101B9000FDE700000400FA0500ED00E070470000DA
:101BA000034840680004400F02498000085870470D
:101BB00000100240002DFF1F704710B5FFF7FAFB21
:101BC00010BD000007494868074A400E12894006C8
:101BD00012041043054A92681043486005490448BE
:101BE00088607047001002404033FF1F0032FF1F23
:101BF0000000FF1F00ED00E0F0B585B0574E3479CE
:101C0000B5797079019000F06FFA009060070FD5F8
:101C1000FF2181315248FEF79AFA51484021416034
:101C200000F088FD0120B072002070724D490870EC
:101C3000B47A2C40E00706D0002000F07BFA00F0D8
:101C4000B3F864086400012537E00127AF4027425C
:101C500031D0284600F06EFA707D400703D5707DC4
:101C6000FB21084070751420294641433C48081860
:101C7000018D426B8A4208D9036B5B180363836B47
:101C80005B188363521A426307E0036B9B1803637C
:101C9000836B9A18826300224263426B002A14D03D
:101CA0008A4200D211468AB2016B284600F048FAF7
:101CB00001207075BC436D1CEDB2002CC5D12748C6
:101CC000477A01980740012641E0816B284680222F
:101CD000104300F0C5FCEDE70120B040384203900E
:101CE00033D0304600F026FA1C48417EC9072AD07E
:101CF000858B14203146414319482A460C1802941A
:101D000080343046216D00F005FA1448407E4108C9
:101D1000124849004176206D40192065A06D411997
:101D2000A165606D401B6065029CC0342289AA4297
:101D300001D8002807D10948437A039A9343437294
:101D4000304600F0C3FC03988743761CF6B2002FA0
:101D5000C2D1009800F0EEF905B0F0BD005C004083
:101D6000000200203800002010B5FFF745FF10BD2D
:101D700030B47446641E2578641CAB4200D21D4604
:101D8000635D5B00E31830BC184702E008C8121F0F
:101D900008C1002AFAD170477047002001E001C154
:101DA000121F002AFBD17047F8B5394D287C00225C
:101DB0004107384E002905DA287CFB2108402874A9
:101DC0003270F8BDC10601D580212974324C2178CA
:101DD000002902D021782970227031780B00FFF79A
:101DE000C7FF07061E05315105510500E9E7C00789
:101DF000E7D0687C0828E4D12749082220310E4624
:101E0000002000F087F9E08C002802D040202874E0
:101E100001E048202874304600F0D0FBF8BD1E4B8E
:101E2000218D606B9B6B884204D95A18A263401ABB
:101E3000606302E01818A06362638020A16B00F069
:101E40000FFCF8BDC007FCD06F7C134C3A468034C1
:101E50000020216D00F05EF9206DC0192065A06D95
:101E6000C119A165204640300089B84207D9002039
:101E700000F02CFC4820287404203070F8BD40206D
:101E80002874F8BD32700021802000F0E9FBF8BD15
:101E9000005C00403800002000020020F8B5074632
:101EA0000C4615467879397900020843C0B2797832
:101EB00001260B00FFF75CFF0C4207131E42424253
:101EC000424224303942F978BA78090211430A0AA9
:101ED000C9B200F0EFFE216808702E602CE0F9789E
:101EE000BA7809021143C9B200F0E0FE2168087017
:101EF0002E6021E000F0DCFE216808702E601BE0FF
:101F000029780091F978BA78090211430A0AC9B20E
:101F1000236800F0D3FE0FE0F978BA780902114384
:101F20000A0AC9B200F0C8FE06E0F978BA780902D8
:101F30001143C9B200F0C1FE0020F8BD0020C0432B
:101F4000F8BD000010B50A4800F094F908492222B3
:101F50008C31084800F072FC00F028F9064800F0C7
:101F600013F90548083000F00FF900F073FC10BDBC
:101F7000202DFF1FDC01002008000020F8B50746D7
:101F80000E460024B009134D00900DE0FFF70AF84B
:101F900028780028FAD000202870A001C01940221B
:101FA0000D49FEF7BBF8641C0098A042F0D8B006BB
:101FB00002D1F8BDFEF7F6FF28780028FAD00020FD
:101FC0002870B206A001920EC0190349FEF7A6F8C8
:101FD000F8BD0000040000203C000020F0B591B0E6
:101FE00007460E460024B0091C4D109013E0A001D6
:101FF000C1194022812000F06FFA002802DA002087
:1020000011B0F0BD0120687001E0FEF7CBFF6878E9
:102010000128FAD0641C1098A042E8D8B0061BD062
:1020200040216846FEF793F8A001B206C119920E4E
:102030006846FEF773F840226946812000F04CFAAA
:10204000002801DA0020DBE70120687001E0FEF7DC
:10205000A9FF68780128FAD00120D1E70400002008
:1020600009480178002908D00021017000200749A3
:102070000A5C7F2A03D00020704700207047401C74
:102080004028F5DB01207047040000203C000020C0
:102090000248407F002800D001207047BC0100208A
:1020A000FEF75EFFFFF78EF9FEF7DAFD0A48FEF74E
:1020B00009FE0A48FEF706FE0948FEF703FE094836
:1020C000FEF700FEFEF7CAFBFEF726FFFEF78AF8D2
:1020D000FEF7E6F8FCE7000000380140004400404D
:1020E00000480040004C00400148807B70470000E1
:1020F000005C004003460120C200934201D80A80E0
:102100007047401CC0B20828F6D900200880012082
:1021100070470000064B8000C018002A05D17047A8
:1021200003780B70491C521E92B2002AF8D17047F6
:10213000205C00400149887370470000005C00404B
:10214000064B8000C018002A05D170470B78491C47
:102150000370521E92B2002AF8D17047205C0040F2
:1021600010B500F00FF80020FFF7E4FF044800214D
:10217000017004220272012282724172002010BD9D
:10218000005C00407047000010B502784168064CC2
:102190005006C00D0019FF3013060130002B01DA84
:1021A000C16110BDC16310BD7C000020074B997F49
:1021B0000177074900E011460A68002AFBD1086050
:1021C00000210160987F401C98777047BC01002077
:1021D0002800002070B505460E460648046806E053
:1021E0002269002A02D03146284690472468002CF4
:1021F000F6D170BD28000020F0B403789C07174B7F
:10220000A40F1B68012C11D0022C21D022E05C68A5
:10221000002C0AD0457906792D021C7F3543EDB29A
:10222000AC4202D15B68F0BC18471B68002BEED1B2
:1022300010E09C68002C0AD0457906792D021C7F9D
:1022400035432D0AAC4202D19B68F0BC18471B688D
:10225000002BEED1F0BC0020C043704728000020C6
:1022600010B540220249022000F0F2F810BD000033
:102270003C000020024988610248002181777047B4
:102280007C000020BC01002070B506467406640E78
:10229000FFF72AFF05462046FFF74CFF3206FB21D9
:1022A0001248002A0EDB002C08D0417E9F221140EC
:1022B0004176417E8022114341760DE0027C0A4046
:1022C000027409E0002C0CD0417DCF2211404175F1
:1022D000417D4022114341752846FFF72BFF002026
:1022E00070BD027C0A400274F6E70000005C00400A
:1022F00000207047FEB50446002101912078450674
:102300006D0E0026374F002D03D0072D0ED9481E25
:10231000FEBD34484023C030038181720122027324
:102320003B85A038817202730020FEBDFFF7DCFE02
:1023300000902846FFF7FEFE207801062A4822D4A6
:1023400014214D43E9196288C0310A8162788A728A
:1023500001220A736178012900D1402605460676DC
:10236000687EC00702D09020687601E08020687601
:10237000608801A9FFF7BEFEA87679686846808864
:102380000818786028E02946142359436288C9193F
:102390000A85627820318A7201220A73817AAA4002
:1023A000114381726178012900D1402620210E431A
:1023B00005460675687D800702D54820687501E0EE
:1023C00040206875608801A9FFF794FEA8757868B9
:1023D00069468988401878600098FFF7ABFE0020B6
:1023E000FEBD000000020020005C004070B5054604
:1023F0006C06640EFFF778FE06462046FFF79AFE4D
:102400002D060722104B60211048002D0BDB002CFD
:1024100004D0417E2022114341760AE01A70027CEA
:102420000A43027405E0002C08D0017D10221143FC
:1024300001753046FFF77EFE002070BD1A70027CE9
:102440000A430274F5E7000038000020005C0040F9
:10245000F8B50F4616464406640E002F03D1002E31
:1024600001D0481EF8BD204614214843174945189D
:10247000CC20405D00281AD0FFF736FE00902046A1
:10248000FFF758FE80352F656E650021A96510485D
:10249000002E0FD0002C15D00E49487A0122A24000
:1024A000104348720098FFF745FE0020F8BD012058
:1024B000C043F8BD002C00D101700098FFF73AFE30
:1024C0000020F8BD03210170ECE7000000020020AD
:1024D00038000020005C0040F7B582B01446470683
:1024E0007F0E0398002804D1002C02D0401E05B0B6
:1024F000F0BD14202E49784345182C20405D00285B
:102500000FD0FFF7F1FD01903846FFF713FE294E7B
:10251000707DC00708D00198FFF70CFE0220C04371
:10252000E5E70120C043E2E72149039828636C6393
:102530000020A863002C11D0288DA04200D80446AA
:10254000A2B238460399FFF7FBFD002F23D00120EC
:1025500070750198FFF7EEFD0020C8E7002F06D048
:10256000012070750198FFF7E5FD0020BFE7C88CDA
:10257000002809D01048062101700F480078012872
:1025800006D002203074EDE70B4804210170F4E717
:102590000A203074E6E70848012101700448008DE4
:1025A000A04202D90A203074D3E702203074D0E769
:1025B00000020020005C004038000020F8B5274CE5
:1025C000014608222046FDF7A9FDE288FF270137D2
:1025D000BA4206D92078000603D48020FFF706FF10
:1025E000F8BD1E4D1D4E1C35B560F26032610020F5
:1025F0003075002A07D02078000604D42946002030
:10260000FFF726FFF8BD154A20461032114608395B
:1026100000F0C6F900281CD0E0883269824200D35D
:102620000246F260B168880705D0BA42EAD8284667
:10263000FDF774FDB5608020F268B168FFF74CFFCC
:10264000E18830698142DDD98006DBD10120307517
:10265000F8BD8020FFF7CAFEF8BD00007C00002016
:1026600010B5194C802809D04206D20D1219FF323C
:102670000132D269002A00D0904710BD1248A268EA
:102680005318A360E268521AE260002A04D0194687
:102690008020FFF721FF10BD217D01290BD0C188CB
:1026A0000029F8D00078C009F5D000221146104664
:1026B000FFF7CEFE10BD00202075002211468020BD
:1026C000FFF70AFF10BD00007C00002010B5184C79
:1026D000002809D04206D20D1219FF320132D26B06
:1026E000002A00D0904710BD11480029FBD0A268F5
:1026F0005318A360E268521AE260002A04D0194617
:102700000020FFF7A5FE10BD09491C31A1600A4653
:102710000C3A143900F044F9002805D00022114683
:102720008020FFF7D9FE10BD8020FFF75FFE10BDAF
:102730007C00002038B5002000F0AAF80B480024E7
:10274000047744774020694648804C7080200870A8
:102750006846FFF7CFFD69460C706846FFF7CAFD73
:1027600000210120FFF736FD38BD0000BC0100202C
:10277000F0B503468C46002500201C0ADEB2234932
:10278000032C01D1EE2E08D00F2C12D0042C02D035
:10279000052C00D019D90020F0BD4868002806D0CB
:1027A000614603680B60007910600120F0BD0020D5
:1027B000F0BDC868002806D0614603680B60406819
:1027C00010600120F0BD0020F0BD11498B6908E0C8
:1027D0005978A14204D1B54201D1012004E06D1C19
:1027E000FB181F78002FF3D10028EDD061460B6055
:1027F000022C04D0072C02D019781160F0BD997812
:10280000DB781B0219431160F0BD00002800002096
:102810007C0000200149002048707047040000201F
:1028200010B5044901200870402203490220FFF737
:102830000FFE10BD040000203C000020044B43604C
:1028400000238360C36003614161826170470000BF
:102850009D1EFF1F10B5FFF783FC10BD704708B524
:1028600081786B4619704279037912021A43520536
:10287000520D6B465A80C0788007800F587008460A
:10288000FFF736FD002801D0002008BD012008BD5B
:10289000002802D1034A002111700349087000206A
:1028A00070470000005C004000020020F3B581B0DA
:1028B000074612488469FF26FF25002119E0607849
:1028C000022804D0042807D0052810D106E0657935
:1028D000BD420CD101210AE0E67808E0BD4206D1F4
:1028E0000298864203D1204600F00AF8014620787B
:1028F000041920780028E2D10846FEBD7C000020A3
:1029000008B581786A46117041790279090211434C
:102910004905490D6A465180C0788007800F507084
:102920006846FFF7E7FC002801D0002008BD012021
:1029300008BD0000F3B581B01848846900200090FC
:10294000FF25FF2600271FE06078042802D0052815
:1029500018D109E0E578A6780198864212D102984C
:1029600085420FD100940DE0019886420AD120469D
:1029700002998D4203D0FFF772FF074602E0FFF78E
:10298000BFFF07462078041920780028DCD10820F2
:102990000099FFF71FFC3846FEBD00007C000020B8
:1029A00010B5044623786020034005D0202B0DD0BD
:1029B000402B15D0002010BD204600F01DF8002847
:1029C00018DA2046FFF74AFF002010BD2046FFF727
:1029D00013FC00280EDA2046FFF740FF002010BD50
:1029E000204600F015F9002804DA2046FFF736FFEC
:1029F000002010BD012010BD70B5002403780E4DDD
:102A00009B079B0F06D0012B0AD0022B0ED02C4621
:102A1000204670BD00F012F80028F9D12C46F7E7E7
:102A200000F09AF80028F3D12C46F1E700F052F8B4
:102A30000028EDD12C46EBE7FFFFFFFFF8B503467A
:102A40001546D8789A780002104301245A78002657
:102A50001300FFF78DF90C070E390E3910151A1CEB
:102A600021373739086806700868467002202860E8
:102A70002BE02E6029E0C0B2FFF70AFF2E6024E0B1
:102A80002A46FFF775FE04461FE000241DE01048AB
:102A900008600120286018E0C7B238460021FFF71F
:102AA00005FF00280CD00A481D384777012101771F
:102AB00000210720FFF78EFBFFF7D2FB2E6004E01A
:102AC0000024FBE7002400E000242046F8BD0000BD
:102AD000D9010020F7B582B00546164668792979F4
:102AE00000020843C0B201900124FFF7D1FA002888
:102AF0000DD06878002700280BD0012812D00328B9
:102B00001CD00C2826D00024204605B0F0BD0020A3
:102B1000FBE703980068077003980068477002207D
:102B20003060F1E7E878A9780002084302D0002479
:102B30003760E9E70198FFF7A7FBE5E7E878A978B0
:102B40000002084302D000243760DDE70198FFF758
:102B50004DFCF9E70024D7E7FEB504460D461746BD
:102B6000E078A17800020843000A01906079217999
:102B700000020843C0B200900126FFF789FA00283E
:102B80000AD060780300FFF7F3F80C09263D263DD4
:102B90003D113D3D3D282E3D0020FEBD2968002011
:102BA000087029684870022038602CE001982228BB
:102BB0000FD1164800680AE0027F00998A4205D1C9
:102BC00041692960806938600120FEBD00680028E5
:102BD000F2D1002617E0002615E0296800200870D1
:102BE000012038600FE0E078A17800020843C1B20C
:102BF0006079227900021043C0B2FFF79BFE0020EB
:102C0000386000E000263046FEBD000028000020AD
:102C1000F8B505460E4617462349486800281AD0DD
:102C20006978427991422CD169792A790902114354
:102C3000042904D0052908D00020C043F8BD8168CC
:102C40003160808938600020F8BD01693160808A78
:102C500038600020F8BD8868002812D06978827931
:102C600091420ED169792A7909021143072902D0CC
:102C70000020C043F8BD01683160808838600020C2
:102C8000F8BD0948046809E0E368002B05D03A461E
:102C9000314628469847002804D02468002CF3D1F8
:102CA000601EF8BD0020F8BD2800002000207047FD
:102CB0000020704700207047704770477047000041
:102CC0000000000000000000000000000000000004
:102CD00000000000000000000000000000000000F4
:102CE00001000000020000000300000004000000DA
:102CF00006000000070000000800000009000000B6
:102D000000093D0000127A000024F40040865101C1
:102D100000366E0100093D0000093D0000093D003C
:102D20001201000200000040FFFF480402000102FF
:102D30000301090229000101008032090400000298
:102D40000301000009211101000122220007058171
:102D500003400001070502034000010403090408C1
:102D600003410052004D002E03410052004D00204F
:102D7000004400650076006900630065002000697A
:102D8000006E00200044004600550020004D006FFA
:102D9000006400650016033200300032003300305A
:102DA0000033003200330031003000000600FF091C
:102DB00001A1010901150026FF0095407508810257
:102DC0000901150026FF00954075089102C0000119
:102DD000021121314463738292030000001BB7008B
:102DE0000024F40000366E0100366E0100093D003B
:102DF00000127A000024F4004086510100366E0172
:102E000002000000030000000200000002000000B9
:102E1000302EFF1F00000020DC0100008801FF1F92
:102E2000482EFF1FDC010020A40500009A1DFF1F93
:102E30006400127A4281461528FF1F02552128FF9F
:102E40001F420402FF0101BEFFFFFFFFFFFFFFFF64
:102E5000FFFFFFFFFFFFFFFFFFFFFFFFFFFFFFFF82
:102E6000FFFFFFFFFFFFFFFFFFFFFFFFFFFFFFFF72
:102E7000FFFFFFFFFFFFFFFFFFFFFFFFFFFFFFFF62
:102E8000FFFFFFFFFFFFFFFFFFFFFFFFFFFFFFFF52
:102E9000FFFFFFFFFFFFFFFFFFFFFFFFFFFFFFFF42
:102EA000FFFFFFFFFFFFFFFFFFFFFFFFFFFFFFFF32
:102EB000FFFFFFFFFFFFFFFFFFFFFFFFFFFFFFFF22
:102EC000FFFFFFFFFFFFFFFFFFFFFFFFFFFFFFFF12
:102ED000FFFFFFFFFFFFFFFFFFFFFFFFFFFFFFFF02
:102EE000FFFFFFFFFFFFFFFFFFFFFFFFFFFFFFFFF2
:102EF000FFFFFFFFFFFFFFFFFFFFFFFFFFFFFFFFE2
:102F000032335950323730465542314B30303036FB
:102F1000C0CFFEFF0000030080240000000000007E
:102F20000301FF59001C0418FFFFFF01FFFFFFFF13
:102F300087FFFFFFFFFFFFFFFFFFFFFFFFFFFFFF19
:102F4000FFFFFFFFFFFFFFFFFFFFFFFFFFFFFFFF91
:102F5000FFFFFFFFFFFFFFFFFFFFFFFFFFFFFFFF81
:102F6000FFFFFFFFFFFFFFFFFFFFFFFFFFFFFFFF71
:102F7000FFFFFFFFFFFFFFFFFFFFFFFFFFFFFFFF61
:102F8000FFFFFFFFFFFFFFFFFFFFFFFFFFFFFFFF51
:102F9000FFFFFFFFFFFFFFFFFFFFFFFFFFFFFFFF41
:102FA000FFFFFFFFFFFFFFFFFFFFFFFFFFFFFFFF31
:102FB000FFFFFFFFFFFFFFFFFFFFFFFFFFFFFFFF21
:102FC000FFFFFFFFFFFFFFFFFFFFFFFFFFFFFFFF11
:102FD000FFFFFFFFFFFFFFFFFFFFFFFFFFFFFFFF01
:102FE000FFFFFFFFFFFFFFFFFFFFFFFFFFFFFFFFF1
:102FF000FFFFFFFFFFFFFFFFFFFFFFFFFFFFFFFFE1
:103000004A34504103333137434C19007863025638
:10301000FFFF1001BA78BA65FFFFFF9AFFFFFFFFBD
:103020006AEE9511FFFFFFFFFFFFFFFFDFEA2015AC
:10303000BFDE4021A9D95626FFFFFFFF1B3FE4C09A
:10304000FFFFFFFFFFFFFFFFFFFFFFFFFFFFFFFF90
:10305000FFFFFFFFFFFFFFFFFFFFFFFFFFFFFFFF80
:10306000FFFFFFFFFFFFFFFFFFFFFFFFFFFFFFFF70
:10307000FFFFFFFFFFFFFFFFFFFFFFFFFFFFFFFF60
:10308000FFFFFFFFFFFFFFFFFFFFFFFFFFFFFFFF50
:10309000FFFFFFFFFFFFFFFFFFFFFFFFFFFFFFFF40
:1030A000FFFFFFFFFFFFFFFFFFFFFFFFFFFFFFFF30
:1030B000FFFFFFFFFFFFFFFFFFFFFFFFFFFFFFFF20
:1030C000FFFFFFFFFFFFFFFFFFFFFFFFFFFFFFFF10
:1030D000FFFFFFFFFFFFFFFFFFFFFFFFFFFFFFFF00
:1030E000FFFFFFFFFFFFFFFFFFFFFFFFFFFFFFFFF0
:1030F000FFFFFFFFFFFFFFFFFFFFFFFFFFFFFFFFE0
:10310000AAD85527FFFFFFFF1F00E0FFFFFFFFFFCB
:10311000FFFFFFFFFFFFFFFFFFFF0000FFFFFFFFBD
:10312000FFFFFFFFFFFFFFFFFFFFFFFFFFFFFFFFAF
:10313000FFFFFFFFFFFFFFFFFFFFFFFFFFFFFFFF9F
:10314000FFFFFFFFFFFFFFFFFFFFFFFFFFFFFFFF8F
:10315000FFFFFFFFFFFFFFFFFFFFFFFFFFFFFFFF7F
:10316000FFFFFFFFFFFFFFFFFFFFFFFFFFFFFFFF6F
:10317000FFFFFFFFFFFFFFFFFFFFFFFFFFFFFFFF5F
:10318000FFFFFFFFFFFFFFFFFFFFFFFFFFFFFFFF4F
:10319000FFFFFFFFFFFFFFFFFFFFFFFFFFFFFFFF3F
:1031A000FFFFFFFFFFFFFFFFFFFFFFFFFFFFFFFF2F
:1031B000FFFFFFFFFFFFFFFFFFFFFFFFFFFFFFFF1F
:1031C000FFFFFFFFFFFFFFFFFFFFFFFFFFFFFFFF0F
:1031D000FFFFFFFFFFFFFFFFFFFFFFFFFFFFFFFFFF
:1031E000FFFFFFFFFFFFFFFFFFFFFFFFFFFFFFFFEF
:1031F000FFFFFFFFFFFFFFFFFFFFFFFFFFFFFFFFDF
:10320000E80E0000FFFFFFFFEB2E0000FFFFFFFFB7
:10321000EB500000FFFFFFFF1B710000FFFFFFFFEF
:103220001F910000FFFFFFFFB1030000FFFFFFFF42
:103230006B040000FFFFFFFF1E1E4800FFFFFFFFA3
:103240001E002001FFFFFFFFB0360000FFFFFFFF61
:10325000B0360000FFFFFFFFA00F2003FFFFFFFFBE
:103260003C3C9000FFFFFFFF3C004002FFFFFFFFE0
:10327000606D0000FFFFFFFF606D0000FFFFFFFFBC
:10328000401F4006FFFFFFFF78782001FFFFFFFF90
:1032900078008004FFFFFFFFC0DA0000FFFFFFFFA0
:1032A000C0DA0000FFFFFFFF803E800CFFFFFFFF42
:1032B000A6A68F01FFFFFFFFA6003906FFFFFFFF55
:1032C0006C2E0100FFFFFFFF6C2E0100FFFFFFFFD0
:1032D00068564811FFFFFFFFB4B4B001FFFFFFFFC6
:1032E000B400C006FFFFFFFF20480100FFFFFFFF03
:1032F00020480100FFFFFFFFC05DC012FFFFFFFF7E
:1033000055AAAA55FFFFFFFFAA5555AAFFFFFFFFC9
:1033100055AAAA55FFFFFFFFAA5555AAFFFFFFFFB9
:103320000100FEFFFFFFFFFF883877C7FFFFFFFFA9
:10333000FFFFFFFFFFFFFFFFFFFFFFFFFFFFFFFF9D
:10334000E52E1AD1FFFFFFFFFB0004FFFFFFFFFF89
:103350000000FFFFFFFFFFFF0200FDFFFFFFFFFF79
:103360000000FFFFFFFFFFFFFFFFFFFFFFFFFFFF6B
:103370001E1AE1E5FFFFFFFFF80307FCFFFFFFFF59
:1033800090006FFFFFFFFFFF0000FFFFFFFFFFFF49
:10339000CD0332FCFFFFFFFF890076FFFFFFFFFF39
:1033A0000F00F0FFFFFFFFFFB1034EFCFFFFFFFF29
:1033B0006B0494FBFFFFFFFF64009BFFFFFFFFFF19
:1033C0000000FFFFFFFFFFFF0000FFFFFFFFFFFF09
:1033D000FFFFFFFFFFFFFFFFFFFFFFFFFFFFFFFFFD
:1033E000FFFFFFFFFFFFFFFFFFFFFFFFFFFFFFFFED
:1033F00061801806FFFFFFFFFF0F00F0FFFFFFFFD8
:00000001FF
