:020000040000FA
:100000007888FF1F21030000EB140000D90A0000CC
:10001000E3140000F9030000CD2000000000000000
:10002000000000000000000000000000E1170000D8
:10003000950A00000000000019170000E9170000F1
:10004000E10A0000F10A0000010B0000110B0000A2
:10005000210B0000310B0000410B0000510B000090
:10006000610B0000710B0000810B0000910B000080
:10007000A10B0000B10B0000C10B0000D10B000070
:10008000E10B0000F10B0000010C0000110C00005E
:10009000210C0000310C0000410C0000510C00004C
:1000A000610C0000710C0000810C0000910C00003C
:1000B000A10C0000B10C0000C10C0000D10C00002C
:1000C000E10C0000F50C0000090D00001D0D000002
:1000D000310D0000450D0000590D00006D0D0000B0
:1000E000810D0000950D0000A90D0000BD0D000060
:1000F000D10D0000E50D0000F90D00000D0E00000F
:10010000210E0000350E0000490E00005D0E0000BB
:10011000710E0000850E0000990E0000AD0E00006B
:10012000C10E0000D50E0000E90E0000FD0E00001B
:10013000110F0000250F0000390F00004D0F0000C7
:10014000610F0000750F0000890F00009D0F000077
:10015000B10F0000C50F0000D90F0000ED0F000027
:100160000110000015100000291000003D100000D3
:100170005110000065100000791000008D10000083
:10018000A1100000B5100000C9100000DD10000033
:10019000F110000005110000191100002D110000E0
:1001A0004111000055110000691100007D1100008F
:1001B00091110000A5110000B9110000CD1100003F
:1001C000E1110000F5110000091200001D120000ED
:1001D0003112000045120000591200006D1200009B
:1001E0008112000095120000A9120000BD1200004B
:1001F000D1120000E5120000F91200000D130000FA
:100200002113000035130000491300005D130000A6
:10021000711300008513000099130000AD13000056
:10022000C1130000D5130000E9130000FD13000006
:100230001114000025140000391400004D140000B2
:100240006303000063030000630300006303000016
:100250006303000063030000630300006303000006
:1002600063030000630300006303000063030000F6
:1002700063030000630300006303000063030000E6
:1002800000F002F800F03CF80AA090E8000C82446C
:100290008344AAF10107DA4501D100F031F8AFF249
:1002A000090EBAE80F0013F0010F18BFFB1A43F054
:1002B000010318477C2000009C200000103A24BF56
:1002C00078C878C1FAD8520724BF30C830C144BFBB
:1002D00004680C60704700000023002400250026FD
:1002E000103A28BF78C1FBD8520728BF30C148BF99
:1002F0000B6070471FB502F001F81FBD10B510BDAF
:1003000000F01EF91146FFF7F5FF01F03DFF00F088
:1003100069F803B4FFF7F2FF03BC01F011FF00001E
:1003200013484FF07701016012484FF077010160E8
:1003300011484FF4885101600D484FF0760101607B
:100340000C484FF0760101600C4880470C4800478C
:10035000FEE7FEE7FEE7FEE7FEE7FEE7FEE7FEE775
:10036000FEE7FEE707480849084A094B70470000C6
:10037000040805400C08054000080540AD180000C1
:10038000810200007882FF1F7888FF1F7884FF1F9A
:100390007884FF1F704700000FB4044910B503AA0A
:1003A000029800F009F810BC5DF814FB0C80FF1FE8
:1003B0007047704770477047074B70B50D467B44D8
:1003C00000F0ABF80446284600F008F810B14FF0F2
:1003D000FF3070BD204670BD831D0000007B00F023
:1003E000800070470446AFF300802046FFF791FF7E
:1003F000004870471882FF1F10B5AFF3008010BD92
:10040000FFFFFFFFFFFEFFFFFFFFFFFFFFFFFFFFFD
:10041000FFFFFFFFFFFFFFFFFFFFFFFFFFFFFFFFEC
:1004200053EA020C00F069802DE9F04B4FF0000612
:10043000002B1FBFB3FA83F503FA05F424FA05F67F
:100440005E4012BF1643B2FA82F502FA05F4C5F116
:1004500020051EBF22FA05FC44EA0C04203556EAAA
:10046000044C4FEA144418BF641C4FF000084FF0CE
:100470000009904271EB030C39D3002919BFB1FA7E
:1004800081F701FA07F6B0FA80F700FA07F6C7F12C
:1004900020071EBF20FA07FC46EA0C062037B6FBF1
:1004A000F4FCA7EB0507103F07F01F0BCBF120066C
:1004B0000CFA0BFB2CFA06F644BFB3460026202F9D
:1004C000A4BF5E464FF0000B5BEA060C08BF4FF07E
:1004D000010B19EB0B09ABFB027C48EB0608C01BB8
:1004E00006FB02CC0BFB03CC71EB0C01C1E70B4606
:1004F000024641464846BDE8F08B13B54FF0000078
:100500004FF00001AFF30080BDE81C4070470000D1
:1005100001694A1C02610878704700B58FB0CDE9C7
:1005200001310021059105497944CDE903101146B7
:10053000684600F02AF80FB000BD0000E5FFFFFF9D
:100540007546FFF755FFAE4605006946534620F055
:100550000700854618B020B5FFF704FFBDE820402E
:100560004FF000064FF000074FF000084FF0000B6F
:1005700021F00701AC46ACE8C009ACE8C009ACE822
:10058000C009ACE8C0098D4670472DE9F041064628
:100590000024D6E90170F5688046304603E0414604
:1005A000B847641C3046A8470028F8D12046BDE86B
:1005B000F08100000F49002808BF91F83C0016D0D8
:1005C000012802BF91F83C00C0F3C0007047022828
:1005D00002BF91F83C00C0F340107047032811BFE0
:1005E00091F8410091F83C00C0F38010704700F092
:1005F000010070470040054081B003001C494FF0E6
:1006000000000090B1F8FE234AF2015C42EA0C02BD
:10061000A1F8FE230DD091F82A0020F0010081F806
:100620002A00092091F83C20C2F3401282B1002038
:1006300014E091F8262002F00702052A08BF0120E5
:100640000CD091F82A2042F0010281F82A2005E01E
:10065000009A521C0092B2F5805FE3D3B1F8FE23FA
:1006600022F0010242F42542A1F8FE2301B07047B6
:1006700000400540002808BF70471C49B1F8FE2320
:100680004AF201531A43A1F8FE230278531ED1F80F
:10069000002163F31F72C1F800210279531ED1F8C3
:1006A000002163F31B62C1F80021027A531ED1F8C6
:1006B000002163F31752C1F800218289531ED1F83B
:1006C000002163F31022C1F80021007C421ED1F802
:1006D000000162F30400C1F80001B1F8FE0320F04C
:1006E000010040F42540A1F8FE037047004005409A
:1006F0000B49B1F8FE234AF201531A43A1F8FE2335
:10070000D1F8002160F3C712C1F80021B1F8FE034F
:1007100020F0010040F42540A1F8FE0370470000DE
:1007200000400540F0B486B0354D002100912968A5
:10073000029169680391A9680491E96805913149BA
:100740002961314A92F82610022701F0070101249D
:1007500040F20126052918BF052816D12B4929602A
:10076000C9126960A960E9600094CDE900740221B2
:10077000331B00BFDDF800C0891C0CF1010C0CF12B
:10078000010CCDF800C08B42F4DCB2F8FE134AF243
:1007900001531943A2F8FE1392F8261060F30201E8
:1007A00082F82610B2F8FE0320F0010040F4254044
:1007B000A2F8FE030094CDE900740220311B009AD8
:1007C000801C521C521C00928142F8DC0298286066
:1007D000039868600498A8600598E8600C48286150
:1007E0000094CDE900740220311B009A801C521C39
:1007F000521C00928142F8DC06B0F0BC00F0F8BF59
:10080000008004400100A5A500400540EEFAFFFF6E
:100810000000A5A5F0B486B0404A002100911168FF
:1008200002915168039191680491D16805913C4906
:100830001161002802BF06B0F0BC7047394B93F835
:100840002610022701F00701012540F201260529A3
:1008500012D135491160C91251609160D160009583
:10086000CDE900750221A6EB050C009C891C641CD7
:10087000641C00948C45F8DCB3F8FE134AF2015C6A
:1008800041EA0C01A3F8FE13817890F803C0447983
:1008900041EA0C1190F804C04FEA0C2C4CEA043CDD
:1008A00041EA0C0190F806C041EA0C4190F801C001
:1008B000007841EA0C5141EA006141EA0070186297
:1008C000B3F8FE0320F0010040F42540A3F8FE0336
:1008D0000095CDE900750220711B009B801C5B1CFC
:1008E0005B1C00938142F8DC029810600398506012
:1008F000049890600598D0600C4810610095CDE98F
:1009000000750220721B0099801C491C491C009133
:100910008242F8DC06B0F0BC704700000080044062
:100920000100A5A500400540EEFAFFFF0000A5A5C7
:1009300081B0030021494FF000000090B1F8FE2380
:100940004AF2015C42EA0C02A1F8FE230DD091F8B4
:10095000320020F0010081F83200092091F83C209B
:10096000C2F3C002D2B100201EE091F8262002F0AE
:100970000702032A10D0D1F8002112F0800F04BF23
:1009800091F82A2012F0010F06D091F8322042F09F
:10099000010281F8322007E0012005E0009A521C94
:1009A0000092B2F5805FD9D3B1F8FE2322F00102A4
:1009B00042F42542A1F8FE2301B0704700400540F3
:1009C000002808BF7047114AB2F8FE134AF20153DB
:1009D0001943A2F8FE130E4990F800C00B786CF38F
:1009E000C7130B7090F801C00B786CF386130B7073
:1009F0008378087863F305100870B2F8FE0320F0DE
:100A0000010040F42540A2F8FE0370470040054075
:100A10001044054010B41E4942F2107282B00968B9
:100A2000B1FBF2F3421E2FBF03F0010C02B010BC69
:100A300070470093180001931DD0B0F1004F22D2EF
:100A40000028D8BF00200ADD01216046BCF1010F5B
:100A500005DB009C491C641E00948842F9DA019968
:100A6000401C491C884206DA009C801C641E641EDF
:100A700000948842F8DB0098401E0090521ED8D2A5
:100A800002B010BC70470098401E0090FCD1F2E705
:100A90000480FF1F10B5AFF3008010BD044801684B
:100AA000012918BF704743F21021016001607047AF
:100AB0000004014002490A6860F307120A607047A7
:100AC00008040140034840F22311016043F2102161
:100AD000016070470004014010B5AFF3008010BD05
:100AE00002480068002808BF704700471880FF1FB1
:100AF00002484068002808BF704700471880FF1F61
:100B000002488068002808BF704700471880FF1F10
:100B10000248C068002808BF704700471880FF1FC0
:100B200002480069002808BF704700471880FF1F6F
:100B300002484069002808BF704700471880FF1F1F
:100B400002488069002808BF704700471880FF1FCF
:100B50000248C069002808BF704700471880FF1F7F
:100B60000248006A002808BF704700471880FF1F2E
:100B70000248406A002808BF704700471880FF1FDE
:100B80000248806A002808BF704700471880FF1F8E
:100B90000248C06A002808BF704700471880FF1F3E
:100BA0000248006B002808BF704700471880FF1FED
:100BB0000248406B002808BF704700471880FF1F9D
:100BC0000248806B002808BF704700471880FF1F4D
:100BD0000248C06B002808BF704700471880FF1FFD
:100BE0000248006C002808BF704700471880FF1FAC
:100BF0000248406C002808BF704700471880FF1F5C
:100C00000248806C002808BF704700471880FF1F0B
:100C10000248C06C002808BF704700471880FF1FBB
:100C20000248006D002808BF704700471880FF1F6A
:100C30000248406D002808BF704700471880FF1F1A
:100C40000248806D002808BF704700471880FF1FCA
:100C50000248C06D002808BF704700471880FF1F7A
:100C60000248006E002808BF704700471880FF1F29
:100C70000248406E002808BF704700471880FF1FD9
:100C80000248806E002808BF704700471880FF1F89
:100C90000248C06E002808BF704700471880FF1F39
:100CA0000248006F002808BF704700471880FF1FE8
:100CB0000248406F002808BF704700471880FF1F98
:100CC0000248806F002808BF704700471880FF1F48
:100CD0000248C06F002808BF704700471880FF1FF8
:100CE0000348D0F88000002808BF70470047000084
:100CF0001880FF1F0348D0F88400002808BF704701
:100D0000004700001880FF1F0348D0F88800002823
:100D100008BF7047004700001880FF1F0348D0F845
:100D20008C00002808BF7047004700001880FF1F94
:100D30000348D0F89000002808BF70470047000023
:100D40001880FF1F0348D0F89400002808BF7047A0
:100D5000004700001880FF1F0348D0F898000028C3
:100D600008BF7047004700001880FF1F0348D0F8F5
:100D70009C00002808BF7047004700001880FF1F34
:100D80000348D0F8A000002808BF704700470000C3
:100D90001880FF1F0348D0F8A400002808BF704740
:100DA000004700001880FF1F0348D0F8A800002863
:100DB00008BF7047004700001880FF1F0348D0F8A5
:100DC000AC00002808BF7047004700001880FF1FD4
:100DD0000348D0F8B000002808BF70470047000063
:100DE0001880FF1F0348D0F8B400002808BF7047E0
:100DF000004700001880FF1F0348D0F8B800002803
:100E000008BF7047004700001880FF1F0348D0F854
:100E1000BC00002808BF7047004700001880FF1F73
:100E20000348D0F8C000002808BF70470047000002
:100E30001880FF1F0348D0F8C400002808BF70477F
:100E4000004700001880FF1F0348D0F8C8000028A2
:100E500008BF7047004700001880FF1F0348D0F804
:100E6000CC00002808BF7047004700001880FF1F13
:100E70000348D0F8D000002808BF704700470000A2
:100E80001880FF1F0348D0F8D400002808BF70471F
:100E9000004700001880FF1F0348D0F8D800002842
:100EA00008BF7047004700001880FF1F0348D0F8B4
:100EB000DC00002808BF7047004700001880FF1FB3
:100EC0000348D0F8E000002808BF70470047000042
:100ED0001880FF1F0348D0F8E400002808BF7047BF
:100EE000004700001880FF1F0348D0F8E8000028E2
:100EF00008BF7047004700001880FF1F0348D0F864
:100F0000EC00002808BF7047004700001880FF1F52
:100F10000348D0F8F000002808BF704700470000E1
:100F20001880FF1F0348D0F8F400002808BF70475E
:100F3000004700001880FF1F0348D0F8F800002881
:100F400008BF7047004700001880FF1F0348D0F813
:100F5000FC00002808BF7047004700001880FF1FF2
:100F60000348D0F80001002808BF70470047000080
:100F70001880FF1F0348D0F80401002808BF7047FD
:100F8000004700001880FF1F0348D0F80801002820
:100F900008BF7047004700001880FF1F0348D0F8C3
:100FA0000C01002808BF7047004700001880FF1F91
:100FB0000348D0F81001002808BF70470047000020
:100FC0001880FF1F0348D0F81401002808BF70479D
:100FD000004700001880FF1F0348D0F818010028C0
:100FE00008BF7047004700001880FF1F0348D0F873
:100FF0001C01002808BF7047004700001880FF1F31
:101000000348D0F82001002808BF704700470000BF
:101010001880FF1F0348D0F82401002808BF70473C
:10102000004700001880FF1F0348D0F8280100285F
:1010300008BF7047004700001880FF1F0348D0F822
:101040002C01002808BF7047004700001880FF1FD0
:101050000348D0F83001002808BF7047004700005F
:101060001880FF1F0348D0F83401002808BF7047DC
:10107000004700001880FF1F0348D0F838010028FF
:1010800008BF7047004700001880FF1F0348D0F8D2
:101090003C01002808BF7047004700001880FF1F70
:1010A0000348D0F84001002808BF704700470000FF
:1010B0001880FF1F0348D0F84401002808BF70477C
:1010C000004700001880FF1F0348D0F8480100289F
:1010D00008BF7047004700001880FF1F0348D0F882
:1010E0004C01002808BF7047004700001880FF1F10
:1010F0000348D0F85001002808BF7047004700009F
:101100001880FF1F0348D0F85401002808BF70471B
:10111000004700001880FF1F0348D0F8580100283E
:1011200008BF7047004700001880FF1F0348D0F831
:101130005C01002808BF7047004700001880FF1FAF
:101140000348D0F86001002808BF7047004700003E
:101150001880FF1F0348D0F86401002808BF7047BB
:10116000004700001880FF1F0348D0F868010028DE
:1011700008BF7047004700001880FF1F0348D0F8E1
:101180006C01002808BF7047004700001880FF1F4F
:101190000348D0F87001002808BF704700470000DE
:1011A0001880FF1F0348D0F87401002808BF70475B
:1011B000004700001880FF1F0348D0F8780100287E
:1011C00008BF7047004700001880FF1F0348D0F891
:1011D0007C01002808BF7047004700001880FF1FEF
:1011E0000348D0F88001002808BF7047004700007E
:1011F0001880FF1F0348D0F88401002808BF7047FB
:10120000004700001880FF1F0348D0F8880100281D
:1012100008BF7047004700001880FF1F0348D0F840
:101220008C01002808BF7047004700001880FF1F8E
:101230000348D0F89001002808BF7047004700001D
:101240001880FF1F0348D0F89401002808BF70479A
:10125000004700001880FF1F0348D0F898010028BD
:1012600008BF7047004700001880FF1F0348D0F8F0
:101270009C01002808BF7047004700001880FF1F2E
:101280000348D0F8A001002808BF704700470000BD
:101290001880FF1F0348D0F8A401002808BF70473A
:1012A000004700001880FF1F0348D0F8A80100285D
:1012B00008BF7047004700001880FF1F0348D0F8A0
:1012C000AC01002808BF7047004700001880FF1FCE
:1012D0000348D0F8B001002808BF7047004700005D
:1012E0001880FF1F0348D0F8B401002808BF7047DA
:1012F000004700001880FF1F0348D0F8B8010028FD
:1013000008BF7047004700001880FF1F0348D0F84F
:10131000BC01002808BF7047004700001880FF1F6D
:101320000348D0F8C001002808BF704700470000FC
:101330001880FF1F0348D0F8C401002808BF704779
:10134000004700001880FF1F0348D0F8C80100289C
:1013500008BF7047004700001880FF1F0348D0F8FF
:10136000CC01002808BF7047004700001880FF1F0D
:101370000348D0F8D001002808BF7047004700009C
:101380001880FF1F0348D0F8D401002808BF704719
:10139000004700001880FF1F0348D0F8D80100283C
:1013A00008BF7047004700001880FF1F0348D0F8AF
:1013B000DC01002808BF7047004700001880FF1FAD
:1013C0000348D0F8E001002808BF7047004700003C
:1013D0001880FF1F0348D0F8E401002808BF7047B9
:1013E000004700001880FF1F0348D0F8E8010028DC
:1013F00008BF7047004700001880FF1F0348D0F85F
:10140000EC01002808BF7047004700001880FF1F4C
:101410000348D0F8F001002808BF704700470000DB
:101420001880FF1F0348D0F8F401002808BF704758
:10143000004700001880FF1F0348D0F8F80100287B
:1014400008BF7047004700001880FF1F0348D0F80E
:10145000FC01002808BF7047004700001880FF1FEC
:1014600000B583B00020009001908DF800000120AD
:101470008DF804006A46C10300F04CF803B000BDCB
:1014800010B54FF40041012000F03AF8044901285A
:1014900004BF0A78002A087014BF0120002010BD84
:1014A0001480FF1F00B583B0002000900190012040
:1014B0008DF800008DF804006A46810300F02AF8D8
:1014C00003B000BD4FF48041012000F0B3B84FF4E9
:1014D0008041012000F0A4B84FF48041012000F0C9
:1014E000E3B810B5AFF3008010BD10B500F002F8FE
:1014F00010BD000001480068004700000880FF1F81
:10150000034A02EB00100068084018BF0120704732
:10151000003805402DE9F007404C4AF2015C0023F9
:10152000A4F800C00126271D04F106085FEA801513
:1015300006FA03F0084266D005EB830C0CEB0700BB
:1015400092F801A0B0F80090C4446AF38E39A0F874
:10155000009092F802A0B0F800906AF30C39A0F85D
:10156000009092F803A0B0F800906AF34929A0F81F
:10157000009092F804A0B0F800906AF38619A0F8E1
:10158000009092F806A0B0F800906AF38209A0F8E3
:10159000009092F805A0B0F800906AF30519A0F841
:1015A000009092F80090B9F1000F06D0B9F1010F48
:1015B0000ED0B9F1020F18D01DE0B0F8009029F458
:1015C0000049A0F80090B0F8009029F0020909E065
:1015D000B0F8009029F40049A0F80090B0F800900D
:1015E00049F00209A0F8009005E0B0F8009049F435
:1015F0000049A0F8009092F80790BCF8000069F349
:101600000820ACF80000581CC3B2102B90D34FF444
:1016100025402080BDE8F00700207047FC3B0540D6
:10162000034A02EB0010028811430180002070473A
:101630000A380540034A02EB00100288114301807A
:1016400000207047083805402DE9F001154D4AF299
:1016500001544FF0000C2C800127860105F106088B
:1016600007FA0CF008420ED006EB8C0040440488C8
:1016700062F3050404800488012B0CBF44F48074D9
:1016800024F4807404800CF1010000F0FF0CBCF124
:10169000100FE5D34FF425402880BDE8F00100206D
:1016A00070470000FC3B0540034A02EB0010028833
:1016B00011430180002070470C380540044A01297D
:1016C00051680CBF21EA00000843506070470000D9
:1016D000008004400D4810B5B0F8FE134AF20252E3
:1016E0001143A0F8FE130A4ACF211170094A1021B4
:1016F0001170B0F8FE1321F0020141F42541A0F869
:10170000FE130120FFF786F9002010BD00400540C0
:10171000024405400F44054010B5AFF3008010BDF2
:1017200070B402780023002A08BF04234ED0DFF8EB
:10173000A4C07721CCF80010274C216012F0010FD3
:10174000ACF1040106D00D6846783543867845EA49
:1017500006150D60520812F0010F07D04578867803
:1017600045EA06150E6846EA05250D60520812F096
:10177000010F07D04578867845EA06150E6846EAD7
:1017800005450D60520812F0010F07D042788578A8
:1017900042EA05120D6845EA02620A60017811F01A
:1017A000020F0E4909D0C5780A6865F319620A600C
:1017B0000279086862F3104003E04279086862F336
:1017C000000008607620CCF80000206070BC18464D
:1017D00070470000040805400C0805400808054053
:1017E00010B5AFF3008010BD10B5AFF3008010BD91
:1017F000284810B4006810F0010F274814BF27498B
:1018000027490160274991F82620DFF89CC002F0A3
:1018100007024FF40043062A24BF10BC7047DFE8DC
:1018200002F003050905090C01682FE0C0F804C0A7
:1018300010BC7047436010BC7047D1F80021C2F360
:10184000C014D1F80021C2F30823D1F80021D1F847
:101850000011120F01F01F0184B1002C04BF10BC55
:101860007047491CD0F800C05B1CBCFBF1F1594328
:10187000521CB1FBF2F1416010BC7047491CBCFB2B
:10188000F1F15B1C5943521CB1FBF2F1416010BCF9
:1018900070470000840601400080FF1F0024F40010
:1018A000002D31010040054000127A000348016814
:1018B00041F470010160FFF79BBF000088ED00E07C
:1018C0000423A0F1804C81B0BCF5E83C1CBFA0F122
:1018D000804CBCF5EA3C0AD0A0F1804CBCF5043C3D
:1018E0001CBFA0F1804CBCF5053C40F016810023E4
:1018F0000F2980F01181DFE801F0080C12161A1E82
:10190000222E32262AFDFBFAF900C16862F3820119
:1019100002E0C16862F34511C16000F0FEB8C16821
:1019200062F3C301F8E7C16862F3C711F4E7C16865
:1019300062F30001F0E7C16862F34101ECE7C168BE
:1019400062F30411E8E7C16862F38A21E4E7C16841
:1019500062F39E71E0E7C16862F38611DCE7C1685B
:10196000DDF800C061F3000CCDF800C0C1684FEA9B
:10197000510C00996CF341010091C1684FEA910C40
:1019800000996CF382010091C1684FEAD10C009973
:101990006CF3C3010091C1684FEA111C00996CF30C
:1019A00004110091C1684FEA511C00996CF3451174
:1019B0000091C1684FEA911C00996CF38611009167
:1019C000C1684FEAD11C00996CF3C711009181895D
:1019D0004FEA112C00996CF308210091C1684FEA7D
:1019E000512C00996CF349210091C1684FEA912C68
:1019F00000996CF38A21009181894FEAD12C0099DA
:101A00006CF3CB210091C1684FEA113C00996CF353
:101A10000C31009181894FEA513C00996CF34E31B1
:101A20000091C1684FEAD13C00996CF3CF3100912D
:101A3000C1684FEA114C00996CF310410091C168E4
:101A40004FEA514C00996CF351410091C1684FEA43
:101A5000914C00996CF392410091C1684FEAD14CCE
:101A600000996CF3D3410091C1684FEA115C009971
:101A70006CF314510091C1684FEA515C00996CF30A
:101A800057510091C1684FEA116C00996CF31861CD
:101A90000091C1684FEA516C00996CF35B61009151
:101AA000C1684FEA117C00996CF31C710091C16808
:101AB0004FEA517C00996CF35D710091C1684FEA67
:101AC000917C00996CF39E710091C1684FEAD17CC2
:101AD00000996CF3DF710091009962F3C3010091EA
:101AE000009962F3C7110091009915E70FE00AE031
:101AF00004E0FFE7C16862F35D710DE7016962F31D
:101B00000001016109E0416962F3451102E04169A8
:101B100062F34921416100E00423184601B0704797
:101B20002DE9F04FBC4B0425DFF8F0C2BC4EBD4F91
:101B300085B00446984218BF644504D0B44218BF2B
:101B4000BC4240F064816069B84A10F0200FDFF8B1
:101B5000D88212684FF00100B0EE001AF7EE000ACA
:101B60007FD0B34D4FF0FF3995E8204C8DE8204CE5
:101B700004259C4218BF644504D0B44218BFBC423F
:101B800040F04581D8F82030C3F3021300FA03F384
:101B9000B2FBF3F2A3699B075B0F9840B2FBF0F234
:101BA000002A00F03481606900EE101AC0F3425040
:101BB0003DF81030F8EE401A00EE103AB8EE400A48
:101BC00021EE800A20EE011A00EE102AF8EE401AEB
:101BD00081EE810A30EE600AFCEEC00AB5EEC00A62
:101BE00010EE906AF1EE10FAC0F21181FF2E00F2B1
:101BF0000E8100EE906ADFF83CC20025F8EE600A24
:101C000030EE600A10EE100A60457DDD16F1010C21
:101C1000ACFB0179002040F1000808FB01910CFBAE
:101C20000011A7FB03C801FB038107FB0010400262
:101C300040EADC514FEA4C200023FEF7F1FBB0F103
:101C40008009B9F17F0F6CD90425E0E009E0E0607C
:101C5000A06869F30600A060A06866F30F20A0608A
:101C6000D5E0E5684FF0FF3915F0807F4FF00405AF
:101C70005FD09C4218BF644503D0B44218BFBC4239
:101C80007ED1D8F82030C3F3021300FA03F3B2FB7D
:101C9000F3F2A3699B075B0F9840B2FBF0F2002AB6
:101CA0006ED000EE101AB1EE001AB8EE400A20EE27
:101CB000011A00EE102AF8EE401A81EE810A30EE89
:101CC000600AFCEEC00AB5EEC00A10EE906AF1EEB2
:101CD00010FA55DBFF2E53D800EE906A554B0025C5
:101CE000F8EE600A30EE600A10EE100A98421CDD31
:101CF000002016F1010CACFB013840F1000707FB96
:101D000001810CFB001000E00FE0800240EA9351DB
:101D100098020023FEF784FBB0F18009B9F17F0F30
:101D200092D8E06840F0005091E7E06820F0005061
:101D30008DE79C4218BF644503D0B44218BFBC4233
:101D400065D1D8F82030C3F3021300FA03F3B2FBD5
:101D5000F3F2A3699B075B0F9840B2FBF0F27AB1F4
:101D6000E06800EE101AF2EE001AC0F3C033B8EECD
:101D7000400A60EE211A00EE103AB8EE400A00E088
:101D800045E031EE400A21EE801A00EE102AF8EE0E
:101D9000401A81EE810A30EE600AFCEEC00AB5EE10
:101DA000C00A10EE906AF1EE10FA30DBFF2E2ED84A
:101DB00000EE906ADFF87CC00025F8EE600A30EE95
:101DC000600A10EE100A6045AFDD0020D3F1020377
:101DD00060EB000C16F10109A3FB097A0CFB09ACBE
:101DE00040F1000803FB08CCA7FB01380CFB018184
:101DF00007FB0010C00240EA5351D8020023FEF74F
:101E00000FFBB0F18009B9F17F0F8AD91CE705B04B
:101E10002846BDE8F08F000000D0014000D401400A
:101E20000010024000140240004005400480FF1FE3
:101E300008230000ACC5273784B00022039200922B
:101E4000029201920423A0F1804CBCF5E83C1CBF37
:101E5000A0F1804CBCF5EA3C0AD0A0F1804CBCF566
:101E6000043C1CBFA0F1804CBCF5053C40F029812E
:101E7000002900F02681944BC360026142614FF655
:101E8000FF7383608261019A22F020020192009A1E
:101E900022F0807200924B78039A63F3010203925E
:101EA0008B78009A63F30C320092CB78009A63F33C
:101EB0001C7200920B79029A63F34D3202920B78F6
:101EC000029A63F3CC2202924A79002A04BF009A54
:101ED00022F480620BD0012A02D0022A09D010E03D
:101EE000009A22F400720092009A42F480620092FA
:101EF00007E0009A42F400720092009A42F4806275
:101F000000920B7A019A63F349220192CB79009AED
:101F100063F3DF7200928A79009962F3CF31009106
:101F20000399826961F301028261039981610299D7
:101F3000026961F300020261BDF808100182029992
:101F4000CA0A016962F3CC21016102994A0B016955
:101F500062F34D310161BDF80910A0F811109DF830
:101F60000B10C1749DF80410017501994A0941696B
:101F700062F345114161BDF80410818201994A0A5A
:101F8000416962F349214161BDF80510A0F81510BF
:101F900001994A0D416962F3575141619DF807105B
:101FA000C1750099C26861F30002C26000994A08D5
:101FB000C16862F34101C16000998A08C16862F397
:101FC0008201C1600099CA08C16862F3C301C1609F
:101FD00000990A09C16862F30411C16000994A09B5
:101FE000C16862F34511C16000998A09C16862F352
:101FF0008611C1600099CA09C16862F3C711C16046
:102000009DF80110417300994A0AC16862F34921A1
:10201000C16000998A0AC16862F38A21C1609DF893
:102020000110417300990A0BC16862F30C31C16061
:102030009DF8011041730099CA0BC16862F3CF315A
:10204000C16000990A0CC16862F31041C160009937
:102050004A0CC16862F35141C1609DF8021081735E
:102060000099CA0CC16862F3D341C16000990A0D9E
:10207000C16862F31451C1609DF802108173009928
:102080000A0EC16862F31861C1609DF80310C17344
:1020900000990A0FC16862F31C71C16000994A0F70
:1020A000C16862F35D71C16000998A0FC16862F313
:1020B0009E71C1600099CA0FC16862F3DF71C1608F
:1020C0000023184604B0704700001B8010B5AFF322
:1020D000008010BD30B504460023202283B01101DA
:1020E0001846FFF7B1FA124AD2E900019268CDE929
:1020F0000001012102920806FFF7E0FA0D4D694642
:102100002846FFF799FE00B1FEE721462846FFF773
:1021100007FD00B1FEE7012202212846FFF7D0FBB0
:10212000054806490068B0FBF4F0086003B030BD14
:102130001823000000D001400480FF1F1080FF1F03
:10214000704700000F4A81B00D49126800F0FF0C83
:102150000092521E00920A68009BC2F3C01223B183
:10216000002A08BF1A46F4D005E0002A02BF4FF04B
:10217000FF3001B07047C1F804C001B070470000E3
:1021800000D001401080FF1F8CB0002406940794FB
:102190000194012602948DF8184002278DF81960E9
:1021A0008DF81C700A94039404948DF81A408DF8ED
:1021B0001D7025460594089409948DF81B608DF8D0
:1021C0001E6006A8FEF726FB8DF829508DF82A70B0
:1021D0008DF828600AA8FEF7F3FB0120FEF7A8FBA4
:1021E0000F208DF820008DF821608DF8226008A85E
:1021F000FFF796FAFEF766FC0520FEF75BFCFEF79C
:102200004DFC3220CDE90406019702970397002088
:10221000FEF76EFA01A8FEF72DFA0120FEF7ECF9A1
:102220000220FEF7C7F90128FAD1FFF753FA05207B
:10223000FEF778FAFFF736F94FF4E130FFF74AFF7F
:10224000FFF70EF923A0FEF7A7F8264D0A20FEF7A8
:10225000E1FB601CC4B2A5FB041000096FF07C0117
:10226000484314EB400004BF0024FFF735F9FFF7A3
:1022700007F90028EAD11CA0FEF78EF8FFF72CF929
:10228000FFF725F96420FEF7C5FBFFF71BF9642073
:10229000FEF7C0FBFFF71BF96420FEF7BBFBFFF75F
:1022A00011F96420FEF7B6FBFFF711F96420FEF781
:1022B000B1FBFFF707F96420FEF7ACFBFFF707F966
:1022C0006420FEF7A7FBFFF7FDF86420FEF7A2FBF2
:1022D000BCE7000068633332663436306A65746187
:1022E0000D0A0000D34D62106B6579207072657322
:1022F00073202E2E2E200D0A000000004FF040709B
:10230000E1EE100A70470000200040005D008000F0
:10231000BA00000174010002000000000000010189
:1023200000000000000000000000010100000000AB
:10233000502300000080FF1F18000000BC020000B6
:10234000682300001880FF1F60080000D80200000A
:102350000024F40000127A000000000000000000D9
:102360000000000001000000FFFFFFFFFFFFFFFF74
:10237000FFFFFFFFFFFFFFFFFFFFFFFFFFFFFFFF6D
:00000001FF
