:020000040800F2
:1000000000000020D5000008DD000008DF00000827
:1000100000000000000000000000000000000000E0
:10002000000000000000000000000000E1000008E7
:100030000000000000000000E3000008E5000008E8
:10004000000000000000000000000000E7000008C1
:10005000E7000008E7000008E7000008E7000008E4
:100060000000000000000000000000000000000090
:10007000E7000008E7000008E700000800000000B3
:1000800000000000E700000800000000E700000892
:10009000000000000000000000000000E700000871
:1000A00000000000E700000800000000E700000872
:1000B0000000000000000000000000000000000040
:1000C0000348854600F014F800480047550400082E
:1000D000000000200448804704480047FEE7FEE790
:1000E000FEE7FEE7FEE7FEE7C5010008C1000008E5
:1000F000064C0125064E05E0E36807CC2B430C3C7B
:1001000098471034B442F7D3FFF7DEFF58040008D5
:10011000580400081349486B07221043486348639A
:100120000520000701683022914301600168102218
:10013000114301600023C3600B490A6803242403B0
:10014000A2430A600A680124240322430A60CB60A8
:10015000826904231A43826188690A031043886113
:10016000FEE7000000100240000400501349486BF5
:1001700007221043486348630520000701683022C6
:100180009143016001681022114301600023C360A4
:100190000B490A6803242403A2430A600A68012465
:1001A000240322430A60CB60826904231A438261DC
:1001B0008869402210438861FEE700000010024079
:1001C000000400509C484168090C090441604168E2
:1001D0009A4A126892B211434160416B072211435F
:1001E000416341639648016B0E252940052789022A
:1001F0003F07C9190B68026B1206120F5400032245
:10020000A24093430B60016B8E4E294089028919ED
:100210000B68026B1206120F54000322A240934394
:100220000B60016B2940890289190A68036B1B0660
:100230001B0F5C000223A3401A430A6000BF00BFEB
:1002400000BF00BF00BF00BF00BF00BF00BF00BFB6
:100250000124016B29408902C9190A69016B090649
:100260000B0F214699400A40016B23460906090FEE
:100270008B409A42EDD000BF00BF00BF00BF00BF5F
:1002800000BF00BF00BF00BF00BF016B2940890253
:10029000C9190A69016B09060B0F214699400A40EA
:1002A000016B23460906090F8B409A42EDD100BF2E
:1002B00000BF00BF00BF00BF00BF00BF00BF00BF46
:1002C00000BF016B29408902C9190B69016B2246E5
:1002D00009060E0FB2401340026B21461206120FA0
:1002E00091408B42EDD00020C043386056490860F1
:1002F00056490860564C0126002176076300032505
:100300002D0288008019046043608460C36004612A
:100310004361C3618461036244628362C4620363B4
:1003200044631031C4638363A942EAD30021880087
:1003300080190268A24272D1036042689A426ED16B
:1003400044608268A2426AD18360C2689A4266D1E0
:10035000C4600269A24262D1036142699A425ED1DD
:1003600044618269A2425AD18361C2699A4256D1DC
:10037000C461026A9A4252D10462426AA2424ED1D8
:100380004362826A9A424AD18462C26AA24246D1D8
:10039000C362026B9A4242D10463426BA2423ED1D5
:1003A0004363826B9A423AD18463C26BA24236D1D4
:1003B0001031C363A942BAD30021880080190268B2
:1003C0009A422CD14268A24229D182689A4226D10F
:1003D000C268A24223D102699A4220D14269A24254
:1003E0001DD182699A421AD1C269A24217D1026A0A
:1003F000A24214D1426A9A4211D1826AA2420ED11B
:10040000C26A9A420BD1026BA24208D1426B9A4255
:1004100005D1826BA24202D1C06B984201D0FFF796
:1004200079FE1031A942C8D3B8690121C905084332
:10043000B861FFF79BFE0000001002400001FF1FA3
:100440004002FF1F0C000050000400500008005044
:1004500055555555FEE70000FFFFFFFFFFFFFFFF6B
:00000001FF
