:020000041FFFDC
:1000000090860020ED00FF1F5D0AFF1F5F0AFF1FA3
:10001000610AFF1F630AFF1F650AFF1F000000003F
:10002000000000000000000000000000FF00FF1FB3
:100030000101FF1F000000000301FF1F670AFF1FEF
:100040000701FF1F0701FF1F0701FF1FD30AFF1F43
:100050000701FF1F0701FF1F0701FF1F0701FF1F08
:100060000701FF1F0701FF1F0701FF1F0701FF1FF8
:100070000701FF1F0701FF1F0701FF1F0701FF1FE8
:100080000701FF1F0701FF1F0701FF1F0701FF1FD8
:10009000CF0AFF1F0701FF1F0701FF1F0701FF1FF7
:1000A0000701FF1F0701FF1F0701FF1F0701FF1FB8
:1000B0000701FF1F0701FF1F0701FF1F0701FF1FA8
:1000C0000701FF1F0701FF1F0701FF1F0701FF1F98
:1000D0000701FF1F9F0AFF1FDFF80CD002F03CFE54
:1000E000004800471709FF1F9086002006488047F8
:1000F00006480047FEE7FEE7FEE7FEE7FEE7FEE70D
:10010000FEE7FEE7FEE7FEE77B03FF1FD900FF1FC8
:1001100030B50F23C27801780125F2B1144A126874
:1001200001F1E02102F4E062C2F5E062120AC2F1DC
:100130000404D3404278A24084781C401443220136
:1001400081F80024007800F01F018D4040098000F4
:1001500000F1E020C0F8005130BD01F01F008540E3
:100160004809800000F1E020C0F8805130BD000057
:100170000CED00E0084901208860704710B5064B7F
:10018000002201249C6003E050F822401C60521CB5
:100190008A42F9D3186810BD00300240064941F880
:1001A000D80F400848607047044908607047034909
:1001B000091D086070470000000042423C044242B2
:1001C00002E008C8121F08C1002AFAD17047704720
:1001D00070B50D46044600F08DFEE8BB2548264963
:1001E000844226D0001D844223D00868A04220D03B
:1001F0004868A0421DD08869A0421AD0001DA042C4
:1002000017D01E482044B0F57F7F12D91C482044E7
:1002100004280ED98868A04202D80869A04208D2F2
:100220004869A04205D0C869A04221D8086AA04206
:100230001ED3C868A0420BD1A8B2E943B0EB114F5E
:1002400016D1A90614D1402812D3B0F5007F0FD8DB
:100250002068401C0CD100E00AE02946204600F04E
:10026000A2F9062804D12068A84201D1002070BD5F
:10027000012070BD08F0FF1FB4F6FF1F000E00E064
:10028000300800E00000000800000000000000004E
:1002900000B50B46024600F02DFE40B90748D0F8E5
:1002A0000001401C05D006481044FF2801D8012059
:1002B00000BD10681860002000BD000000F0FF1FA6
:1002C000000F00E03C4A10B51368034313603B4B3A
:1002D0001C6844F010041C601C6844F002041C609C
:1002E0001C6844F080041C6054685460344CA14283
:1002F00004D1516841F4806151600DE0314CA1425C
:100300000AD1196841F003011960516841F4145190
:1003100051602E492C4B0B60516821F00301516054
:100320002B4900230B6653682A4C23405360012855
:100330001CD010688003FCD55068274BDB6818433D
:1003400040F4803050600120086610688001FCD5C0
:10035000506820F003005060506840F00200506088
:100360005068C0F381000228FAD110BD10688007E0
:10037000FCD55068194B1843E4E70F4810B54FF40B
:100380001F018160C16941F08051C1611448C16899
:1003900041F00101C1600A490120FFF793FF00F01D
:1003A00001FA104845F255510160062141600F499C
:1003B0000D48086010BD00000010024000200240FF
:1003C00000A24A0400D8B80500BADB0038000020BB
:1003D00000004242FFFFC0F71400002000000408A4
:1003E00000700040003000400000FF1F08ED00E0FA
:1003F00030B51D4A1168036899431160111D0B68DF
:100400000468A3430B60017911440B68046823431B
:100410000B60154B083319680468A14319601C1D53
:1004200021680568A94321604179102905D011444C
:100430000A68006802430A6030BD19680268114307
:100440001960216800680143216030BD064A0146F9
:1004500000201268044B0A4014331B680B4202D080
:10046000002A00D0012070470004014060485F4925
:1004700041606049416070475D48016941F0800119
:10048000016170475A490620CA68D20701D001208D
:100490007047CA68920701D502207047CA685207A0
:1004A00001D503207047CA68120701D504207047A0
:1004B000CA68D20601D505207047CA68520601D520
:1004C00007207047C968704700B50346FFF7DAFF99
:1004D00002E0FFF7D7FF5B1E012803D0002B00D1FD
:1004E000092000BD002BF4D1FAE770B5404C054659
:1004F000E06840F00F00E0604FF430263046FFF730
:10050000E3FF062810D1206940F0020020616561F8
:10051000206940F0400020613046FFF7D5FF216997
:1005200043F6FD721140216170BDF0B5304E0746B3
:10053000314DF068F1680840F0604FF430242046F7
:10054000FFF7C2FF06282DD12848B0602948B060C7
:10055000306940F020003061306940F04000306187
:100560002046FFF7B1FF062817D1306943F6DF7147
:1005700008403061306940F01000306100244FF4D1
:10058000005C57F8240001C56046FFF79DFF062870
:1005900003D1641CA4B2052CF3D3316943F6EF7286
:1005A00011403161F0BDF8B50646114C00200090B5
:1005B000E0680D4640F00F00E0604FF40057384609
:1005C000FFF782FF06280CD1206940F0010020616E
:1005D00035603846FFF778FF216943F6FE72114017
:1005E0002161F8BD0248C168C160704723016745B9
:1005F00000200240AB89EFCD00F8FF1F34480168AE
:1006000021F080010160704708B531490020009059
:100610000868400612D44FF0FF3008604B14086899
:10062000009A00F04000521C00929A4201D000282B
:10063000F5D00868400601D4002008BD012008BD9F
:1006400070B50446224E0025CA201836306053206B
:100650003060FFF7D9FFA8B11D48001F016821F0E5
:100660004001016001682268114301601848A168D7
:10067000001D01600168A28841EA02410160FFF7A4
:10068000BDFF0125FF203060284670BD08B502007F
:1006900010494FF000004FF0CA0300900B604FF07C
:1006A00053030B6006D00A48001F026842F48062C0
:1006B00002600120FF220A6008BD054902460020B1
:1006C0000968054B1940114200D001207047000015
:1006D0000C280040242800407F1F01002D4910B540
:1006E0008A682D498A4200D02C49800001EBC10262
:1006F00002EB0111B1FBF0F16422B1FBF2F0000159
:1007000003096FF01804634301EB8301322303EB09
:100710000111B1FBF2F101F01F01084420490880EA
:1007200010BD002903D0818941F4005181817047B7
:1007300010B5C1F3421301F01F040121A140012BA8
:1007400006D01430002A02D002680A43026010BDAD
:100750000C30F7E7C1F30801818070478088C0F34F
:100760000800704770B5034601F01F050126002000
:10077000C1F3421406FA05F2012C01D19C892240F2
:10078000090A8E4019883140002A02D0002900D081
:10079000012070BD1400002000A24A04006CDC029D
:1007A0000838014098494AF6AA2008607047974ADD
:1007B00040B1012805D1D0680843D060D068884393
:1007C000D060704710690843106110698843106158
:1007D00070472DE9F0478E4DDFF838828E4CA968BE
:1007E000ADF5006D4FF4BC72414501D1214600E0EA
:1007F0008A49684600F0F4FD894E0120872296F868
:100800000A12884386F80A02D6F8181204EBC024AC
:10081000491CC6F8181231460DF5BC6000F0E0FD29
:1008200040F2FF116846FFF7A9FCCDF8FC07FFF77F
:100830001DFEFFF7D7FE2046FFF757FE06280ED114
:10084000FFF7D0FE0027E9464FF4006A27F00301C6
:10085000E01959F80110FFF7A6FE062804D0012080
:100860000DF5006DBDE8F0873F1D5745EED3FFF74E
:1008700003FE96F80A0218B16A48A8600020EFE764
:10088000C5F80880FAE7624888228168644800F069
:10089000A7BD2DE9F04140F2FF1841465E48FFF741
:1008A0006DFC5E495D4A091F5F4D09685D4E584CFD
:1008B00088421AD041461046FFF760FC29688842FA
:1008C00000D0FEE7A660FFF7DEFFFFF782FF00B172
:1008D000FEE7BFF34F8F55480168554A01F4E061C8
:1008E00011430160BFF34F8FFEE74C484E49083873
:1008F000091F00680968474F884206D241461046E2
:10090000FFF73CFC2968884201D0A76000E0A660A0
:100910000020BDE8F0814549464808604648012767
:10092000076000F080F9394CA06944F204010843E3
:10093000A06143484149016041480C30016841F4DD
:1009400080610160606940F040006061FFF7A1FFD5
:100950004FF440613B48FFF711FC304920390968EA
:10096000884200D0FEE73848016821F0400101606C
:100970008C223649364800F029FD364E4FF4165089
:1009800086F80871FFF7AAFE00F08EF9204D1435A5
:100990002878012810D01E49022000224E600870DD
:1009A0000C310A7008712869FFF7F8FBE06940F420
:1009B0000000E06101F0E6FB2846274A124D4AF6A6
:1009C000AA242C60017801290ED001780029F8D1E1
:1009D00011680529F5D14FF480410120FFF7E7FEAA
:1009E0002C6000F018FAFBE74FF400010120FFF73C
:1009F000DEFE2C6096F808010228FAD102F008FA0F
:100A000086F80871F5E70000003000400010024051
:100A100000000020E035FF1F0030FF1F0038FF1FDF
:100A200060010020E03DFF1FFC3FFF1F0CED00E0D8
:100A30000400FA050005FA0540044242B0B88B886C
:100A4000040801400000FF1F004C024020F6FF1F79
:100A50000006002080030020300100207047FEE7E0
:100A6000FEE7FEE7FEE725480168491C02D0016861
:100A7000491C01602248007801280FD121490888CB
:100A8000401E80B208802049B1F84012814205D949
:100A90001E49002008804FF0E0210861704710B522
:100AA00040F225511A48FFF75DFE00280ED0184C81
:100AB000241D2088C0B200F00AF9164801780129E7
:100AC00004D121887F2901D10421017010BD00F0DB
:100AD0001BBD10B54FF0E0210020086107480068F9
:100AE00043F22C31B1FBF0F0054948600120FFF7DB
:100AF0005EFB09494FF48010086010BD28000020FB
:100B0000140000202C00002000F0FF1F3400002003
:100B1000003801402E0000201404014070B5584DEB
:100B2000584B00206E6803EB00121168A1F10A0413
:100B3000A6420DD96C680A318C4209D203EB001031
:100B40004068A8609068E860D0682861012070BDA6
:100B5000401CC0B20828E5D3002070BD70B54A4ED5
:100B600086B0F06940F00060F061484801240462FA
:100B700047480460002505602846FFF715FB4448F8
:100B800040300560306A40F4407030624048001FD9
:100B9000046003A8FFF754FD3E492005086000905B
:100BA0008DF8045008208DF805008DF80640684641
:100BB000FFF71EFC03208DF808008DF809508DF812
:100BC0000A508DF80B4002A8FFF7A2FA3248CA215A
:100BD000016053210160304924390C602E4A3114E0
:100BE0001C3A11602C4A8115103A1160FF210160F6
:100BF0004FF0E02041F61F414161284AF02182F880
:100C0000141D8561072101610120FFF73FFD1C488C
:100C100023494FF47A734268002A02D10A689A4243
:100C2000F9D306B070BD1CB50020009001901648A5
:100C3000016841F4803101604FF47042016801F4B1
:100C4000003101910099491C0091019911B9009955
:100C50009142F3D10068800311D5FFF77FFFFFF7C2
:100C60005DFF01280BD10F4908700548FF21017075
:100C70008168BDE81C404FF48030FFF723BB1CBDEA
:100C80001400002000F7FF1F0010024000000E4279
:100C90004004424214040140242800400FE000E0D8
:100CA000280000203C00002008B525208DF8000019
:100CB00001208DF801008DF802008DF803006846D0
:100CC000FFF726FA454942F22C00088008BD2DE9BD
:100CD000F0474FF0E02C00250446CCF81050404877
:100CE0000126018819B30227012924D0DFF8F490E6
:100CF000092924D999F8033099F802204FF00A08FD
:100D000008EB03231A4492B242808A4217D18046EC
:100D10004846891E00F098FB80F0FF00A04203D1F6
:100D2000314889F808710670A8F8005021E0AA2C13
:100D30000BD1068009E0552C07D1078005E009EBAF
:100D40000102491C02F8024C018028494FF6FF724B
:100D50000A804068401EB0F1807F0AD2CCF81400AF
:100D60002349F02081F8140DCCF818500720CCF856
:100D700010000020BDE8F08718490C390A881206D7
:100D8000FCD51649083908807047F0B504460F466F
:100D90000023FF25AA20FFF7EFFF5520FFF7ECFF08
:100DA00040F2031C09E0FE5C3046FFF7E5FF7540AA
:100DB000022C00D163465B1C9BB2641EA4B2F2D22B
:100DC000064B0C3B188820F0400018802846FFF79F
:100DD000D3FF18884006FCD5F0BD00000C38014058
:100DE0003400002080030020140000202C0000208C
:100DF0000FE000E0FE4B03EBC002D2F80426521CC9
:100E000008D0FC4B02228240186809B1104300E070
:100E10009043186070472DE9F041F84FF84E0120DB
:100E200087F808017078F44C002854D138784FF4D2
:100E30008045012808D12946FFF7B9FCF148006830
:100E4000FFF74CFCFFF730FF38784FF400014028E3
:100E500025D0502826D07278172A23D051283AD18D
:100E6000641EFDD20020FFF7A2FC29460120FFF7F7
:100E70009EFC00210846FFF7BDFF4FF0006460684C
:100E8000F060B060206880F3088801210020FFF73F
:100E9000B1FFDD480460B068BDE8F04100477A78F2
:100EA000022AD8D1641EFDD2D94AD8481060002049
:100EB000FFF77DFC29460120FFF779FCBFF34F8F38
:100EC000D148001D0168D34A01F4E061114301607B
:100ED000BFF34F8FFEE7BDE8F081C94810B504218C
:100EE000103001F0DFFEB0F15A3F01D0012010BDFB
:100EF000002010BD810705D1BD4949420844B0F525
:100F0000006F01D30120704700207047C17800684E
:100F100061F31F6070472DE9FC5F04460026BE4860
:100F2000009601960088154682B2A2F57F409A4647
:100F3000FF3801D14FF40072DFF8E0B29BF80030C7
:100F4000FF2B24D01801ADF80400DFF8D082A8F1FF
:100F5000100898F80000FF281CD0BDF804700601A6
:100F6000ADF80060D71BBE1BADF802600E0172D059
:100F7000DFF8A892CF4301EB072CA9F10C098CB143
:100F80000F011037012C20D0022C3AD04BE0ADF8E5
:100F90000460DAE7ADF80260BDF80460961BADF8B6
:100FA0000060E3E7D9F80010491C3CD1BDF80010FF
:100FB000B1422ED1FF2836D161464046FFF7F3FA01
:100FC000062845D1ADF800602DE0FF282BD1BDF8F3
:100FD000040080B1BDF80000B8421AD3C3EB121070
:100FE000401AC0B2C14300EB01214046FFF7DBFAD3
:100FF00006282DD102E01420BDE8FC9FADF8026068
:1010000011E0FF2B0FD1FF2803D1BDF80000B8423B
:1010100001D21320F0E761465846FFF7C4FA0628CC
:1010200016D1ADF804603DF81400B04201D0122092
:10103000E2E76F4901EBC400D0F80406401C0AD176
:1010400009EBC4004FF0AA31FFF7ADFA062802D031
:101050000120D1E7FFE7FF2D01D01F2D1ED8DFF8BB
:10106000C0810AF010090AF00107D8F80000011940
:1010700091F80F62FF2E03D0FF2D12D01520BBE791
:10108000FF2D3AD090F80F22AA4207D090F81022F4
:10109000AA4203D090F81102A84201D10220ABE786
:1010A0002E4691F81202102802D1B9F1000F22D079
:1010B00091F81502012800D1EFB1FFF7E4FB594880
:1010C000204480F80F6280F8129280F81572D8F8E8
:1010D0000000204490F80F12B14207D190F812227C
:1010E0004A4503D190F81502B84206D0FFF771FBCC
:1010F00018B1172080E716207EE700207CE72DE955
:10110000F043A9B00C46DDE93087064699461546FE
:10111000202120A801F015FE4148209424A9006850
:10112000CDF888D000EB06102390042081E821013F
:101130004FF01130279000F029F920A801F0ACFC05
:1011400080B920A801F00EFD60B901F05FFD00F04C
:101150001DF95FB104236A461946484600F062F95A
:10116000002800D0012029B0BDE8F0832A46694656
:10117000204600F035F9F3E72DE9FC47284A0D46F3
:101180000646262110680024031993F80F32AB425B
:1011900003D0641CE4B2032CF6D3FF2D7DD0032CC6
:1011A00006D2212E04D0031993F81232002B74D0EA
:1011B0002044904690F80B02032802D90720BDE88E
:1011C000FC87262969D100F0E1F801214FF055395B
:1011D000CDE9009109490A4B0831103304228A46AF
:1011E0002846FFF78CFF0F4F01282ED01CE000008F
:1011F00000F0FF1F004C0240FFFF0F0080030020A3
:101200003C0000203000002008ED00E0400300809A
:10121000201800400400FA05E8F7FF1F10F6FF1F32
:101220000800002060010020D8F800004FF00008FE
:10123000204490F80B02A8B1FFF725FB391981F87B
:101240000B82FFF7C6FA48BB0CE0FFF71CFB38190E
:1012500090F80B12491C80F80B12FFF7BAFAE8B9A4
:101260000620ACE700F092F8212E2FD100F08EF886
:101270004E49CDE900984C4B08220E462846FFF710
:101280003EFF01289BD000F081F8FFF7FCFA07EB46
:10129000051404222146504601E017E014E000F056
:1012A0009FF808215046FEF769FF40491839896ABE
:1012B000884201D0032082E704223146204600F014
:1012C0008FF8FFF786FA08B1172078E7002076E755
:1012D00030B5374B86B038CB8DE838000023039308
:1012E00004930593030702D00D2006B030BD0B0711
:1012F0002AD149B32F4B01441B88A3F57F44FF3CFF
:1013000020D04FF0006404EB832305932A4B1B7815
:10131000FF2B1BD0059C5B4204EB833302930493A9
:10132000254B103B1B78FF2B12D0009C04EB833322
:1013300001930393009B834202D8059B8B4209D201
:101340000C20D2E71D4BE0E70E20CEE7059BE5E73A
:10135000049BEDE71A4BDB691A4C234209D01A4B68
:10136000984206D2114B183B1B78322B01D0082033
:10137000BBE75DF82230834204D803A850F822006E
:10138000884201D20B20B0E70020AEE708B501216A
:10139000684601F087FC009801E0401E009010F0C4
:1013A000FF0FFAD108BD00004C0000209803002078
:1013B0008402FF1FE8F7FF1F10F6FF1F0000080858
:1013C00000200240020000800010000810B5002339
:1013D00002E0CC5CC4545B1C9342FAD3002010BDE5
:1013E00010B440EA01039B0702D010BC9200EDE765
:1013F00093080DD010C95B1E10C010C910C051F861
:10140000084B40F8084B51F8044C40F8044CF1D11B
:1014100012F0030203D008C9521E08C0FBD110BC51
:101420000020704730B5994207D1002308E050F8FA
:10143000234052F82350AC4201D0012030BD5B1C48
:101440008B42F4D3002030BD10B503460078012252
:1014500002E09C5C6040521C8A42FAD310BD00003E
:10146000244908B1244800E024480860704708B5C2
:1014700014208DF8000002208DF8010000208DF866
:10148000020001208DF803006846FEF741FE08BD0A
:101490000020E5E7F0B500230A24302537261F4653
:1014A00010E0B4EB107F02D905EB107C01E006EBF5
:1014B000107C01F813C001EB430C00015B1C8CF89D
:1014C0000170DBB29342ECD3F0BD0D4810B501685A
:1014D000001D0468001D006808180AD00822094988
:1014E000FFF7D8FF074920460422BDE8104010311D
:1014F000D0E710BD2018004040030090400300805A
:10150000F0F7FF1F740600202DE9F0414A4D88B026
:1015100000242868494E70807088494F39880840F7
:10152000000401D500F042FE708839884FF6FF387C
:101530000840400504D5C5F800804248406880470F
:10154000718838880140890402D54DF6FF71296001
:1015500071880140C80405D54EF6FF702860002050
:1015600000F0CAF970883988084000050BD5364864
:10157000007810B100F080F902E0022000F0BCF920
:101580004FF2FF702860718838880140890505D5C1
:101590004FF6FF5129603178491C31707188014044
:1015A000C80545D54FF6FF6028602348001D006838
:1015B0004FF00003000437D57068401C70607068FD
:1015C000032832D91C48001F016809072DD401687F
:1015D00089B2B1601D496A4601EB8407D7F8007CE7
:1015E000BFB242F82470641C082CF5D3B46844F0F0
:1015F0000104B460B468A4B20460B46824F00104C7
:10160000B460B468A4B2046028684005FCD5C5F88D
:101610000080002052F8204001EB8005A4B2C5F8FC
:10162000004C401C0828F5D37360072000F064F9D3
:1016300008B0BDE8F0810000445C00405C00002080
:1016400058010020B8000020340100200050004064
:1016500070B56D4CFFF739FF0025A57200F0ECF86E
:1016600001F0C8F9FFF703FF6848056070BD70B569
:1016700065490020674A887265491268664CC979D5
:101680005172206064485038016848F68F1211404A
:1016900041F400710160016848F6BF72114081F0A9
:1016A000200148F2800211430160216810205B4D47
:1016B000090405EBD1315A4E8860002016F82C1F22
:1016C00001F024F821685020090405EBD1310860AD
:1016D0003178002000F0FCFF002000F00EFF002019
:1016E00000F0DFFE002000F0D2FC48490120086035
:1016F00070BD4548807A002802D044490520086022
:10170000704742490420086070477047704710B521
:101710003D4910B14348006810BD43484A790378F9
:101720009A4212D10979407881420ED101F070FBC2
:101730003E49002008703E4806228178C07802EBBE
:1017400000200844334909680882002010BD10B504
:101750002D49334CCB788A78183C03EB0222226067
:10176000CA798B7903EB02226260498A521A92B2DB
:1017700018B12C480068084410BD26480068028251
:10178000002010BD234910B50A68117801F07F01CF
:10179000212914D1012802D0032807D00FE02548C1
:1017A000007802280BD1AFF2590101E0AFF2A1019C
:1017B00029B10020916150828847002010BD02208D
:1017C00010BD022070471649103900F031BA144993
:1017D000083900F02DBA0F490968C978082901D3E2
:1017E000002070470E4A303202EBC10100F020BAEF
:1017F000032901D8022801D9022070470020704730
:101800000020704700207047B00500203001002004
:10181000120600204C010020505C00400060004097
:10182000B8000020040000208003002014000020E5
:10183000890400200000002070B50120FFF710FE91
:101840004F4C012020604F4D002028802060201D3B
:101850000068002000F07FFD4FF4E05028802060F9
:10186000002070BD4648012101600021021D116069
:10187000032101600020704770B5414B00201968BA
:10188000414A8CB2414902EB8005D5F8005CADB20B
:1018900041F82050401C0828F5D344F480601860BB
:1018A00040F00100186020F001041C603448001D65
:1018B00005686D05FCD54FF6FF350560002051F831
:1018C000205002EB8006ADB2C6F8005C401C082830
:1018D000F5D344F008001860186880B240F00400A6
:1018E000186070BD2648016889B221F004010160CA
:1018F0004FF43F4101607047F0B5254A072800D0FA
:1019000010701078224B0624052604251C49062851
:101910000AD2DFE800F0030B10151D26586808B145
:101920001670F0BDFFF7DEFF1470F0BDFFF7DAFFB1
:101930001570012022E00220507003201070F0BDCD
:101940005078401E507050780028F8D11570F0BDC6
:10195000086880B240F01000086016700A205070CD
:10196000F0BD5078401E507050780028F8D10868BB
:1019700080B220F010000860147000205860F0BDA4
:10198000405C0040580100200050004090050020BD
:101990003801002010B5FE4C30B1FE4800680068E8
:1019A000804720680A3010BD21680120088200208D
:1019B00010BDF74810B50068F74AC17852789142D7
:1019C00003D882780AB982880AB1022010BD8172D8
:1019D000F048006840688047002010BD10B5EC4C0E
:1019E00030B1EC4800688068804720680C3010BD3A
:1019F000216801200882002010BD10B5E44CE74AA0
:101A000020681268C17892694079904721688A7A83
:101A100022B118B9087908B9887808B1022010BD38
:101A2000DC480068C068804720684179C172C1788D
:101A30000173002010BDD64910B5096860B1D848BF
:101A4000002202800A7853060AD002F07F02012A9F
:101A500016D0022A16D001E002200882002010BD14
:101A6000497A8A06027802D542F0020201E002F0C9
:101A7000FD0249060270D1B211D401F0FE0110E05E
:101A8000C74810BD49790A070B06C64901EB9261A8
:101A9000D1F8001C07D5C1F3011106E0017841F02F
:101AA0000101017003E0C1F301310129F6D0B94809
:101AB000006800698047E3E72DE9F041B448006819
:101AC000017811F07F0102D0022905D066E0417A49
:101AD00001F0DF0141724EE0418800295ED10179B9
:101AE000F1BB4179AF4D21F080040A0605EB840279
:101AF000A94BD2F8002C03D5C2F30112120102E067
:101B0000C2F3013212031E782346A64246D93AB3E5
:101B1000807A28B308064FEA84000ED52844D0F80E
:101B2000000CC0F30110012821D1184600F077FD08
:101B30002046302100F053FC19E04619D6F8000C7D
:101B4000C0F30130012812D14BF68F7748F280089C
:101B5000A4B1184600F051FDD6F8000C384000E062
:101B60001CE080F4405040EA0800C6F8000C8948A8
:101B70000068406980470020BDE8F0818A4890F8FD
:101B80002C10002000F0C2FDD5F8000C384080F485
:101B9000405040EA0800C5F8000CE8E70220EBE7F7
:101BA00070B57B487F4D0268517921F0800005EBCC
:101BB00080000B06D0F8003C21F0800403D5C3F36D
:101BC00001131B0102E0C3F301331B03724D2D7897
:101BD000A54210D9548874B96BB1927A5AB10906EA
:101BE000D0F8001C48F2800207D548F6BF731940B0
:101BF00081F0100106E0022070BD4BF68F73194092
:101C000081F480511143C0F8001C6248006880696B
:101C10008047002070BD5E4810B50068417A41F0F1
:101C2000200141725B480068C0698047002010BDF8
:101C3000574A13685A8A10B1086810447047888858
:101C4000801A1882002070472DE9F047504EDFF8C7
:101C50005C81574F34684FF0300934F8100FA16899
:101C6000A9B100B3A588854200D905462846884712
:101C700082462088401B20806088284460800020A5
:101C800000F01AFD01462A46504600F04DFB208820
:101C900048B14FF44051A8F800100021084600F068
:101CA00017FDA7F800902088A188884201D303205F
:101CB00001E020B1052031680872BDE8F087316885
:101CC0000620087235480068806880473068007ACE
:101CD00008280AD0374900200968374A090402EB6E
:101CE000D131486048463880E7E74FF48051A8F882
:101CF00000101020F7E72DE9F047DFF894902C4F03
:101D00004FF03008D9F8001001F11005088A0E7A5A
:101D100008B9042E04D0AC88A04216D8042615E0D9
:101D20001F48801E0178012903D007261020388023
:101D30002BE0204A002112681F4B120403EBD23221
:101D40005160A7F8008001701FE00226844200D98C
:101D50000446A968204688478246002000F0A1FC7E
:101D600001462246504600F0CDFA2146002000F000
:101D7000AFFC2888001B2880688820446880A7F86A
:101D800000800A494FF440500880D9F8000015E05F
:101D90004C010020540100200801002050010020C7
:101DA0004201002000500040B80000205A010020ED
:101DB0005C010020505C00400060004006727CE73F
:101DC00070B5E54D4FF00006296808784C7842065A
:101DD00006D000F07F0001282AD002282DD037E05D
:101DE000092C06D0052C07D0032C0ED0012C14D0C2
:101DF0002EE0FFF7DEFD2AE0C8787F2830D888780B
:101E000070BB888860BB887A29E0C87801281FD118
:101E10008888E8B9FFF7FFFE19E0C878012817D1D4
:101E20008888A8B9487A800612D5CC48466009E06F
:101E30000B2C0DD1FFF7E1FD09E0012C02D0032CA2
:101E400003D005E0FFF738FE01E0FFF7A9FE58B127
:101E5000C3492046096849698847032802D018B158
:101E600008200CE009200AE0BE4906200968BE4AA5
:101E7000090402EBD131BD4A4E603021118029683E
:101E8000087270BDF8B5B44CB54D0926206800271E
:101E900029684278062A05D0AAB1082A4ED00A2A13
:101EA00052D06EE0027852066BD18078012804D0BF
:101EB000022804D0032804D063E0C96959E0096A04
:101EC00057E0496A55E04288BABBC288022A58D115
:101ED000027992BB0278530601D1838833B102F0B4
:101EE0007F02012A05D0022A0DD04AE0AFF2B941A3
:101EF0003FE08A69407900219047F0B92068807AF4
:101F00000028F3D13DE0417901F00F0001F07002AB
:101F10000B06974901EB8001D1F8001C03D5C1F3F2
:101F20000111090102E0C1F301310903914B1B7852
:101F3000834226D90AB90029D8D122E00078400688
:101F40001FD1AFF2AF5114E0027802F07F02012AF4
:101F500017D1827AAAB142889AB902798AB9C2881D
:101F6000012A0ED18A6940790021904748B9AFF221
:101F7000935131B120684782816100208847002059
:101F800006E029682068096940788847032813D04B
:101F900021680A8AA2F57F43FF3B0BD002280ED0AE
:101FA0006AB10878000625D5C888009082420AD90F
:101FB000088218E00E72F8BD20680672F8BD4FF076
:101FC00008000872F8BD0ED22868644B90F82C0007
:101FD000824201D21F7006E0B2FBF0F400FB142035
:101FE00008B901201870286890F82C008882BDE894
:101FF000F84080E6032008725F4900030880F8BDBE
:102000005E4810B590F82C10002000F07FFB52487D
:102010000068007A082802D0092809D006E056494D
:102020004FF480500880514910200880002010BDD6
:10203000012010BD70B54B480068474D0004C10B2E
:1020400049480144098989B200EB41042868017AB2
:1020500009290FD02178017061784170A08800F0C3
:10206000BDFC29684880208900F0B8FC2968888078
:10207000A089C880286801210172C08820B1FFF7BB
:1020800001FFBDE87040BBE7FFF79AFEF9E7F0B546
:102090003849374E48F68F770D78002148F2800C8A
:1020A0000BE0CAB206EB8203D3F8004C3C40144369
:1020B00044EA0C04C3F8004C491CA942F1D3294955
:1020C00040F08000091F0860F0BD10B5224C206868
:1020D000017A022904D0042902D0062905D015E08E
:1020E000FFF709FE2068007A11E04178052909D13F
:1020F0000178490606D1C078FFF7C9FF204800687B
:10210000006A804716480068806880470820216878
:102110000872BDE8104073E710B50F4C2068007AD4
:10212000022811D004280FD0032804D0052802D09B
:10213000072805D008E0FFF787FD2068007A04E053
:1021400007480068C0688047082021680872BDE819
:10215000104055E7704700004C010020400100206E
:1021600050010020505C0040006000405C010020F5
:1021700000500040080100205A010020B800002053
:102180005401002006490548022208600272064AEE
:102190000448C1E90102006800470000B0050020C2
:1021A0004C010020B80000200C0100202DE9F84F60
:1021B0000020ADF800004BF6BF7648F280084A4D8B
:1021C0004A4C40F68F7ADFF8289148F60F7B494F4A
:1021D0002FE0088810F00F0089F8000032D007EBDC
:1021E0008001D1F8002CADF80020BDF800201204C9
:1021F0000BD5D1F8002C02EA0A02C1F8002C3E49A6
:1022000001EB800050F8040C8047BDF80000000688
:102210000FD599F8000007EB8001D1F8002C02EAF5
:102220000B02C1F8002C354901EB800050F8040C7A
:1022300080472D4844300068314908800004C8D4E4
:10224000BDE8F88F28682080208800F0300060808A
:10225000208800F4405020802868304080F40050EE
:1022600080F0200040EA080028600888C00617D4E3
:10227000296801EA0B012960FFF727FF28E0218880
:10228000890401D580F400506188C90628D461888A
:10229000890601D580F0200040EA08002860CFE7D9
:1022A0002868ADF80000BDF80000000506D52968D3
:1022B00001EA0A012960FFF7BDFE09E0BDF8000050
:1022C0000004B6D5286800EA0A002860FFF724FF5A
:1022D000286821883040C904D1D580F48050CEE7E9
:1022E00080F01000D3E70000005C00405A0100209D
:1022F00048010020005000408400002068000020B9
:102300005E0000200F4B10B5521C520803EB410138
:1023100009D010F8013B521E10F8014B43EA042388
:1023200021F8043BF5D110BD064B521C520803EBBB
:10233000410105D031F8043B20F8023B521EF9D18F
:102340007047000000600040FB4908607047FA4891
:10235000006880B27047F849091D08607047F64868
:10236000001D006880B27047F3480830006880B2F2
:102370007047F1490C3108607047EF480C30006835
:1023800080B27047EC4920F00700103108607047B8
:10239000E9481030006880B27047E84A02EB8000DC
:1023A000C0F8001C7047E54901EB8000D0F8000C34
:1023B00080B270478200E1481044D0F8002C48F603
:1023C0008F131A400A43C0F8002C7047DB4901EB19
:1023D0008000D0F8000CC0F341204002704782001A
:1023E000D6480244D2F8000C48F6BF731840CB061A
:1023F00001D580F01000890601D580F0200048F258
:1024000080010843C2F8000C70478200CB480244A8
:10241000D2F8000C4BF68F731840CB0401D580F432
:102420008050890401D580F4005048F280010843AF
:10243000C2F8000C704700B50B460246FFF7B3FF29
:102440009100BE4A012B0A4406D0022B03D120F092
:102450001000C2F8000C00BD20F48050F9E7B74925
:1024600001EB8000D0F8000CC0F3011000017047B0
:10247000B24901EB8000D0F8000CC0F3013000033A
:1024800070478100AD480844D0F8001C48F6BF7280
:10249000114081F0300148F280021143C0F8001C65
:1024A00070478100A5480844D0F8001C4BF68F7295
:1024B000114081F4405148F280021143C0F8001CE1
:1024C000704781009D480844D0F8001C48F68F7280
:1024D000114048F280121143C0F8001C704781007F
:1024E00096480844D0F8001C48F68F62114048F224
:1024F00080021143C0F8001C704781008F480844D7
:10250000D0F8001C48F68F62114048F28002114357
:10251000C0F8001C7047810088480844D0F8001CAF
:1025200048F68F72114048F280121143C0F8001C27
:102530007047810081480844D0F8001C48F68F722B
:10254000114048F280121143C0F8001C704781000E
:102550007A480844D0F8001C48F68F62114048F2CF
:1025600080021143C0F8001C7047744901EB8000E1
:10257000D0F8000CC0F30110012800D000207047F3
:102580006E4901EB8000D0F8000CC0F30130012847
:1025900000D000207047810068480844D0F8001C33
:1025A00040F68F721140C0F8001C704781006348EC
:1025B0000844D0F8001C48F60F721140C0F8001C07
:1025C000704781005D480844D0F8001C48F68F72BF
:1025D00011404CF280021143C0F8001C704781008A
:1025E00056480844D0F8001C48F68F72114048F253
:1025F000C0021143C0F8001C704781004F480844D6
:10260000D0F8001C490409D5D0F8001C48F68F7298
:1026100011404CF280021143C0F8001C7047810049
:1026200046480844D0F8001C490609D5D0F8001CDB
:1026300048F68F72114048F2C0021143C0F8001CE6
:10264000704782003D481044D0F8002C48F68F7344
:102650001A400A4348F280010A43C0F8002C704730
:10266000364901EB8000D0F8000C00F00F007047F5
:10267000314A21F001011032126892B202EBC0001F
:102680002F4A42F8101070472B4A21F001011032F6
:10269000126892B202EBC000294A02EB400081604E
:1026A000704725491031096889B201EBC0002449FF
:1026B00031F8100080B270471F491031096889B2A3
:1026C00001EBC0001E4901EB4000008980B2704759
:1026D000194A1032126892B202EBC000184A02EB9B
:1026E0004000416070473E2909D94A09C90601D115
:1026F000521E92B24FF4004141EAC22104E04A085E
:10270000C90700D0521C9102016070470A4A10327A
:10271000126892B202EBC000094A0C3202EB40028E
:102720003E290FD94809C90601D1401E80B24FF495
:10273000004141EAC0200AE0405C004000500040F7
:10274000006000404808C90700D0401C80021060AB
:102750007047A549096889B201EBC000A34901EBA4
:1027600040008088C0F3090070479F49096889B21A
:1027700001EBC0009D4901EB40008089C0F30900D6
:10278000704730B521F0010497490B6822F001022F
:102790009BB203EBC0035D00944BEC50096889B217
:1027A00001EBC00003EB4000826030BD8E4A21F097
:1027B0000101126892B202EBC0008C4A42F810107C
:1027C0007047894A21F00101126892B202EBC00001
:1027D000864A02EB4000816070478349096889B2EC
:1027E00001EBC000814931F8100080B270477E498A
:1027F000096889B201EBC0007C4901EB4000008907
:1028000080B270472DE9F043774F012912D0022999
:102810000ED1396889B201EBC0014B0073490B44FA
:102820005A603B689BB203EBC00001EB4000C26002
:10283000BDE8F08339686D4B89B201EBC0011B1D07
:1028400003EB410C530951085D1E4C1C4FF4004929
:102850003E2A07D91E465FEAC26800D1AEB249EAF5
:10286000C62605E00E465FEAC27800D02646B602CC
:10287000CCF800603E68B6B206EBC0005B4E0C368A
:1028800006EB40003E2A05D9D10600D1ABB249EA99
:10289000C32103E0D20700D0214689020160C7E7C7
:1028A000514B01290AD0022907D1196889B201EBDD
:1028B000C0004E4901EB400042607047196889B280
:1028C00001EBC0004949091D01EB40013E2A09D92D
:1028D0005009D20601D1401E80B24FF4004242EAB4
:1028E000C02004E05008D20700D0401C80020860DD
:1028F00070473D4B01290AD0022907D1196889B2D6
:1029000001EBC000394901EB4000C2607047196813
:1029100089B201EBC00035490C3101EB40013E2A80
:1029200009D95009D20601D1401E80B24FF40042AD
:1029300042EAC02004E05008D20700D0401C8002C8
:10294000086070472849096889B201EBC00027492F
:1029500001EB40008088C0F30900704722490968F4
:1029600089B201EBC000214901EB40008089C0F32E
:10297000090070471C490A6892B202EBC00253007A
:102980001A4A13449B8913F47C4F01D001207047ED
:10299000096889B201EBC00002EB40008088800525
:1029A000F5D002207047124A48F68F7302EB800080
:1029B00001290AD0022907D1D0F8001C4CF280026C
:1029C00019401143C0F8001C7047D0F8001C48F2B1
:1029D000C0021940F5E741EA00207047C1B2000A81
:1029E00040EA012070470000505C00400060004059
:1029F0000050004018490020086018494FF43F403B
:102A000008801549091F08600020704770B500F064
:102A10007F0514460E462846FFF743FE0146A2B244
:102A20003046FFF76FFCA1B22846FFF751FE0020A9
:102A300070BD70B500F07F060D463046FFF795FE7D
:102A400004463046FFF738FE014622462846FFF787
:102A50006BFC204670BD0000445C00405801002023
:102A600000BF7E48406800F002000028F9D07B4893
:102A7000406840F0020079494860704700BF7748DD
:102A8000406800F001000028F9D07448406840F028
:102A9000010072494860704710B5044670484069AB
:102AA00040F400606E4948614FF434706B4908602F
:102AB00000BF6A48406800F001000028F9D067486C
:102AC000406840F00100654948600020C860206906
:102AD000042801D0634810BDE06810B96148801E29
:102AE000F9E7E069B0F1113F02D04FF05A30F2E758
:102AF000A069B0F1443F06D0A069B0F1553F02D0C3
:102B00005848C01EE7E7E06800685449C863E068B9
:102B10004068C863E0688068C863E068C068C863EC
:102B20000846C06840F08000C860FFF799FFA069C0
:102B3000B0F1443F07D14948C06800F0FC00401C98
:102B40004649C86006E04548C06800F0FD00801CAA
:102B50004249C8604148C06800F0DF003F49C86092
:102B60000020B8E72DE9F041044667692568A668AA
:102B7000206808B1A06818B93A48801EBDE8F08105
:102B8000606918B1207D00F0030010B13548401E87
:102B9000F4E73348406900F40060B0F5006F0CD1F1
:102BA0002E48006800F40070B0F5007F05D12B4876
:102BB000006800F01000102802D02A48401CDDE711
:102BC00020E026492868086468680864A8680864E2
:102BD000E86808640846C06800F07F0040F08000A4
:102BE000C860FFF73DFF1D48406C30601B48406CDB
:102BF00070601A48406CB0601848406CF060103546
:102C000010363F1F002FDCD10020B7E710B5144865
:102C1000406900F40060B0F5006F1ED10F480068F5
:102C200000F01000102818D10C48006840F48070A3
:102C30000A4908600846006820F010000860FFF7A5
:102C40001DFF0648006820F400700449086004482D
:102C5000406920F400600249486110BD0040024014
:102C6000001002405E5A5A5A2E48406940F42060D3
:102C70002C49486116202C4908604FF480202949CE
:102C800008634FF05A30704700BF2748406800F093
:102C900080000028F9D02448406840F08000224994
:102CA000486070472DE9F04105460E46FFF7DCFF0E
:102CB0001D48C76800201C49C8600846C06840F02D
:102CC0000200C8600846C06840F48070C86015B94A
:102CD0001648BDE8F0810EB91548FAE71248C068F9
:102CE00040F080001049C8600846406840F4006029
:102CF0004860FFF7C9FF00240CE00B48C06840F0B3
:102D000080000949C860FFF7BFFF0748406945F8E0
:102D10002400641CB442F0D30348C7604FF05A301B
:102D2000D7E7000000100240004002406CB89D7AD6
:102D300050CF1E31D2B201E000F8012B491EFBD268
:102D400070470022F6E710B513460A4604461946B6
:102D5000FFF7F0FF204610BD064C074D06E0E06887
:102D600040F0010394E8070098471034AC42F6D3D2
:102D7000FDF7B6F9E02DFF1F002EFF1F70B58C1870
:102D800010F8015B15F0070301D110F8013B2A117F
:102D900006D110F8012B03E010F8016B01F8016B6C
:102DA0005B1EF9D12B0705D40023521E0DD401F868
:102DB000013BFAE710F8013BCB1A921C03E013F831
:102DC000015B01F8015B521EF9D5A142D8D3002066
:102DD00070BD002001E001C1121F002AFBD1704725
:102DE0009034FF1F00000020600100007C2DFF1FB9
:102DF0001035FF1F6001002030850000D22DFF1F1D
:102E000000000000000000000000000000000000C2
:102E10002DE9FF5FDFF818844446221D1046FEF7B7
:102E200075F8029008F20919217889F80010607885
:102E300089F801004FF0000BFE4C84F801B08DF8CA
:102E40000C00C4F8049089F802B01027DFF8E8A35A
:102E5000012689F803B008F1180532297ED00EDC6E
:102E600021297CD006DC01291BD0102978D020290B
:102E700077D1A8E0302975D03129F9D113E1432960
:102E800071D009DCEA4D402905F108056CD04129D3
:102E90006BD04229ECD16FE2502901D05129E7D102
:102EA000A6E21068D17800BA20F0FF000843E34999
:102EB000029066708842F3D8B0F5166FF0D3207890
:102EC00018B9DF4902988842EAD8DE488168DE48AE
:102ED000814200D0DD48029A00EBC00101EB0011F5
:102EE0008908B1FBF2F26423B2FBF3F121F07041E7
:102EF0006FF018054D4302EB8502322505EB0212F7
:102F0000B2FBF3F2029B4CF2503502F01F02AB42CF
:102F10000DD8642312FB03F201EBC103120903EB8A
:102F2000011102EB8101B0FBF1F064210EE04FF4DE
:102F30007A7312FB03F201EB41031209C3EBC111D7
:102F400002EBC101B0FBF1F04FF47A7148430299F2
:102F5000000901EB81014FF47A7207E025E141E0BD
:102F600015E0CFE04BE02FE27DE1B6E1B1FBF2F3FB
:102F7000029D2B44834293D9B1FBF2F1691A2A4690
:102F800081428DD2B2490A6084F801B030E2332127
:102F900089F8021089F80460222189F8051089F85F
:102FA00006101022AB4909F10700FEF70FFAA949F4
:102FB00010223031A848FEF709FAA649A648102287
:102FC000203110300BE04D4689F80270FDF785FF87
:102FD00060700028DAD1974910221031281DFEF7C1
:102FE000F5F905E29DF80C001F2801D9022004E044
:102FF0009DF80C102120FEF7BFF86070F8E19DF8F5
:103000000C0002287ED898F8041098F8052001EBEF
:1030100002214FF0006202EBC121029198F80610E4
:1030200098F807009DF80C2001EB0020C7023946F4
:103030000298FEF74DF960700028A7D1FEF7A6F9B7
:103040009DF80C10DAF80000084490F80F123020B8
:10305000FEF792F86070002898D1FEF797F90021EA
:103060009DF80C00FDF7C6FEFDF700FAFDF7BAFA71
:103070000025DFF8E8A113E002982844FDF735FAAF
:10308000DAF80010890701D50A2005E0062805D0E6
:1030900005287AD0667085E0607083E005F50065EC
:1030A000BD42E9D37EE09DF80C000228AAD898F82A
:1030B000030098F802106FF0130202EB00200F18C3
:1030C000802F9FD89DF80C2039460298FEF700F912
:1030D0006070002885D1FEF759F957489DF80C100B
:1030E0000068084490F80F123120FEF745F8607030
:1030F0000028A2D1FEF74AF94E48AA4610300168CE
:10310000491C00E092E001604B489DF80C100068FB
:10311000014491F81512012911D14FF05532CDE932
:10312000002B9DF80C10BA080844424B90F80F028F
:1031300010332946FDF7E3FF607000288CD1FEF7BD
:1031400025F9B9085046FDF719F827F003025AF897
:10315000021088426AD100219DF80C00FDF74AFE5A
:10316000FDF784F9FDF73EFA002518E002985AF8B9
:10317000251000EB8500FDF716FA38490968890724
:1031800004D53648C0F800B07EE705E0062805D033
:10319000052801D00F207FE709207DE76D1CB5EBE6
:1031A000970FE3D3FDF768F93CE09DF80C00022887
:1031B0003CD808F10400FDF7A9FE83462846FDF738
:1031C000A5FE02901A481C30FDF7A0FE0546B0F59A
:1031D000006F01D20E2010E79DF80C2001460298E6
:1031E000FEF776F8607000283CD1FEF7CFF89DF826
:1031F0000C10DAF80000084490F80F123220FDF7A6
:10320000BBFF607000282DD1FEF7C0F800219DF8AB
:103210000C00FDF7EFFDA9080298FCF7AFFF584539
:1032200000D0677001219DF80C0019E0A3E00000B8
:10323000800300203C0000200800002020AA440059
:1032400040420F001400002000A24A04006CDC027F
:1032500030000020C0F7FF1FA0040020044C0240F3
:10326000FDF7C8FDC4E098F8022098F8033002EB9F
:103270000322142A00D0667014224F4689F80220D7
:10328000012801D0022824D17948C269002A76DBBE
:10329000C069800713D598F80800A5280FD1754894
:1032A0000068401C09D1734808300068401C04D1F4
:1032B000704810300068401C01D011209DE6FDF7D9
:1032C000D5F82846FDF731F9062800D06670FDF7DD
:1032D000D3F814226849381D81E6042189F80210C8
:1032E00098F804104F464546022948D8012846D888
:1032F0000AD1FDF7BBF8EB79AA7969792879FDF74E
:103300000AFE6070FDF7B8F828795C49387101EB66
:10331000C001D1F80426521C04D0012805D091F830
:10332000001612E087F805B010E0534918390988F3
:10333000C1F30711FF2900D120214E4A121F127834
:10334000891A4C4A0C321278891A7971DAF800100D
:1033500001F20F22825CFF2A02D087F806B001E05A
:10336000FF22BA7101F2122201F21521825C405C47
:103370000243FA713CE002E04746062801D9667034
:1033800036E004D12846FDF7C1FD054602E03C4980
:1033900051F82050FDF76AF8FDF724F92846029904
:1033A000FCF716FF607060B97878022809D102989E
:1033B000C04301460290281DFDF7F5F8062800D00D
:1033C0006670FDF759F813E098F808A04F4689F8A1
:1033D00002A0002509E039460298FCF759FF00B128
:1033E00066700298001D2D1D02903F1D5545F2D3B9
:1033F00098F800004746212803D0302801D0322811
:1034000003D1FDF76AFD00B166701E4960784E4633
:1034100011F8102001EB400089F80421407889F868
:10342000050199F8020099F8031000EB012085B21C
:10343000022087F808011448007801280FD061683D
:10344000124C2A1D2068FDF7C1FF206896F8041170
:103450002844017196F805114171BDE8FF9FAD1D2B
:10346000A8B26168FDF791FCBDE8FF5FFDF7D3BC32
:103470000020024004F6FF1F00F8FF1F00F0FF1FAE
:10348000B4F6FF1F80F7FF1F140000200400002087
:10349000011482FF24A24A048A1C1813FF016380CE
:1034A00025041180CBA41AAA011ABB011ACC011A57
:1034B000DD01C10D325521FF1F0491120633201288
:1034C0001A120832241E5116FF1F6F041E0B17FF1D
:1034D0001F0D041A85041AC3041AF1041AC7041A2A
:1034E000CF041AD7044132401A363819CD111A3A8E
:1034F0000832181A520832201A7208321A4B010187
:10350000A41AF35409168C5A0350192B01290000F0
:10351000FFFFFFFFFFFFFFFFFFFFFFFFFFFFFFFFBB
:10352000FFFFFFFFFFFFFFFFFFFFFFFFFFFFFFFFAB
:10353000FFFFFFFFFFFFFFFFFFFFFFFFFFFFFFFF9B
:10354000FFFFFFFFFFFFFFFFFFFFFFFFFFFFFFFF8B
:10355000FFFFFFFFFFFFFFFFFFFFFFFFFFFFFFFF7B
:10356000FFFFFFFFFFFFFFFFFFFFFFFFFFFFFFFF6B
:10357000FFFFFFFFFFFFFFFFFFFFFFFFFFFFFFFF5B
:10358000FFFFFFFFFFFFFFFFFFFFFFFFFFFFFFFF4B
:10359000FFFFFFFFFFFFFFFFFFFFFFFFFFFFFFFF3B
:1035A000FFFFFFFFFFFFFFFFFFFFFFFFFFFFFFFF2B
:1035B000FFFFFFFFFFFFFFFFFFFFFFFFFFFFFFFF1B
:1035C000FFFFFFFFFFFFFFFFFFFFFFFFFFFFFFFF0B
:1035D000FFFFFFFFFFFFFFFFFFFFFFFFFFFFFFFFFB
:1035E0001111111122222222333333334444444433
:1035F0008BEE3B000F3F1B1A7E1795F5EED474D966
:10360000D04ED6A1B3FBA44F189224287121DC77A9
:103610001D4E32239B26630B6F8151C7CC7F0C0D4F
:103620002BADA920AF67DC603E786E07E57241459F
:10363000E3710B2130262661BF79CCE28296486582
:103640009A0D581FF5182906C511AD2EFA7470BBD6
:10365000F7DB4A96093267EB0B56B8D8787AAF0990
:10366000119075CFE63A155CCB9148BAB4359A9172
:10367000ED18CD6638DB11C752CC73E687E9D4DF8D
:103680005612FBB353E4D84161619B296519C98E79
:1036900060BB63CE3B4A7C2FF45E4503DE45FF01F1
:1036A0006A6002F709CC95C3EA19D9618ADD37252A
:1036B0007BDF4065D9E6EA8AE9044A2432C540DB6B
:1036C000E1D1CAA0E306F774DEC4D1ECFB1DEB57D1
:1036D000900E5F2427AB4BD0FF0F409F954E1D618E
:1036E000406E889AF33548A6ADAF35D8B16850EB37
:1036F000F5F3FF4B3FFF9F0B742E7D79FF2E0E4598
:103700001D4485DCF8D5236C5D887574396B248F76
:10371000B759530B6B80A0EFE749B7B43027622449
:103720005AF886E14B090768E8760361E2CEF6C5F0
:1037300005F15B0C0C011860FF0335994336D32665
:10374000371F2B3C63E713CC968F4F8909B8A264CF
:10375000ACD5DCA7B0FE8DC899EF28A955E87BD37E
:10376000F2B28D579C4579B945F082980BAAE22DAB
:103770001C0BDF5CA981E0C234F9356304BE93E71A
:10378000530667ED5FF26A244C34ABFDCA7B3C6B99
:103790005144493BE11C616DBC3D87352097F92AB6
:1037A000DCBC006B8C9DACBD1D55E2CC89340B3963
:1037B00053BC3A3720E0DA9BE915353FA9EA4A4D78
:1037C000537000B713BD1E74A5B1D549933556CDBE
:1037D000BE284AF5978DAB5E263420BC316773F561
:1037E00090CFD7C90000000000000000000000FFDB
:1037F000FFFF00000000000001000000D4B6BD166D
:103800000C0002287ED898F8041098F8052001EBE7
:1038100002214FF0006202EBC121029198F80610DC
:1038200098F807009DF80C2001EB0020C7023946EC
:103830000298FEF74DF960700028A7D1FEF7A6F9AF
:103840009DF80C10DAF80000084490F80F123020B0
:10385000FEF792F86070002898D1FEF797F90021E2
:103860009DF80C00FDF7C6FEFDF700FAFDF7BAFA69
:103870000025DFF8E8A113E002982844FDF735FAA7
:10388000DAF80010890701D50A2005E0062805D0DE
:1038900005287AD0667085E0607083E005F50065E4
:1038A000BD42E9D37EE09DF80C000228AAD898F822
:1038B000030098F802106FF0130202EB00200F18BB
:1038C000802F9FD89DF80C2039460298FEF700F90A
:1038D0006070002885D1FEF759F957489DF80C1003
:1038E0000068084490F80F123120FEF745F8607028
:1038F0000028A2D1FEF74AF94E48AA4610300168C6
:10390000491C00E092E001604B489DF80C100068F3
:10391000014491F81512012911D14FF05532CDE92A
:10392000002B9DF80C10BA080844424B90F80F0287
:1039300010332946FDF7E3FF607000288CD1FEF7B5
:1039400025F9B9085046FDF719F827F003025AF88F
:10395000021088426AD100219DF80C00FDF74AFE52
:10396000FDF784F9FDF73EFA002518E002985AF8B1
:10397000251000EB8500FDF716FA3849096889071C
:1039800004D53648C0F800B07EE705E0062805D02B
:10399000052801D00F207FE709207DE76D1CB5EBDE
:1039A000970FE3D3FDF768F93CE09DF80C0002287F
:1039B0003CD808F10400FDF7A9FE83462846FDF730
:1039C000A5FE02901A481C30FDF7A0FE0546B0F592
:1039D000006F01D20E2010E79DF80C2001460298DE
:1039E000FEF776F8607000283CD1FEF7CFF89DF81E
:1039F0000C10DAF80000084490F80F123220FDF79E
:103A0000BBFF607000282DD1FEF7C0F800219DF8A3
:103A10000C00FDF7EFFDA9080298FCF7AFFF584531
:103A200000D0677001219DF80C0019E0A3E00000B0
:103A3000800300203C0000200800002020AA440051
:103A400040420F001400002000A24A04006CDC0277
:103A500030000020C0F7FF1FA0040020044C0240EB
:103A6000FDF7C8FDC4E098F8022098F8033002EB97
:103A70000322142A00D0667014224F4689F80220CF
:103A8000012801D0022824D17948C269002A76DBB6
:103A9000C069800713D598F80800A5280FD175488C
:103AA0000068401C09D1734808300068401C04D1EC
:103AB000704810300068401C01D011209DE6FDF7D1
:103AC000D5F82846FDF731F9062800D06670FDF7D5
:103AD000D3F814226849381D81E6042189F80210C0
:103AE00098F804104F464546022948D8012846D880
:103AF0000AD1FDF7BBF8EB79AA7969792879FDF746
:103B00000AFE6070FDF7B8F828795C49387101EB5E
:103B1000C001D1F80426521C04D0012805D091F828
:103B2000001612E087F805B010E0534918390988EB
:103B3000C1F30711FF2900D120214E4A121F12782C
:103B4000891A4C4A0C321278891A7971DAF8001005
:103B500001F20F22825CFF2A02D087F806B001E052
:103B6000FF22BA7101F2122201F21521825C405C3F
:103B70000243FA713CE002E04746062801D966702C
:103B800036E004D12846FDF7C1FD054602E03C4978
:103B900051F82050FDF76AF8FDF724F928460299FC
:103BA000FCF716FF607060B97878022809D1029896
:103BB000C04301460290281DFDF7F5F8062800D005
:103BC0006670FDF759F813E098F808A04F4689F899
:103BD00002A0002509E039460298FCF759FF00B120
:103BE00066700298001D2D1D02903F1D5545F2D3B1
:103BF00098F800004746212803D0302801D0322809
:103C000003D1FDF76AFD00B166701E4960784E462B
:103C100011F8102001EB400089F80421407889F860
:103C2000050199F8020099F8031000EB012085B214
:103C3000022087F808011448007801280FD0616835
:103C4000124C2A1D2068FDF7C1FF206896F8041168
:103C50002844017196F805114171BDE8FF9FAD1D23
:103C6000A8B26168FDF791FCBDE8FF5FFDF7D3BC2A
:103C70000020024004F6FF1F00F8FF1F00F0FF1FA6
:103C8000B4F6FF1F80F7FF1F14000020040000207F
:103C9000011482FF24A24A048A1C1813FF016380C6
:103CA00025041180CBA41AAA011ABB011ACC011A4F
:103CB000DD01C10D325521FF1F0491120633201280
:103CC0001A120832241E5116FF1F6F041E0B17FF15
:103CD0001F0D041A85041AC3041AF1041AC7041A22
:103CE000CF041AD7044132401A363819CD111A3A86
:103CF0000832181A520832201A7208321A4B01017F
:103D0000A41AF35409168C5A0350192B01290000E8
:103D1000FFFFFFFFFFFFFFFFFFFFFFFFFFFFFFFFB3
:103D2000FFFFFFFFFFFFFFFFFFFFFFFFFFFFFFFFA3
:103D3000FFFFFFFFFFFFFFFFFFFFFFFFFFFFFFFF93
:103D4000FFFFFFFFFFFFFFFFFFFFFFFFFFFFFFFF83
:103D5000FFFFFFFFFFFFFFFFFFFFFFFFFFFFFFFF73
:103D6000FFFFFFFFFFFFFFFFFFFFFFFFFFFFFFFF63
:103D7000FFFFFFFFFFFFFFFFFFFFFFFFFFFFFFFF53
:103D8000FFFFFFFFFFFFFFFFFFFFFFFFFFFFFFFF43
:103D9000FFFFFFFFFFFFFFFFFFFFFFFFFFFFFFFF33
:103DA000FFFFFFFFFFFFFFFFFFFFFFFFFFFFFFFF23
:103DB000FFFFFFFFFFFFFFFFFFFFFFFFFFFFFFFF13
:103DC000FFFFFFFFFFFFFFFFFFFFFFFFFFFFFFFF03
:103DD000FFFFFFFFFFFFFFFFFFFFFFFFFFFFFFFFF3
:103DE000111111112222222233333333444444442B
:103DF0008BEE3B000F3F1B1A7E1795F5EED474D95E
:103E0000D04ED6A1B3FBA44F189224287121DC77A1
:103E10001D4E32239B26630B6F8151C7CC7F0C0D47
:103E20002BADA920AF67DC603E786E07E572414597
:103E3000E3710B2130262661BF79CCE2829648657A
:103E40009A0D581FF5182906C511AD2EFA7470BBCE
:103E5000F7DB4A96093267EB0B56B8D8787AAF0988
:103E6000119075CFE63A155CCB9148BAB4359A916A
:103E7000ED18CD6638DB11C752CC73E687E9D4DF85
:103E80005612FBB353E4D84161619B296519C98E71
:103E900060BB63CE3B4A7C2FF45E4503DE45FF01E9
:103EA0006A6002F709CC95C3EA19D9618ADD372522
:103EB0007BDF4065D9E6EA8AE9044A2432C540DB63
:103EC000E1D1CAA0E306F774DEC4D1ECFB1DEB57C9
:103ED000900E5F2427AB4BD0FF0F409F954E1D6186
:103EE000406E889AF33548A6ADAF35D8B16850EB2F
:103EF000F5F3FF4B3FFF9F0B742E7D79FF2E0E4590
:103F00001D4485DCF8D5236C5D887574396B248F6E
:103F1000B759530B6B80A0EFE749B7B43027622441
:103F20005AF886E14B090768E8760361E2CEF6C5E8
:103F300005F15B0C0C011860FF0335994336D3265D
:103F4000371F2B3C63E713CC968F4F8909B8A264C7
:103F5000ACD5DCA7B0FE8DC899EF28A955E87BD376
:103F6000F2B28D579C4579B945F082980BAAE22DA3
:103F70001C0BDF5CA981E0C234F9356304BE93E712
:103F8000530667ED5FF26A244C34ABFDCA7B3C6B91
:103F90005144493BE11C616DBC3D87352097F92AAE
:103FA000DCBC006B8C9DACBD1D55E2CC89340B395B
:103FB00053BC3A3720E0DA9BE915353FA9EA4A4D70
:103FC000537000B713BD1E74A5B1D549933556CDB6
:103FD000BE284AF5978DAB5E263420BC316773F559
:103FE00090CFD7C90000000000000100000000FFD2
:103FF000FFFF000000000000000000003A236718E7
:00000001FF
